{
  "contractName": "BConst",
  "abi": [
    {
      "constant": true,
      "inputs": [],
      "name": "MAX_TOTAL_WEIGHT",
      "outputs": [
        {
          "internalType": "uint256",
          "name": "",
          "type": "uint256"
        }
      ],
      "payable": false,
      "stateMutability": "view",
      "type": "function"
    },
    {
      "constant": true,
      "inputs": [],
      "name": "MIN_WEIGHT",
      "outputs": [
        {
          "internalType": "uint256",
          "name": "",
          "type": "uint256"
        }
      ],
      "payable": false,
      "stateMutability": "view",
      "type": "function"
    },
    {
      "constant": true,
      "inputs": [],
      "name": "MIN_FEE",
      "outputs": [
        {
          "internalType": "uint256",
          "name": "",
          "type": "uint256"
        }
      ],
      "payable": false,
      "stateMutability": "view",
      "type": "function"
    },
    {
      "constant": true,
      "inputs": [],
      "name": "MIN_BALANCE",
      "outputs": [
        {
          "internalType": "uint256",
          "name": "",
          "type": "uint256"
        }
      ],
      "payable": false,
      "stateMutability": "view",
      "type": "function"
    },
    {
      "constant": true,
      "inputs": [],
      "name": "getColor",
      "outputs": [
        {
          "internalType": "bytes32",
          "name": "",
          "type": "bytes32"
        }
      ],
      "payable": false,
      "stateMutability": "view",
      "type": "function"
    },
    {
      "constant": true,
      "inputs": [],
      "name": "MAX_FEE",
      "outputs": [
        {
          "internalType": "uint256",
          "name": "",
          "type": "uint256"
        }
      ],
      "payable": false,
      "stateMutability": "view",
      "type": "function"
    },
    {
      "constant": true,
      "inputs": [],
      "name": "MAX_BALANCE",
      "outputs": [
        {
          "internalType": "uint256",
          "name": "",
          "type": "uint256"
        }
      ],
      "payable": false,
      "stateMutability": "view",
      "type": "function"
    },
    {
      "constant": true,
      "inputs": [],
      "name": "MAX_WEIGHT",
      "outputs": [
        {
          "internalType": "uint256",
          "name": "",
          "type": "uint256"
        }
      ],
      "payable": false,
      "stateMutability": "view",
      "type": "function"
    }
  ],
  "bytecode": "0x608060405234801561001057600080fd5b506101aa806100206000396000f3fe608060405234801561001057600080fd5b50600436106100a5576000357c0100000000000000000000000000000000000000000000000000000000900480639a86139b116100785780639a86139b146100dc578063bc063e1a146100e4578063def92c69146100ec578063e4a28a52146100aa576100a5565b806309a3bbe4146100aa578063218b5382146100c457806376c7a3c7146100cc578063867378c5146100d4575b600080fd5b6100b26100f4565b60408051918252519081900360200190f35b6100b2610101565b6100b261010d565b6100b261011e565b6100b2610130565b6100b2610154565b6100b2610164565b6802b5e3af16b188000081565b670de0b6b3a764000081565b612710670de0b6b3a76400005b0481565b620f4240670de0b6b3a764000061011a565b7f42524f4e5a45000000000000000000000000000000000000000000000000000090565b600a670de0b6b3a764000061011a565b6c0c9f2c9cd04674edea400000008156fea265627a7a72315820f1b921629781add4d8b8588b9befa9bbe802ceedcaf8be80bb6876a0c773b54664736f6c634300050b0032",
  "source": "// This program is free software: you can redistribute it and/or modify\n// it under the terms of the GNU General Public License as published by\n// the Free Software Foundation, either version 3 of the License, or\n// (at your option) any later version.\n\n// This program is distributed in the hope that it will be useful,\n// but WITHOUT ANY WARRANTY; without even the implied warranty of\n// MERCHANTABILITY or FITNESS FOR A PARTICULAR PURPOSE.  See the\n// GNU General Public License for more details.\n\n// You should have received a copy of the GNU General Public License\n// along with this program.  If not, see <http://www.gnu.org/licenses/>.\n\npragma solidity ^0.5.11;\n\nimport \"contracts/BColor.sol\";\n\ncontract BConst is BBronze\n{\n    uint8   constant MAX_BOUND_TOKENS  = 8;\n    uint256 constant BONE              = 10**18;\n\n    uint256 public constant MIN_FEE           = BONE / 10000;\n    uint256 public constant MAX_FEE           = BONE / 10;\n\n    uint256 public constant MIN_WEIGHT        = BONE;\n    uint256 public constant MAX_WEIGHT        = BONE * 50;\n    uint256 public constant MAX_TOTAL_WEIGHT  = BONE * 50;\n    uint256 public constant MIN_BALANCE       = BONE / 10**6;\n    uint256 public constant MAX_BALANCE       = BONE * 10**12;\n\n    uint256 constant MIN_POOL_SUPPLY   = BONE;\n\n    uint256 constant MAX_IN_RATIO      = BONE / 2;\n    uint256 constant MAX_OUT_RATIO     = BONE / 2;\n    uint256 constant MIN_SLIP_PRICE    = BONE * 55 / 100;\n\n    uint256 constant APPROX_ITERATIONS = 20;\n\n    string constant ERR_ADD_OVERFLOW       = \"ERR_ADD_OVERFLOW\";\n    string constant ERR_SUB_UNDERFLOW      = \"ERR_SUB_UNDERFLOW\";\n    string constant ERR_MUL_OVERFLOW       = \"ERR_MUL_OVERFLOW\";\n    string constant ERR_DIV_ZERO           = \"ERR_DIV_ZERO\";\n    string constant ERR_DIV_INTERNAL       = \"ERR_DIV_INTERNAL\";\n    string constant ERR_BPOW_BASE_TOO_HIGH = \"ERR_BPOW_BASE_TOO_HIGH\";\n    string constant ERR_BPOW_BASE_TOO_LOW  = \"ERR_BPOW_BASE_TOO_LOW\";\n\n    string constant ERR_MAX_TOKENS         = \"ERR_MAX_TOKENS\";\n    string constant ERR_MAX_FEE            = \"ERR_MAX_FEE\";\n    string constant ERR_MIN_WEIGHT         = \"ERR_MIN_WEIGHT\";\n    string constant ERR_MAX_WEIGHT         = \"ERR_MAX_WEIGHT\";\n    string constant ERR_MIN_BALANCE        = \"ERR_MIN_BALANCE\";\n    string constant ERR_MAX_BALANCE        = \"ERR_MAX_BALANCE\";\n    string constant ERR_MAX_TOTAL_WEIGHT   = \"ERR_MAX_TOTAL_WEIGHT\";\n    string constant ERR_MIN_POOL_SUPPLY    = \"ERR_MAX_BALANCE\";\n\n    string constant ERR_IS_FUNDED          = \"ERR_IS_FUNDED\";\n    string constant ERR_NOT_FUNDED         = \"ERR_NOT_FUNDED\";\n    string constant ERR_IS_BOUND           = \"ERR_IS_BOUND\";\n    string constant ERR_NOT_BOUND          = \"ERR_NOT_BOUND\";\n\n    string constant ERR_IS_FINALIZED       = \"ERR_IS_FINALIZED\";\n    string constant ERR_NOT_FINALIZED      = \"ERR_NOT_FINALIZED\";\n\n    string constant ERR_NOT_CONTROLLER     = \"ERR_NOT_CONTROLLER\";\n    string constant ERR_NOT_FACTORY        = \"ERR_NOT_FACTORY\";\n\n    string constant ERR_SWAP_NOT_PUBLIC    = \"ERR_SWAP_NOT_PUBLIC\";\n    string constant ERR_JOIN_NOT_PUBLIC    = \"ERR_JOIN_NOT_PUBLIC\";\n\n    string constant ERR_REENTRY            = \"ERR_REENTRY\";\n    string constant ERR_ERC20_FALSE        = \"ERR_ERC20_FALSE\";\n    \n    string constant ERR_UNREACHABLE        = \"ERR_UNREACHABLE\";\n\n    string constant ERR_MAX_IN_RATIO       = \"ERR_MAX_IN_RATIO\";\n    string constant ERR_MAX_OUT_RATIO      = \"ERR_MAX_OUT_RATIO\";\n\n    string constant ERR_LIMIT_IN           = \"ERR_LIMIT_IN\";\n    string constant ERR_LIMIT_OUT          = \"ERR_LIMIT_OUT\";\n    string constant ERR_LIMIT_PRICE        = \"ERR_LIMIT_PRICE\";\n    string constant ERR_NO_SOLUTION        = \"ERR_NO_SOLUTION\";\n\n    string constant ERR_ARG_LIMIT_IN       = \"ERR_ARG_LIMIT_IN\";\n    string constant ERR_ARG_LIMIT_OUT      = \"ERR_ARG_LIMIT_OUT\";\n    string constant ERR_ARG_LIMIT_PRICE    = \"ERR_ARG_LIMIT_PRICE\";\n\n}\n",
  "sourcePath": "contracts/BConst.sol",
  "compiler": {
    "name": "solc",
    "version": "0.5.11+commit.c082d0b4.Emscripten.clang"
  },
  "schemaVersion": "3.0.16",
  "updatedAt": "2019-10-05T04:34:13.685Z",
  "devdoc": {
    "methods": {}
  },
  "userdoc": {
    "methods": {}
  }
}