{
  "contractName": "BFactory",
  "abi": [
    {
      "constant": true,
      "inputs": [],
      "name": "getColor",
      "outputs": [
        {
          "internalType": "bytes32",
          "name": "",
          "type": "bytes32"
        }
      ],
      "payable": false,
      "stateMutability": "view",
      "type": "function"
    },
    {
      "inputs": [],
      "payable": false,
      "stateMutability": "nonpayable",
      "type": "constructor"
    },
    {
      "anonymous": false,
      "inputs": [
        {
          "indexed": true,
          "internalType": "address",
          "name": "caller",
          "type": "address"
        },
        {
          "indexed": true,
          "internalType": "address",
          "name": "pool",
          "type": "address"
        }
      ],
      "name": "LOG_NEW_POOL",
      "type": "event"
    },
    {
      "constant": true,
      "inputs": [
        {
          "internalType": "address",
          "name": "b",
          "type": "address"
        }
      ],
      "name": "isBPool",
      "outputs": [
        {
          "internalType": "bool",
          "name": "",
          "type": "bool"
        }
      ],
      "payable": false,
      "stateMutability": "view",
      "type": "function"
    },
    {
      "constant": false,
      "inputs": [],
      "name": "newBPool",
      "outputs": [
        {
          "internalType": "contract BPool",
          "name": "",
          "type": "address"
        }
      ],
      "payable": false,
      "stateMutability": "nonpayable",
      "type": "function"
    },
    {
      "constant": true,
      "inputs": [],
      "name": "getBLabs",
      "outputs": [
        {
          "internalType": "address",
          "name": "",
          "type": "address"
        }
      ],
      "payable": false,
      "stateMutability": "view",
      "type": "function"
    },
    {
      "constant": false,
      "inputs": [
        {
          "internalType": "address",
          "name": "b",
          "type": "address"
        }
      ],
      "name": "setBLabs",
      "outputs": [],
      "payable": false,
      "stateMutability": "nonpayable",
      "type": "function"
    },
    {
      "constant": false,
      "inputs": [
        {
          "internalType": "contract BPool",
          "name": "pool",
          "type": "address"
        },
        {
          "internalType": "address",
          "name": "to",
          "type": "address"
        }
      ],
      "name": "collect",
      "outputs": [],
      "payable": false,
      "stateMutability": "nonpayable",
      "type": "function"
    }
  ],
  "bytecode": "0x608060405234801561001057600080fd5b5060018054600160a060020a0319163317905561697d806100326000396000f3fe608060405234801561001057600080fd5b506004361061007e577c0100000000000000000000000000000000000000000000000000000000600035046336ffb16781146100835780639a86139b146100a7578063a12ef25e146100c1578063c2bb6dc2146100f1578063c6ce34fb1461012b578063d556c5dc14610151575b600080fd5b61008b610159565b60408051600160a060020a039092168252519081900360200190f35b6100af610168565b60408051918252519081900360200190f35b6100ef600480360360408110156100d757600080fd5b50600160a060020a038135811691602001351661018c565b005b6101176004803603602081101561010757600080fd5b5035600160a060020a031661032a565b604080519115158252519081900360200190f35b6100ef6004803603602081101561014157600080fd5b5035600160a060020a0316610348565b61008b61038e565b600154600160a060020a031690565b7f42524f4e5a45000000000000000000000000000000000000000000000000000090565b600154600160a060020a0316331461020557604080517f08c379a000000000000000000000000000000000000000000000000000000000815260206004820152600d60248201527f4552525f4e4f545f424c41425300000000000000000000000000000000000000604482015290519081900360640190fd5b600082600160a060020a031663e52253816040518163ffffffff167c0100000000000000000000000000000000000000000000000000000000028152600401602060405180830381600087803b15801561025e57600080fd5b505af1158015610272573d6000803e3d6000fd5b505050506040513d602081101561028857600080fd5b5051604080517fa9059cbb000000000000000000000000000000000000000000000000000000008152600160a060020a0385811660048301526024820184905291519293509085169163a9059cbb916044808201926020929091908290030181600087803b1580156102f957600080fd5b505af115801561030d573d6000803e3d6000fd5b505050506040513d602081101561032357600080fd5b5050505050565b600160a060020a031660009081526020819052604090205460ff1690565b600154600160a060020a0316331461035f57600080fd5b6001805473ffffffffffffffffffffffffffffffffffffffff1916600160a060020a0392909216919091179055565b60008060405161039d90610485565b604051809103906000f0801580156103b9573d6000803e3d6000fd5b50604080517f92eefe9b0000000000000000000000000000000000000000000000000000000081523360048201529051919250600160a060020a038316916392eefe9b9160248082019260009290919082900301818387803b15801561041e57600080fd5b505af1158015610432573d6000803e3d6000fd5b50505050600160a060020a038116600081815260208190526040808220805460ff191660011790555133917f8ccec77b0cb63ac2cafd0f5de8cdfadab91ce656d262240ba8a6343bccc5f94591a3905090565b6164b6806104938339019056fe608060405234801561001057600080fd5b506004805433600160a060020a03199091168117909155600380547fffffffffffffffff0000000000000000000000000000000000000000ffffffff166401000000009092029190911763ffffff001916905561644380620000736000396000f3fe608060405234801561001057600080fd5b5060043610610329576000357c010000000000000000000000000000000000000000000000000000000090048063867378c5116101ba578063cc77828d11610106578063def92c69116100bf578063f1b8a9b711610099578063f1b8a9b714610968578063f27af5d11461098e578063f8b2cb4f146109ad578063ff4a1db1146109d357610329565b8063def92c6914610958578063e4a28a521461038d578063e52253811461096057610329565b8063cc77828d146108ac578063cd2ed8fb146108b4578063ce1d477d146108bc578063cf5e7bd3146108fc578063db8d55f114610922578063dd62ed3e1461092a57610329565b8063990e784a11610173578063bc063e1a1161014d578063bc063e1a14610803578063be1d24ad1461080b578063be3bbd2e14610828578063c83d529e1461088057610329565b8063990e784a146107a15780639a86139b146107cf578063a9059cbb146107d757610329565b8063867378c5146107175780638c28cbe81461071f5780638d4e40831461074557806392eefe9b1461074d578063936c347714610773578063948d8ce61461077b57610329565b806332476e83116102795780635718db491161023257806370a082311161020c57806370a082311461069157806376c7a3c7146106b75780637ff10552146106bf57806381bac14f146106f157610329565b80635718db49146105d957806362fd79421461063257806370080c631461067257610329565b806332476e831461051057806334e7a19f146105185780633d0a406114610535578063483605e81461055b5780634b0f9faa146105875780635689b249146105b357610329565b806315e84af9116102e6578063218b5382116102c0578063218b53821461048857806323b872dd146104905780632f37b624146104c65780633018205f146104ec57610329565b806315e84af91461042657806318160ddd146104545780631ecc61bc1461045c57610329565b806305261aea1461032e578063095ea7b31461034d57806309a3bbe41461038d5780630b78f9c0146103a75780631446a7ff146103ca578063156e38cd146103f8575b600080fd5b61034b6004803603602081101561034457600080fd5b50356109db565b005b6103796004803603604081101561036357600080fd5b50600160a060020a038135169060200135610cdc565b604080519115158252519081900360200190f35b610395610d41565b60408051918252519081900360200190f35b61034b600480360360408110156103bd57600080fd5b5080359060200135610d4e565b610395600480360360408110156103e057600080fd5b50600160a060020a0381358116916020013516610fea565b6103956004803603604081101561040e57600080fd5b50600160a060020a03813581169160200135166110b2565b6103956004803603604081101561043c57600080fd5b50600160a060020a0381358116916020013516611171565b6103956111fd565b6103956004803603604081101561047257600080fd5b5080359060200135600160a060020a0316611203565b6103956113e6565b610379600480360360608110156104a657600080fd5b50600160a060020a038135811691602081013590911690604001356113f2565b610379600480360360208110156104dc57600080fd5b5035600160a060020a0316611570565b6104f461158d565b60408051600160a060020a039092168252519081900360200190f35b610379611618565b61034b6004803603602081101561052e57600080fd5b5035611626565b61034b6004803603602081101561054b57600080fd5b5035600160a060020a0316611886565b6103956004803603604081101561057157600080fd5b50600160a060020a038135169060200135611ac3565b6103956004803603604081101561059d57600080fd5b50600160a060020a038135169060200135611cab565b610379600480360360208110156105c957600080fd5b5035600160a060020a0316611ea4565b610619600480360360a08110156105ef57600080fd5b50600160a060020a0381358116916020810135916040820135169060608101359060800135611ec4565b6040805192835260208301919091528051918290030190f35b610619600480360360a081101561064857600080fd5b50600160a060020a0381358116916020810135916040820135169060608101359060800135612483565b61034b6004803603602081101561068857600080fd5b50351515612a31565b610395600480360360208110156106a757600080fd5b5035600160a060020a0316612c37565b610395612c52565b61034b600480360360608110156106d557600080fd5b50600160a060020a038135169060208101359060400135612c63565b61034b6004803603602081101561070757600080fd5b5035600160a060020a031661327b565b61039561361b565b61034b6004803603602081101561073557600080fd5b5035600160a060020a031661362d565b610379613845565b61034b6004803603602081101561076357600080fd5b5035600160a060020a0316613855565b6103956139f7565b6103956004803603602081101561079157600080fd5b5035600160a060020a0316613a79565b610395600480360360408110156107b757600080fd5b50600160a060020a0381358116916020013516613b90565b610395613c15565b610379600480360360408110156107ed57600080fd5b50600160a060020a038135169060200135613c39565b610395613c8f565b61034b6004803603602081101561082157600080fd5b5035613c9f565b610830613eff565b60408051602080825283518183015283519192839290830191858101910280838360005b8381101561086c578181015183820152602001610854565b505050509050019250505060405180910390f35b6103956004803603604081101561089657600080fd5b5080359060200135600160a060020a031661406b565b61083061423b565b6103956142b5565b610619600480360360a08110156108d257600080fd5b50600160a060020a03813581169160208101359160408201351690606081013590608001356142bb565b61034b6004803603602081101561091257600080fd5b5035600160a060020a031661486a565b610619614c41565b6103956004803603604081101561094057600080fd5b50600160a060020a0381358116916020013516614ccd565b610395614cf6565b610395614d07565b6103956004803603602081101561097e57600080fd5b5035600160a060020a0316614ec8565b61034b600480360360208110156109a457600080fd5b50351515614fea565b610395600480360360208110156109c357600080fd5b5035600160a060020a03166151ee565b610379615305565b33600160a060020a0316600035600160e060020a031916600160e060020a03191660003660405180806020018281038252848482818152602001925080828437600083820152604051601f909101601f19169092018290039550909350505050a260035460408051808201909152600b815260008051602061638f83398151915260208201529060ff1615610af15760405160e560020a62461bcd0281526004018080602001828103825283818151815260200191508051906020019080838360005b83811015610ab6578181015183820152602001610a9e565b50505050905090810190601f168015610ae35780820380516001836020036101000a031916815260200191505b509250505060405180910390fd5b506003805460ff1916600117905560045460408051808201909152601281526000805160206163af83398151915260208201529033600160a060020a0390911614610b805760405160e560020a62461bcd028152602060048201818152835160248401528351909283926044909101919085019080838360008315610ab6578181015183820152602001610a9e565b5060035460408051808201909152601081526000805160206163ef8339815191526020820152906301000000900460ff1615610c005760405160e560020a62461bcd028152602060048201818152835160248401528351909283926044909101919085019080838360008315610ab6578181015183820152602001610a9e565b5060408051808201909152600f81527f4552525f4d41585f42414c414e434500000000000000000000000000000000006020820152670de0b6b3a7640000821015610c8f5760405160e560020a62461bcd028152602060048201818152835160248401528351909283926044909101919085019080838360008315610ab6578181015183820152602001610a9e565b506003805462ff00001961ff001963ff0000001990921663010000001791909116610100171662010000179055610cc581615314565b610ccf3382615320565b506003805460ff19169055565b33600081815260208181526040808320600160a060020a038716808552908352818420869055815186815291519394909390927f8c5be1e5ebec7d5bd14f71427d1e84f3dd0314c0f7b2291e5b200ac8c7c3b925928290030190a35060015b92915050565b6802b5e3af16b188000081565b33600160a060020a0316600035600160e060020a031916600160e060020a03191660003660405180806020018281038252848482818152602001925080828437600083820152604051601f909101601f19169092018290039550909350505050a260035460408051808201909152600b815260008051602061638f83398151915260208201529060ff1615610e275760405160e560020a62461bcd028152602060048201818152835160248401528351909283926044909101919085019080838360008315610ab6578181015183820152602001610a9e565b506003805460ff1916600117905560045460408051808201909152601281526000805160206163af83398151915260208201529033600160a060020a0390911614610eb65760405160e560020a62461bcd028152602060048201818152835160248401528351909283926044909101919085019080838360008315610ab6578181015183820152602001610a9e565b5060408051808201909152600b81527f4552525f4d41585f464545000000000000000000000000000000000000000000602082015267016345785d8a0000831115610f455760405160e560020a62461bcd028152602060048201818152835160248401528351909283926044909101919085019080838360008315610ab6578181015183820152602001610a9e565b5060408051808201909152600b81527f4552525f4d41585f464545000000000000000000000000000000000000000000602082015267016345785d8a0000821115610fd45760405160e560020a62461bcd028152602060048201818152835160248401528351909283926044909101919085019080838360008315610ab6578181015183820152602001610a9e565b506005919091556006556003805460ff19169055565b60035460408051808201909152600b815260008051602061638f833981519152602082015260009160ff16156110645760405160e560020a62461bcd028152602060048201818152835160248401528351909283926044909101919085019080838360008315610ab6578181015183820152602001610a9e565b50600160a060020a0380841660009081526008602052604080822092851682528120600280840154600180860154928401549084015493946110a9949293929061532e565b95945050505050565b60035460408051808201909152600b815260008051602061638f833981519152602082015260009160ff161561112c5760405160e560020a62461bcd028152602060048201818152835160248401528351909283926044909101919085019080838360008315610ab6578181015183820152602001610a9e565b50600160a060020a0380841660009081526008602052604080822092851682528120600280840154600180860154928401549084015493946110a99492939290615398565b60035460408051808201909152600b815260008051602061638f833981519152602082015260009160ff16156111eb5760405160e560020a62461bcd028152602060048201818152835160248401528351909283926044909101919085019080838360008315610ab6578181015183820152602001610a9e565b506111f683836153e8565b9392505050565b60025490565b600033600160a060020a0316600035600160e060020a031916600160e060020a03191660003660405180806020018281038252848482818152602001925080828437600083820152604051601f909101601f19169092018290039550909350505050a260035460408051808201909152600b815260008051602061638f83398151915260208201529060ff16156112de5760405160e560020a62461bcd028152602060048201818152835160248401528351909283926044909101919085019080838360008315610ab6578181015183820152602001610a9e565b506003805460ff191660011790556112f582611ea4565b6040518060400160405280600e81526020016000805160206163cf833981519152815250906113685760405160e560020a62461bcd028152602060048201818152835160248401528351909283926044909101919085019080838360008315610ab6578181015183820152602001610a9e565b50600160a060020a0382166000908152600860205260409020600280820154600183015491546009546005546113a294929190899061542f565b91506113ad84615314565b6113b73385615320565b6113c28333846154f7565b6113d0816002015483615622565b6002909101556003805460ff1916905592915050565b670de0b6b3a764000081565b600033600160a060020a038516148061142c5750600160a060020a0384166000908152602081815260408083203384529091529020548211155b611480576040805160e560020a62461bcd02815260206004820152601560248201527f4552525f42544f4b454e5f4241445f43414c4c45520000000000000000000000604482015290519081900360640190fd5b61148b8484846156b7565b82600160a060020a031684600160a060020a03167fddf252ad1be2c89b69c2b068fc378daa952ba7f163c4a11628f55a4df523b3ef846040518082815260200191505060405180910390a333600160a060020a038516148015906115125750600160a060020a03841660009081526020818152604080832033845290915290205460001914155b1561156657600160a060020a0384166000908152602081815260408083203384529091529020546115439083615765565b600160a060020a0385166000908152602081815260408083203384529091529020555b5060019392505050565b600160a060020a0316600090815260086020526040902054151590565b60035460408051808201909152600b815260008051602061638f833981519152602082015260009160ff16156116075760405160e560020a62461bcd028152602060048201818152835160248401528351909283926044909101919085019080838360008315610ab6578181015183820152602001610a9e565b5050600454600160a060020a031690565b600354610100900460ff1690565b33600160a060020a0316600035600160e060020a031916600160e060020a03191660003660405180806020018281038252848482818152602001925080828437600083820152604051601f909101601f19169092018290039550909350505050a260035460408051808201909152600b815260008051602061638f83398151915260208201529060ff16156116ff5760405160e560020a62461bcd028152602060048201818152835160248401528351909283926044909101919085019080838360008315610ab6578181015183820152602001610a9e565b506003805460ff19166001179081905560408051808201909152601181527f4552525f4e4f545f46494e414c495a45440000000000000000000000000000006020820152906301000000900460ff1661179c5760405160e560020a62461bcd028152602060048201818152835160248401528351909283926044909101919085019080838360008315610ab6578181015183820152602001610a9e565b5060006117a76111fd565b905060006117b583836157c5565b905060005b600754811015611863576000600782815481106117d357fe5b6000918252602080832090910154600160a060020a03168083526008909152604082206002015490925090611808858361599e565b600160a060020a0384166000908152600860205260409020600201549091506118319082615622565b600160a060020a0384166000908152600860205260409020600201556118588333836154f7565b5050506001016117ba565b5061186d83615314565b6118773384615320565b50506003805460ff1916905550565b33600160a060020a0316600035600160e060020a031916600160e060020a03191660003660405180806020018281038252848482818152602001925080828437600083820152604051601f909101601f19169092018290039550909350505050a260035460408051808201909152600b815260008051602061638f83398151915260208201529060ff161561195f5760405160e560020a62461bcd028152602060048201818152835160248401528351909283926044909101919085019080838360008315610ab6578181015183820152602001610a9e565b506003805460ff1916600117905560045460408051808201909152601281526000805160206163af83398151915260208201529033600160a060020a03909116146119ee5760405160e560020a62461bcd028152602060048201818152835160248401528351909283926044909101919085019080838360008315610ab6578181015183820152602001610a9e565b506119f7613845565b156040518060400160405280601081526020016000805160206163ef83398151915281525090611a6b5760405160e560020a62461bcd028152602060048201818152835160248401528351909283926044909101919085019080838360008315610ab6578181015183820152602001610a9e565b50600160a060020a038116600090815260086020526040902060020154611a959082903390615ae2565b600160a060020a0316600090815260086020526040812060028101829055600101556003805460ff19169055565b600033600160a060020a0316600035600160e060020a031916600160e060020a03191660003660405180806020018281038252848482818152602001925080828437600083820152604051601f909101601f19169092018290039550909350505050a260035460408051808201909152600b815260008051602061638f83398151915260208201529060ff1615611b9e5760405160e560020a62461bcd028152602060048201818152835160248401528351909283926044909101919085019080838360008315610ab6578181015183820152602001610a9e565b506003805460ff19166001179055611bb583611ea4565b6040518060400160405280600e81526020016000805160206163cf83398151915281525090611c285760405160e560020a62461bcd028152602060048201818152835160248401528351909283926044909101919085019080838360008315610ab6578181015183820152602001610a9e565b5060028054600160a060020a0385166000908152600860205260409020918201546001830154600954600554939493611c6693929186918990615b4e565b9250611c7183615314565b611c7b3384615320565b611c868533866154f7565b611c94816002015485615622565b600290910155506003805460ff1916905592915050565b600033600160a060020a0316600035600160e060020a031916600160e060020a03191660003660405180806020018281038252848482818152602001925080828437600083820152604051601f909101601f19169092018290039550909350505050a260035460408051808201909152600b815260008051602061638f83398151915260208201529060ff1615611d865760405160e560020a62461bcd028152602060048201818152835160248401528351909283926044909101919085019080838360008315610ab6578181015183820152602001610a9e565b506003805460ff19166001179055611d9d83611ea4565b6040518060400160405280600e81526020016000805160206163cf83398151915281525090611e105760405160e560020a62461bcd028152602060048201818152835160248401528351909283926044909101919085019080838360008315610ab6578181015183820152602001610a9e565b5060006008600085600160a060020a0316600160a060020a0316815260200190815260200160002090506000611e5b8260020154836001015460025460095488600554600654615beb565b9050611e673382615c7a565b611e7081615c84565b611e7b853386615ae2565b611e89826002015485615c8d565b60029092019190915590506003805460ff1916905592915050565b600160a060020a0316600090815260086020526040902060010154151590565b6040805160208082523690820181905260009283923392600160e060020a03198535169285929081908101848480828437600083820152604051601f909101601f19169092018290039550909350505050a260035460408051808201909152600b815260008051602061638f83398151915260208201529060ff1615611f8e5760405160e560020a62461bcd028152602060048201818152835160248401528351909283926044909101919085019080838360008315610ab6578181015183820152602001610a9e565b506003805460ff19166001179055611fa587611ea4565b6040518060400160405280600e81526020016000805160206163cf833981519152815250906120185760405160e560020a62461bcd028152602060048201818152835160248401528351909283926044909101919085019080838360008315610ab6578181015183820152602001610a9e565b5061202285611ea4565b6040518060400160405280600e81526020016000805160206163cf833981519152815250906120955760405160e560020a62461bcd028152602060048201818152835160248401528351909283926044909101919085019080838360008315610ab6578181015183820152602001610a9e565b5061209e611618565b6040518060400160405280601381526020017f4552525f535741505f4e4f545f5055424c494300000000000000000000000000815250906121235760405160e560020a62461bcd028152602060048201818152835160248401528351909283926044909101919085019080838360008315610ab6578181015183820152602001610a9e565b50600160a060020a038088166000908152600860205260408082209288168252902060028082015461215f91670de0b6b3a76400005b0461599e565b8311156040518060400160405280601181526020017f4552525f4d41585f4f55545f524154494f000000000000000000000000000000815250906121e75760405160e560020a62461bcd028152602060048201818152835160248401528351909283926044909101919085019080838360008315610ab6578181015183820152602001610a9e565b506121f28988615d31565b85106040518060400160405280601381526020017f4552525f4152475f4c494d49545f505249434500000000000000000000000000815250906122795760405160e560020a62461bcd028152602060048201818152835160248401528351909283926044909101919085019080838360008315610ab6578181015183820152602001610a9e565b5061229a826002015483600101548360020154846001015489600554615d78565b93506122bc826002015483600101548360020154846001015488600554615e03565b9250878411156040518060400160405280600c81526020017f4552525f4c494d49545f494e0000000000000000000000000000000000000000815250906123475760405160e560020a62461bcd028152602060048201818152835160248401528351909283926044909101919085019080838360008315610ab6578181015183820152602001610a9e565b5060408051808201909152600d81527f4552525f4c494d49545f4f5554000000000000000000000000000000000000006020820152868410156123ce5760405160e560020a62461bcd028152602060048201818152835160248401528351909283926044909101919085019080838360008315610ab6578181015183820152602001610a9e565b506123dd826002015485615622565b82600201819055506123f3816002015484615c8d565b60028201556124038933866154f7565b61240e873385615ae2565b86600160a060020a031689600160a060020a031633600160a060020a03167f908fb5ee8f16c6bc9bc3690973819f32a4d4b10188134543c88706e0e1d433788787604051808381526020018281526020019250505060405180910390a450506003805460ff1916905590969095509350505050565b6040805160208082523690820181905260009283923392600160e060020a03198535169285929081908101848480828437600083820152604051601f909101601f19169092018290039550909350505050a260035460408051808201909152600b815260008051602061638f83398151915260208201529060ff161561254d5760405160e560020a62461bcd028152602060048201818152835160248401528351909283926044909101919085019080838360008315610ab6578181015183820152602001610a9e565b506003805460ff1916600117905561256487611ea4565b6040518060400160405280600e81526020016000805160206163cf833981519152815250906125d75760405160e560020a62461bcd028152602060048201818152835160248401528351909283926044909101919085019080838360008315610ab6578181015183820152602001610a9e565b506125e185611ea4565b6040518060400160405280600e81526020016000805160206163cf833981519152815250906126545760405160e560020a62461bcd028152602060048201818152835160248401528351909283926044909101919085019080838360008315610ab6578181015183820152602001610a9e565b5061265d611618565b6040518060400160405280601381526020017f4552525f535741505f4e4f545f5055424c494300000000000000000000000000815250906126e25760405160e560020a62461bcd028152602060048201818152835160248401528351909283926044909101919085019080838360008315610ab6578181015183820152602001610a9e565b50600160a060020a038088166000908152600860205260408082209288168252902060028082015461271c91670de0b6b3a7640000612159565b8611156040518060400160405280601181526020017f4552525f4d41585f4f55545f524154494f000000000000000000000000000000815250906127a45760405160e560020a62461bcd028152602060048201818152835160248401528351909283926044909101919085019080838360008315610ab6578181015183820152602001610a9e565b506127af8988615d31565b85106040518060400160405280601381526020017f4552525f4152475f4c494d49545f505249434500000000000000000000000000815250906128365760405160e560020a62461bcd028152602060048201818152835160248401528351909283926044909101919085019080838360008315610ab6578181015183820152602001610a9e565b5061285782600201548360010154836002015484600101548a600554615e84565b9350878411156040518060400160405280600c81526020017f4552525f4c494d49545f494e0000000000000000000000000000000000000000815250906128e25760405160e560020a62461bcd028152602060048201818152835160248401528351909283926044909101919085019080838360008315610ab6578181015183820152602001610a9e565b506128f1826002015485615622565b8260020181905550612907816002015487615c8d565b600282015560006129188a89615d31565b9050858110156040518060400160405280600f81526020017f4552525f4c494d49545f50524943450000000000000000000000000000000000815250906129a35760405160e560020a62461bcd028152602060048201818152835160248401528351909283926044909101919085019080838360008315610ab6578181015183820152602001610a9e565b506129af8a33876154f7565b6129ba883389615ae2565b87600160a060020a03168a600160a060020a031633600160a060020a03167f908fb5ee8f16c6bc9bc3690973819f32a4d4b10188134543c88706e0e1d43378888b604051808381526020018281526020019250505060405180910390a4925050506003805460ff1916905590969095509350505050565b33600160a060020a0316600035600160e060020a031916600160e060020a03191660003660405180806020018281038252848482818152602001925080828437600083820152604051601f909101601f19169092018290039550909350505050a260035460408051808201909152600b815260008051602061638f83398151915260208201529060ff1615612b0a5760405160e560020a62461bcd028152602060048201818152835160248401528351909283926044909101919085019080838360008315610ab6578181015183820152602001610a9e565b506003805460ff19166001179081905560408051808201909152601081526000805160206163ef8339815191526020820152906301000000900460ff1615612b965760405160e560020a62461bcd028152602060048201818152835160248401528351909283926044909101919085019080838360008315610ab6578181015183820152602001610a9e565b5060045460408051808201909152601281526000805160206163af833981519152602082015290600160a060020a03163314612c165760405160e560020a62461bcd028152602060048201818152835160248401528351909283926044909101919085019080838360008315610ab6578181015183820152602001610a9e565b506003805460ff19921515620100000262ff00001990911617919091169055565b600160a060020a031660009081526001602052604090205490565b612710670de0b6b3a76400005b0481565b33600160a060020a0316600035600160e060020a031916600160e060020a03191660003660405180806020018281038252848482818152602001925080828437600083820152604051601f909101601f19169092018290039550909350505050a260035460408051808201909152600b815260008051602061638f83398151915260208201529060ff1615612d3c5760405160e560020a62461bcd028152602060048201818152835160248401528351909283926044909101919085019080838360008315610ab6578181015183820152602001610a9e565b506003805460ff1916600117905560045460408051808201909152601281526000805160206163af83398151915260208201529033600160a060020a0390911614612dcb5760405160e560020a62461bcd028152602060048201818152835160248401528351909283926044909101919085019080838360008315610ab6578181015183820152602001610a9e565b50612dd583611570565b6040518060400160405280600d81526020017f4552525f4e4f545f424f554e440000000000000000000000000000000000000081525090612e5a5760405160e560020a62461bcd028152602060048201818152835160248401528351909283926044909101919085019080838360008315610ab6578181015183820152602001610a9e565b5060035460408051808201909152601081526000805160206163ef8339815191526020820152906301000000900460ff1615612eda5760405160e560020a62461bcd028152602060048201818152835160248401528351909283926044909101919085019080838360008315610ab6578181015183820152602001610a9e565b5060408051808201909152600e81527f4552525f4d494e5f5745494748540000000000000000000000000000000000006020820152670de0b6b3a7640000821015612f695760405160e560020a62461bcd028152602060048201818152835160248401528351909283926044909101919085019080838360008315610ab6578181015183820152602001610a9e565b5060408051808201909152600e81527f4552525f4d41585f57454947485400000000000000000000000000000000000060208201526802b5e3af16b1880000821115612ff95760405160e560020a62461bcd028152602060048201818152835160248401528351909283926044909101919085019080838360008315610ab6578181015183820152602001610a9e565b5060408051808201909152600f81527f4552525f4d494e5f42414c414e43450000000000000000000000000000000000602082015264e8d4a510008310156130855760405160e560020a62461bcd028152602060048201818152835160248401528351909283926044909101919085019080838360008315610ab6578181015183820152602001610a9e565b5060408051808201909152600f81527f4552525f4d41585f42414c414e4345000000000000000000000000000000000060208201526c0c9f2c9cd04674edea400000008311156131195760405160e560020a62461bcd028152602060048201818152835160248401528351909283926044909101919085019080838360008315610ab6578181015183820152602001610a9e565b50600160a060020a038316600090815260086020526040902060010154808211156131ec5761315360095461314e8484615c8d565b615622565b600981905560408051808201909152601481527f4552525f4d41585f544f54414c5f5745494748540000000000000000000000006020820152906802b5e3af16b1880000116131e65760405160e560020a62461bcd028152602060048201818152835160248401528351909283926044909101919085019080838360008315610ab6578181015183820152602001610a9e565b50613205565b6132016009546131fc8385615c8d565b615c8d565b6009555b600160a060020a0384166000908152600860205260409020600181018390556002018054908490558084111561324e5761324985336132448785615c8d565b6154f7565b61326a565b8084101561326a5761326a85336132658488615c8d565b615ae2565b50506003805460ff19169055505050565b33600160a060020a0316600035600160e060020a031916600160e060020a03191660003660405180806020018281038252848482818152602001925080828437600083820152604051601f909101601f19169092018290039550909350505050a260035460408051808201909152600b815260008051602061638f83398151915260208201529060ff16156133545760405160e560020a62461bcd028152602060048201818152835160248401528351909283926044909101919085019080838360008315610ab6578181015183820152602001610a9e565b506003805460ff1916600117905560045460408051808201909152601281526000805160206163af83398151915260208201529033600160a060020a03909116146133e35760405160e560020a62461bcd028152602060048201818152835160248401528351909283926044909101919085019080838360008315610ab6578181015183820152602001610a9e565b506133ed81611570565b156040518060400160405280600c81526020017f4552525f49535f424f554e440000000000000000000000000000000000000000815250906134735760405160e560020a62461bcd028152602060048201818152835160248401528351909283926044909101919085019080838360008315610ab6578181015183820152602001610a9e565b5061347c613845565b156040518060400160405280601081526020016000805160206163ef833981519152815250906134f05760405160e560020a62461bcd028152602060048201818152835160248401528351909283926044909101919085019080838360008315610ab6578181015183820152602001610a9e565b5060075460408051808201909152600e81527f4552525f4d41585f544f4b454e5300000000000000000000000000000000000060208201529060081161357a5760405160e560020a62461bcd028152602060048201818152835160248401528351909283926044909101919085019080838360008315610ab6578181015183820152602001610a9e565b50600780546001818101928390557fa66cc928b5edb82af9bd49922954155ab7b0942694bea4ce44661d9a8736c6889091018054600160a060020a0390941673ffffffffffffffffffffffffffffffffffffffff19909416841790556040805160608101825292835260006020848101828152858401838152968352600890915291902092518355519082015590516002909101556003805460ff19169055565b620f4240670de0b6b3a7640000612c5f565b33600160a060020a0316600035600160e060020a031916600160e060020a03191660003660405180806020018281038252848482818152602001925080828437600083820152604051601f909101601f19169092018290039550909350505050a260035460408051808201909152600b815260008051602061638f83398151915260208201529060ff16156137065760405160e560020a62461bcd028152602060048201818152835160248401528351909283926044909101919085019080838360008315610ab6578181015183820152602001610a9e565b506003805460ff1916600117905561371d81611ea4565b6040518060400160405280600e81526020016000805160206163cf833981519152815250906137905760405160e560020a62461bcd028152602060048201818152835160248401528351909283926044909101919085019080838360008315610ab6578181015183820152602001610a9e565b50604080517f70a082310000000000000000000000000000000000000000000000000000000081523060048201529051600160a060020a038316916370a08231916024808301926020929190829003018186803b1580156137f057600080fd5b505afa158015613804573d6000803e3d6000fd5b505050506040513d602081101561381a57600080fd5b5051600160a060020a039091166000908152600860205260409020600201556003805460ff19169055565b6003546301000000900460ff1690565b33600160a060020a0316600035600160e060020a031916600160e060020a03191660003660405180806020018281038252848482818152602001925080828437600083820152604051601f909101601f19169092018290039550909350505050a260035460408051808201909152600b815260008051602061638f83398151915260208201529060ff161561392e5760405160e560020a62461bcd028152602060048201818152835160248401528351909283926044909101919085019080838360008315610ab6578181015183820152602001610a9e565b506003805460ff1916600117905560045460408051808201909152601281526000805160206163af83398151915260208201529033600160a060020a03909116146139bd5760405160e560020a62461bcd028152602060048201818152835160248401528351909283926044909101919085019080838360008315610ab6578181015183820152602001610a9e565b506004805473ffffffffffffffffffffffffffffffffffffffff1916600160a060020a03929092169190911790556003805460ff19169055565b60035460408051808201909152600b815260008051602061638f833981519152602082015260009160ff1615613a715760405160e560020a62461bcd028152602060048201818152835160248401528351909283926044909101919085019080838360008315610ab6578181015183820152602001610a9e565b505060095490565b60035460408051808201909152600b815260008051602061638f833981519152602082015260009160ff1615613af35760405160e560020a62461bcd028152602060048201818152835160248401528351909283926044909101919085019080838360008315610ab6578181015183820152602001610a9e565b50613afd82611ea4565b6040518060400160405280600e81526020016000805160206163cf83398151915281525090613b705760405160e560020a62461bcd028152602060048201818152835160248401528351909283926044909101919085019080838360008315610ab6578181015183820152602001610a9e565b5050600160a060020a031660009081526008602052604090206001015490565b60035460408051808201909152600b815260008051602061638f833981519152602082015260009160ff1615613c0a5760405160e560020a62461bcd028152602060048201818152835160248401528351909283926044909101919085019080838360008315610ab6578181015183820152602001610a9e565b506111f68383615d31565b7f42524f4e5a45000000000000000000000000000000000000000000000000000090565b6000613c463384846156b7565b604080518381529051600160a060020a0385169133917fddf252ad1be2c89b69c2b068fc378daa952ba7f163c4a11628f55a4df523b3ef9181900360200190a350600192915050565b600a670de0b6b3a7640000612c5f565b33600160a060020a0316600035600160e060020a031916600160e060020a03191660003660405180806020018281038252848482818152602001925080828437600083820152604051601f909101601f19169092018290039550909350505050a260035460408051808201909152600b815260008051602061638f83398151915260208201529060ff1615613d785760405160e560020a62461bcd028152602060048201818152835160248401528351909283926044909101919085019080838360008315610ab6578181015183820152602001610a9e565b506003805460ff19166001179081905560408051808201909152601181527f4552525f4e4f545f46494e414c495a45440000000000000000000000000000006020820152906301000000900460ff16613e155760405160e560020a62461bcd028152602060048201818152835160248401528351909283926044909101919085019080838360008315610ab6578181015183820152602001610a9e565b506000613e206111fd565b90506000613e2e83836157c5565b9050613e3a3384615c7a565b613e4383615c84565b60005b600754811015613eef57600060078281548110613e5f57fe5b6000918252602080832090910154600160a060020a03168083526008909152604082206002015490925090613e94858361599e565b600160a060020a038416600090815260086020526040902060020154909150613ebd9082615c8d565b600160a060020a038416600090815260086020526040902060020155613ee4833383615ae2565b505050600101613e46565b50506003805460ff191690555050565b60035460408051808201909152600b815260008051602061638f833981519152602082015260609160ff1615613f795760405160e560020a62461bcd028152602060048201818152835160248401528351909283926044909101919085019080838360008315610ab6578181015183820152602001610a9e565b5060035460408051808201909152601181527f4552525f4e4f545f46494e414c495a45440000000000000000000000000000006020820152906301000000900460ff1661400a5760405160e560020a62461bcd028152602060048201818152835160248401528351909283926044909101919085019080838360008315610ab6578181015183820152602001610a9e565b50600780548060200260200160405190810160405280929190818152602001828054801561406157602002820191906000526020600020905b8154600160a060020a03168152600190910190602001808311614043575b5050505050905090565b600033600160a060020a0316600035600160e060020a031916600160e060020a03191660003660405180806020018281038252848482818152602001925080828437600083820152604051601f909101601f19169092018290039550909350505050a260035460408051808201909152600b815260008051602061638f83398151915260208201529060ff16156141465760405160e560020a62461bcd028152602060048201818152835160248401528351909283926044909101919085019080838360008315610ab6578181015183820152602001610a9e565b506003805460ff1916600117905561415d82611ea4565b6040518060400160405280600e81526020016000805160206163cf833981519152815250906141d05760405160e560020a62461bcd028152602060048201818152835160248401528351909283926044909101919085019080838360008315610ab6578181015183820152602001610a9e565b50600160a060020a03821660009081526008602052604090206002808201546001830154915460095460055460065461420d959392918a91615ef8565b91506142193385615c7a565b61422284615c84565b61422d833384615ae2565b6113d0816002015483615c8d565b60035460408051808201909152600b815260008051602061638f833981519152602082015260609160ff161561400a5760405160e560020a62461bcd028152602060048201818152835160248401528351909283926044909101919085019080838360008315610ab6578181015183820152602001610a9e565b60075490565b6040805160208082523690820181905260009283923392600160e060020a03198535169285929081908101848480828437600083820152604051601f909101601f19169092018290039550909350505050a260035460408051808201909152600b815260008051602061638f83398151915260208201529060ff16156143855760405160e560020a62461bcd028152602060048201818152835160248401528351909283926044909101919085019080838360008315610ab6578181015183820152602001610a9e565b506003805460ff1916600117905561439c87611ea4565b6040518060400160405280600e81526020016000805160206163cf8339815191528152509061440f5760405160e560020a62461bcd028152602060048201818152835160248401528351909283926044909101919085019080838360008315610ab6578181015183820152602001610a9e565b5061441985611ea4565b6040518060400160405280600e81526020016000805160206163cf8339815191528152509061448c5760405160e560020a62461bcd028152602060048201818152835160248401528351909283926044909101919085019080838360008315610ab6578181015183820152602001610a9e565b50614495611618565b6040518060400160405280601381526020017f4552525f535741505f4e4f545f5055424c4943000000000000000000000000008152509061451a5760405160e560020a62461bcd028152602060048201818152835160248401528351909283926044909101919085019080838360008315610ab6578181015183820152602001610a9e565b50600160a060020a038088166000908152600860205260408082209288168252902060028083015461455491670de0b6b3a7640000612159565b8811156040518060400160405280601081526020017f4552525f4d41585f494e5f524154494f00000000000000000000000000000000815250906145dc5760405160e560020a62461bcd028152602060048201818152835160248401528351909283926044909101919085019080838360008315610ab6578181015183820152602001610a9e565b506145e789886153e8565b8510156040518060400160405280601081526020017f4552525f4152475f4c494d49545f494e000000000000000000000000000000008152509061466f5760405160e560020a62461bcd028152602060048201818152835160248401528351909283926044909101919085019080838360008315610ab6578181015183820152602001610a9e565b5061469082600201548360010154836002015484600101548c600554615e03565b9350858410156040518060400160405280600d81526020017f4552525f4c494d49545f4f5554000000000000000000000000000000000000008152509061471b5760405160e560020a62461bcd028152602060048201818152835160248401528351909283926044909101919085019080838360008315610ab6578181015183820152602001610a9e565b5061472a826002015489615622565b8260020181905550614740816002015485615c8d565b600282015560006147518a896153e8565b9050858111156040518060400160405280600f81526020017f4552525f4c494d49545f50524943450000000000000000000000000000000000815250906147dc5760405160e560020a62461bcd028152602060048201818152835160248401528351909283926044909101919085019080838360008315610ab6578181015183820152602001610a9e565b506147e88a338b6154f7565b6147f3883387615ae2565b87600160a060020a03168a600160a060020a031633600160a060020a03167f908fb5ee8f16c6bc9bc3690973819f32a4d4b10188134543c88706e0e1d433788c89604051808381526020018281526020019250505060405180910390a4925050506003805460ff1916905590969095509350505050565b33600160a060020a0316600035600160e060020a031916600160e060020a03191660003660405180806020018281038252848482818152602001925080828437600083820152604051601f909101601f19169092018290039550909350505050a260035460408051808201909152600b815260008051602061638f83398151915260208201529060ff16156149435760405160e560020a62461bcd028152602060048201818152835160248401528351909283926044909101919085019080838360008315610ab6578181015183820152602001610a9e565b506003805460ff1916600117905560045460408051808201909152601281526000805160206163af83398151915260208201529033600160a060020a03909116146149d25760405160e560020a62461bcd028152602060048201818152835160248401528351909283926044909101919085019080838360008315610ab6578181015183820152602001610a9e565b506149dc81611570565b6040518060400160405280600d81526020017f4552525f4e4f545f424f554e440000000000000000000000000000000000000081525090614a615760405160e560020a62461bcd028152602060048201818152835160248401528351909283926044909101919085019080838360008315610ab6578181015183820152602001610a9e565b50614a6b81611ea4565b156040518060400160405280600d81526020017f4552525f49535f46554e4445440000000000000000000000000000000000000081525090614af15760405160e560020a62461bcd028152602060048201818152835160248401528351909283926044909101919085019080838360008315610ab6578181015183820152602001610a9e565b50600160a060020a03811660009081526008602052604090205460078054600019928301928101919082908110614b2457fe5b60009182526020909120015460078054600160a060020a039092169184908110614b4a57fe5b9060005260206000200160006101000a815481600160a060020a030219169083600160a060020a03160217905550816001016008600060078581548110614b8d57fe5b6000918252602080832090910154600160a060020a031683528201929092526040019020556007805480614bbd57fe5b600082815260208082208301600019908101805473ffffffffffffffffffffffffffffffffffffffff1916905590920190925560408051606081018252838152808301848152818301858152600160a060020a039890981685526008909352922091518255516001820155925160029093019290925550506003805460ff19169055565b60035460408051808201909152600b815260008051602061638f833981519152602082015260009182919060ff1615614cbe5760405160e560020a62461bcd028152602060048201818152835160248401528351909283926044909101919085019080838360008315610ab6578181015183820152602001610a9e565b50600554600654915091509091565b600160a060020a0391821660009081526020818152604080832093909416825291909152205490565b6c0c9f2c9cd04674edea4000000081565b600033600160a060020a0316600035600160e060020a031916600160e060020a03191660003660405180806020018281038252848482818152602001925080828437600083820152604051601f909101601f19169092018290039550909350505050a260035460408051808201909152600b815260008051602061638f83398151915260208201529060ff1615614de25760405160e560020a62461bcd028152602060048201818152835160248401528351909283926044909101919085019080838360008315610ab6578181015183820152602001610a9e565b5060038054600160ff19909116179081905560408051808201909152600f81527f4552525f4e4f545f464143544f525900000000000000000000000000000000006020820152906401000000009004600160a060020a03163314614e8a5760405160e560020a62461bcd028152602060048201818152835160248401528351909283926044909101919085019080838360008315610ab6578181015183820152602001610a9e565b506003546401000000009004600160a060020a031660008181526001602052604090205490614eb99082615320565b90506003805460ff1916905590565b60035460408051808201909152600b815260008051602061638f833981519152602082015260009160ff1615614f425760405160e560020a62461bcd028152602060048201818152835160248401528351909283926044909101919085019080838360008315610ab6578181015183820152602001610a9e565b50614f4c82611ea4565b6040518060400160405280600e81526020016000805160206163cf83398151915281525090614fbf5760405160e560020a62461bcd028152602060048201818152835160248401528351909283926044909101919085019080838360008315610ab6578181015183820152602001610a9e565b50600160a060020a0382166000908152600860205260409020600101546009546111f69082906157c5565b33600160a060020a0316600035600160e060020a031916600160e060020a03191660003660405180806020018281038252848482818152602001925080828437600083820152604051601f909101601f19169092018290039550909350505050a260035460408051808201909152600b815260008051602061638f83398151915260208201529060ff16156150c35760405160e560020a62461bcd028152602060048201818152835160248401528351909283926044909101919085019080838360008315610ab6578181015183820152602001610a9e565b506003805460ff19166001179081905560408051808201909152601081526000805160206163ef8339815191526020820152906301000000900460ff161561514f5760405160e560020a62461bcd028152602060048201818152835160248401528351909283926044909101919085019080838360008315610ab6578181015183820152602001610a9e565b5060045460408051808201909152601281526000805160206163af833981519152602082015290600160a060020a031633146151cf5760405160e560020a62461bcd028152602060048201818152835160248401528351909283926044909101919085019080838360008315610ab6578181015183820152602001610a9e565b506003805460ff199215156101000261ff001990911617919091169055565b60035460408051808201909152600b815260008051602061638f833981519152602082015260009160ff16156152685760405160e560020a62461bcd028152602060048201818152835160248401528351909283926044909101919085019080838360008315610ab6578181015183820152602001610a9e565b5061527282611ea4565b6040518060400160405280600e81526020016000805160206163cf833981519152815250906152e55760405160e560020a62461bcd028152602060048201818152835160248401528351909283926044909101919085019080838360008315610ab6578181015183820152602001610a9e565b5050600160a060020a031660009081526008602052604090206002015490565b60035462010000900460ff1690565b61531d81615f66565b50565b61532a8282615fd6565b5050565b60008061533b87876157c5565b9050600061534986866157c5565b9050600061535783836157c5565b9050600061537e670de0b6b3a7640000615379670de0b6b3a764000089615c8d565b6157c5565b905061538a828261599e565b9a9950505050505050505050565b6000806153a585856157c5565b905060006153b388886157c5565b905060006153c183836157c5565b9050600061537e670de0b6b3a76400006153e3670de0b6b3a764000089615c8d565b61599e565b600160a060020a038083166000908152600860205260408082209284168252812060028084015460018086015492840154908401546005549596956110a99492919061532e565b60008061543c87866157c5565b9050600061544a8786615622565b9050600061545882896157c5565b9050600061546e670de0b6b3a7640000856157c5565b9050600061547c8383615fe1565b9050600061548a828e61599e565b90506000615498828f615c8d565b905060006154ae670de0b6b3a764000089615c8d565b905060006154bc828c61599e565b905060006154d2670de0b6b3a764000083615c8d565b905060006154e085836157c5565b9b5050505050505050505050509695505050505050565b604080517f23b872dd000000000000000000000000000000000000000000000000000000008152600160a060020a0384811660048301523060248301526044820184905291516000928616916323b872dd91606480830192602092919082900301818787803b15801561556957600080fd5b505af115801561557d573d6000803e3d6000fd5b505050506040513d602081101561559357600080fd5b505160408051808201909152600f81527f4552525f45524332305f46414c5345000000000000000000000000000000000060208201529091508161561b5760405160e560020a62461bcd028152602060048201818152835160248401528351909283926044909101919085019080838360008315610ab6578181015183820152602001610a9e565b5050505050565b60408051808201909152601081527f4552525f4144445f4f564552464c4f5700000000000000000000000000000000602082015260009083830190848210156156af5760405160e560020a62461bcd028152602060048201818152835160248401528351909283926044909101919085019080838360008315610ab6578181015183820152602001610a9e565b509392505050565b600160a060020a0383166000908152600160205260409020546156da9082615765565b600160a060020a0380851660009081526001602052604080822093909355908416815220546157099082615622565b600160a060020a0380841660008181526001602090815260409182902094909455805185815290519193928716927fdeb3a6837278f6e9914a507e4d73f08e841d8fca434fb97d4307b3b0d3d6b10592918290030190a3505050565b6000818310156157bf576040805160e560020a62461bcd02815260206004820152601460248201527f4552525f42544f4b454e5f554e444552464c4f57000000000000000000000000604482015290519081900360640190fd5b50900390565b60408051808201909152600c81527f4552525f4449565f5a45524f000000000000000000000000000000000000000060208201526000908261584b5760405160e560020a62461bcd028152602060048201818152835160248401528351909283926044909101919085019080838360008315610ab6578181015183820152602001610a9e565b50670de0b6b3a764000083028315806158745750670de0b6b3a764000084828161587157fe5b04145b6040518060400160405280601081526020017f4552525f4449565f494e5445524e414c00000000000000000000000000000000815250906158f95760405160e560020a62461bcd028152602060048201818152835160248401528351909283926044909101919085019080838360008315610ab6578181015183820152602001610a9e565b5060408051808201909152601081527f4552525f4449565f494e5445524e414c00000000000000000000000000000000602082015260028404820190828210156159875760405160e560020a62461bcd028152602060048201818152835160248401528351909283926044909101919085019080838360008315610ab6578181015183820152602001610a9e565b50600084828161599357fe5b049695505050505050565b60008282028315806159b85750828482816159b557fe5b04145b6040518060400160405280601081526020017f4552525f4d554c5f4f564552464c4f570000000000000000000000000000000081525090615a3d5760405160e560020a62461bcd028152602060048201818152835160248401528351909283926044909101919085019080838360008315610ab6578181015183820152602001610a9e565b5060408051808201909152601081527f4552525f4d554c5f4f564552464c4f570000000000000000000000000000000060208201526706f05b59d3b2000082019082821015615ad05760405160e560020a62461bcd028152602060048201818152835160248401528351909283926044909101919085019080838360008315610ab6578181015183820152602001610a9e565b506000670de0b6b3a764000082615993565b604080517fa9059cbb000000000000000000000000000000000000000000000000000000008152600160a060020a03848116600483015260248201849052915160009286169163a9059cbb91604480830192602092919082900301818787803b15801561556957600080fd5b600080615b5b87866157c5565b90506000615b71670de0b6b3a764000083615c8d565b90506000615b83866153e3848861599e565b90506000615b918783615c8d565b9050806000615ba08d83615622565b90506000615bae828f6157c5565b90506000615bbc8289615fe1565b90506000615bca828f61599e565b9050615bd6818f615c8d565b99505050505050505050509695505050505050565b600083880381615bfb828b6157c5565b90506000615c09828b615fe1565b90506000615c17828b61599e565b9050806000615c26828d615c8d565b90506000615c3c670de0b6b3a76400008f615c8d565b90506000615c4a828c61599e565b90506000615c6484615379670de0b6b3a76400008e615c8d565b9950505050505050505050979650505050505050565b61532a828261615c565b61531d81616167565b6000806000615c9c85856161d7565b9150915080156040518060400160405280601181526020017f4552525f5355425f554e444552464c4f5700000000000000000000000000000081525090615d275760405160e560020a62461bcd028152602060048201818152835160248401528351909283926044909101919085019080838360008315610ab6578181015183820152602001610a9e565b5090949350505050565b600160a060020a038083166000908152600860205260408082209284168252812060028084015460018086015492840154908401546005549596956110a994929190615398565b600080615d89888888886000615398565b90506000615d9782866157c5565b90506000615da987615379898c615622565b9050615dc6615db88383615fe1565b670de0b6b3a7640000615c8d565b9350615dd2848b61599e565b93506000615de8670de0b6b3a764000087615c8d565b9050615df485826157c5565b9b9a5050505050505050505050565b600080615e1087866157c5565b90506000615e26670de0b6b3a764000085615c8d565b9050615e32858261599e565b90506000615e448a6153798c85615622565b90506000615e528285615fe1565b90506000615e68670de0b6b3a764000083615c8d565b9050615e748a8261599e565b9c9b505050505050505050505050565b600080615e9185886157c5565b90506000615e9f8786615c8d565b90506000615ead88836157c5565b90506000615ebb8285615fe1565b9050615ecf81670de0b6b3a7640000615c8d565b9050615ee3670de0b6b3a764000087615c8d565b9450615df4615ef28c8361599e565b866157c5565b600080615f0588876157c5565b90506000615f148287876161fc565b90508088036000615f2d670de0b6b3a7640000856157c5565b90506000615f44615f3e848d6157c5565b83615fe1565b90506000615f52828f61599e565b909d039d9c50505050505050505050505050565b30600090815260016020526040902054615f809082615622565b30600090815260016020526040902055600254615f9d9082615622565b6002556040805182815290517f07883703ed0e86588a40d76551c92f8a4b329e3bf19765e0e6749473c1a846659181900360200190a150565b61532a3083836156b7565b60408051808201909152601681527f4552525f42504f575f424153455f544f4f5f48494748000000000000000000006020820152600090671bc16d674ec800008411156160725760405160e560020a62461bcd028152602060048201818152835160248401528351909283926044909101919085019080838360008315610ab6578181015183820152602001610a9e565b5060408051808201909152601581527f4552525f42504f575f424153455f544f4f5f4c4f5700000000000000000000006020820152836160f65760405160e560020a62461bcd028152602060048201818152835160248401528351909283926044909101919085019080838360008315610ab6578181015183820152602001610a9e565b50600061610283616230565b905060006161108483615c8d565b90506000616126866161218561624b565b616259565b905081616137579250610d3b915050565b6000616145878460146162b0565b9050616151828261599e565b979650505050505050565b61532a8230836156b7565b306000908152600160205260409020546161819082615765565b3060009081526001602052604090205560025461619e9082615765565b6002556040805182815290517fb90306ad06b2a6ff86ddc9327db583062895ef6540e62dc50add009db5b356eb9181900360200190a150565b6000808284106161ed57505080820360006161f5565b505081810360015b9250929050565b6000670de0b6b3a764000084900381616215858361599e565b90506000616223828661599e565b9095039695505050505050565b6000670de0b6b3a76400006162448361624b565b0292915050565b670de0b6b3a7640000900490565b6000806002830661627257670de0b6b3a7640000616274565b835b90506002830492505b82156111f65761628d848561599e565b935060028306156162a5576162a2818561599e565b90505b60028304925061627d565b60008281806162c787670de0b6b3a76400006161d7565b9092509050670de0b6b3a764000080600060015b88811161637f576000670de0b6b3a76400008202905060008061630f8a61630a85670de0b6b3a7640000615c8d565b6161d7565b91509150616321876153e3848c61599e565b965061632d87846157c5565b96508661633c5750505061637f565b8715616346579315935b8015616350579315935b8415616367576163608688615c8d565b9550616374565b6163718688615622565b95505b5050506001016162db565b5090999850505050505050505056fe4552525f5245454e5452590000000000000000000000000000000000000000004552525f4e4f545f434f4e54524f4c4c455200000000000000000000000000004552525f4e4f545f46554e4445440000000000000000000000000000000000004552525f49535f46494e414c495a454400000000000000000000000000000000a265627a7a7231582019560cc16686edda84b140faae59b3aab0cf2e9f9995fd07b1c24ab013fe1d0864736f6c634300050b0032a265627a7a72315820ece994c3637a9d567a5f634f713843fa2049afe5aa1d704868a1b04f691f0bba64736f6c634300050b0032",
  "source": "// This program is free software: you can redistribute it and/or modify\n// it under the terms of the GNU General Public License as published by\n// the Free Software Foundation, either version 3 of the License, or\n// (at your option) any later version.\n\n// This program is disstributed in the hope that it will be useful,\n// but WITHOUT ANY WARRANTY; without even the implied warranty of\n// MERCHANTABILITY or FITNESS FOR A PARTICULAR PURPOSE.  See the\n// GNU General Public License for more details.\n\n// You should have received a copy of the GNU General Public License\n// along with this program.  If not, see <http://www.gnu.org/licenses/>.\n\npragma solidity ^0.5.11;\n\n// Builds new BPools, logging their addresses and providing `isBPool(address) -> (bool)`\n// Grants access to BPool internal math utils, for use as a library\n\nimport 'contracts/BColor.sol';\nimport 'contracts/BPool.sol';\nimport 'contracts/BStub.sol';\n\ncontract BFactory is BBronze\n{\n    event LOG_NEW_POOL( address indexed caller\n                      , address indexed pool );\n\n    mapping(address=>bool) _isBPool;\n\n    function isBPool(address b)\n      public view returns (bool) {\n        return _isBPool[b];\n    }\n\n    function newBPool()\n      public returns (BPool)\n    {\n        BPool bpool = new BPool();\n        bpool.setController(msg.sender);\n        _isBPool[address(bpool)] = true;\n        emit LOG_NEW_POOL(msg.sender, address(bpool));\n        return bpool;\n    }\n\n    address _blabs;\n    constructor() public {\n        _blabs = msg.sender;\n    }\n    function getBLabs() public view returns (address) {\n        return _blabs;\n    }\n    function setBLabs(address b) public {\n        require(msg.sender == _blabs);\n        _blabs = b;\n    }\n    function collect(BPool pool, address to)\n      public \n    {\n        require(msg.sender == _blabs, \"ERR_NOT_BLABS\");\n        uint collected = pool.collect();\n        pool.transfer(to, collected);\n    }\n}\n",
  "sourcePath": "/Users/admin/desk/balancer/core/contracts/BFactory.sol",
  "compiler": {
    "name": "solc",
    "version": "0.5.11+commit.c082d0b4.Emscripten.clang"
  },
  "schemaVersion": "3.0.16",
  "updatedAt": "2019-10-05T04:34:13.688Z",
  "devdoc": {
    "methods": {}
  },
  "userdoc": {
    "methods": {}
  }
}