{
  "contractName": "BFactory",
  "abi": [
    {
      "constant": true,
      "inputs": [],
      "name": "getColor",
      "outputs": [
        {
          "internalType": "bytes32",
          "name": "",
          "type": "bytes32"
        }
      ],
      "payable": false,
      "stateMutability": "view",
      "type": "function"
    },
    {
      "inputs": [],
      "payable": false,
      "stateMutability": "nonpayable",
      "type": "constructor"
    },
    {
      "anonymous": false,
      "inputs": [
        {
          "indexed": true,
          "internalType": "address",
          "name": "caller",
          "type": "address"
        },
        {
          "indexed": true,
          "internalType": "address",
          "name": "pool",
          "type": "address"
        }
      ],
      "name": "LOG_NEW_POOL",
      "type": "event"
    },
    {
      "constant": true,
      "inputs": [
        {
          "internalType": "address",
          "name": "b",
          "type": "address"
        }
      ],
      "name": "isBPool",
      "outputs": [
        {
          "internalType": "bool",
          "name": "",
          "type": "bool"
        }
      ],
      "payable": false,
      "stateMutability": "view",
      "type": "function"
    },
    {
      "constant": false,
      "inputs": [],
      "name": "newBPool",
      "outputs": [
        {
          "internalType": "contract BPool",
          "name": "",
          "type": "address"
        }
      ],
      "payable": false,
      "stateMutability": "nonpayable",
      "type": "function"
    },
    {
      "constant": true,
      "inputs": [],
      "name": "getBLabs",
      "outputs": [
        {
          "internalType": "address",
          "name": "",
          "type": "address"
        }
      ],
      "payable": false,
      "stateMutability": "view",
      "type": "function"
    },
    {
      "constant": false,
      "inputs": [
        {
          "internalType": "address",
          "name": "b",
          "type": "address"
        }
      ],
      "name": "setBLabs",
      "outputs": [],
      "payable": false,
      "stateMutability": "nonpayable",
      "type": "function"
    },
    {
      "constant": false,
      "inputs": [
        {
          "internalType": "contract BPool",
          "name": "pool",
          "type": "address"
        },
        {
          "internalType": "address",
          "name": "to",
          "type": "address"
        }
      ],
      "name": "collect",
      "outputs": [],
      "payable": false,
      "stateMutability": "nonpayable",
      "type": "function"
    }
  ],
  "bytecode": "0x608060405234801561001057600080fd5b5060018054600160a060020a03191633179055616ae7806100326000396000f3fe608060405234801561001057600080fd5b506004361061007e577c0100000000000000000000000000000000000000000000000000000000600035046336ffb16781146100835780639a86139b146100a7578063a12ef25e146100c1578063c2bb6dc2146100f1578063c6ce34fb1461012b578063d556c5dc14610151575b600080fd5b61008b610159565b60408051600160a060020a039092168252519081900360200190f35b6100af610168565b60408051918252519081900360200190f35b6100ef600480360360408110156100d757600080fd5b50600160a060020a038135811691602001351661018c565b005b6101176004803603602081101561010757600080fd5b5035600160a060020a031661032a565b604080519115158252519081900360200190f35b6100ef6004803603602081101561014157600080fd5b5035600160a060020a0316610348565b61008b61038e565b600154600160a060020a031690565b7f42524f4e5a45000000000000000000000000000000000000000000000000000090565b600154600160a060020a0316331461020557604080517f08c379a000000000000000000000000000000000000000000000000000000000815260206004820152600d60248201527f4552525f4e4f545f424c41425300000000000000000000000000000000000000604482015290519081900360640190fd5b600082600160a060020a031663e52253816040518163ffffffff167c0100000000000000000000000000000000000000000000000000000000028152600401602060405180830381600087803b15801561025e57600080fd5b505af1158015610272573d6000803e3d6000fd5b505050506040513d602081101561028857600080fd5b5051604080517fa9059cbb000000000000000000000000000000000000000000000000000000008152600160a060020a0385811660048301526024820184905291519293509085169163a9059cbb916044808201926020929091908290030181600087803b1580156102f957600080fd5b505af115801561030d573d6000803e3d6000fd5b505050506040513d602081101561032357600080fd5b5050505050565b600160a060020a031660009081526020819052604090205460ff1690565b600154600160a060020a0316331461035f57600080fd5b6001805473ffffffffffffffffffffffffffffffffffffffff1916600160a060020a0392909216919091179055565b60008060405161039d90610485565b604051809103906000f0801580156103b9573d6000803e3d6000fd5b50604080517f92eefe9b0000000000000000000000000000000000000000000000000000000081523360048201529051919250600160a060020a038316916392eefe9b9160248082019260009290919082900301818387803b15801561041e57600080fd5b505af1158015610432573d6000803e3d6000fd5b50505050600160a060020a038116600081815260208190526040808220805460ff191660011790555133917f8ccec77b0cb63ac2cafd0f5de8cdfadab91ce656d262240ba8a6343bccc5f94591a3905090565b616620806104938339019056fe608060405234801561001057600080fd5b506003805460048054600160a060020a031916339081179091556301000000026201000060b860020a031961ff001990921661010017919091161790556165c3806200005d6000396000f3fe608060405234801561001057600080fd5b5060043610610344576000357c0100000000000000000000000000000000000000000000000000000000900480638c28cbe8116101d5578063be9a655511610121578063dd62ed3e116100bf578063e4a28a5211610099578063e4a28a52146103a8578063e522538114610ae7578063f1b8a9b714610aef578063f8b2cb4f14610b1557610344565b8063dd62ed3e14610a0e578063de10bbd514610a3c578063def92c6914610adf57610344565b8063cd2ed8fb116100fb578063cd2ed8fb14610998578063ce1d477d146109a0578063cf5e7bd3146109e0578063db8d55f114610a0657610344565b8063be9a65551461095c578063c83d529e14610964578063cc77828d1461099057610344565b8063990e784a1161018e578063b187bd2611610168578063b187bd26146108d7578063bc063e1a146108df578063be1d24ad146108e7578063be3bbd2e1461090457610344565b8063990e784a146108755780639a86139b146108a3578063a9059cbb146108ab57610344565b80638c28cbe81461071b5780638d4e40831461074157806392eefe9b14610749578063936c34771461076f578063948d8ce61461077757806396012f091461079d57610344565b806334e7a19f1161029457806362fd79421161024d5780637ff10552116102275780637ff10552146106b357806381bac14f146106e55780638456cb591461070b578063867378c51461071357610344565b806362fd79421461064557806370a082311461068557806376c7a3c7146106ab57610344565b806334e7a19f1461052b5780633d0a406114610548578063483605e81461056e5780634b0f9faa1461059a5780635689b249146105c65780635718db49146105ec57610344565b806315e84af911610301578063218b5382116102db578063218b5382146104a357806323b872dd146104ab5780632f37b624146104e15780633018205f1461050757610344565b806315e84af91461044157806318160ddd1461046f5780631ecc61bc1461047757610344565b806305261aea14610349578063095ea7b31461036857806309a3bbe4146103a85780630b78f9c0146103c25780631446a7ff146103e5578063156e38cd14610413575b600080fd5b6103666004803603602081101561035f57600080fd5b5035610b3b565b005b6103946004803603604081101561037e57600080fd5b50600160a060020a038135169060200135610e27565b604080519115158252519081900360200190f35b6103b0610e8c565b60408051918252519081900360200190f35b610366600480360360408110156103d857600080fd5b5080359060200135610e99565b6103b0600480360360408110156103fb57600080fd5b50600160a060020a0381358116916020013516611135565b6103b06004803603604081101561042957600080fd5b50600160a060020a03813581169160200135166111fd565b6103b06004803603604081101561045757600080fd5b50600160a060020a03813581169160200135166112bc565b6103b0611348565b6103b06004803603604081101561048d57600080fd5b5080359060200135600160a060020a031661134e565b6103b0611531565b610394600480360360608110156104c157600080fd5b50600160a060020a0381358116916020810135909116906040013561153d565b610394600480360360208110156104f757600080fd5b5035600160a060020a03166116bb565b61050f6116d8565b60408051600160a060020a039092168252519081900360200190f35b6103666004803603602081101561054157600080fd5b5035611763565b6103666004803603602081101561055e57600080fd5b5035600160a060020a03166119c2565b6103b06004803603604081101561058457600080fd5b50600160a060020a038135169060200135611bff565b6103b0600480360360408110156105b057600080fd5b50600160a060020a038135169060200135611de7565b610394600480360360208110156105dc57600080fd5b5035600160a060020a0316611fe0565b61062c600480360360a081101561060257600080fd5b50600160a060020a0381358116916020810135916040820135169060608101359060800135612000565b6040805192835260208301919091528051918290030190f35b61062c600480360360a081101561065b57600080fd5b50600160a060020a03813581169160208101359160408201351690606081013590608001356125c0565b6103b06004803603602081101561069b57600080fd5b5035600160a060020a0316612b6f565b6103b0612b8a565b610366600480360360608110156106c957600080fd5b50600160a060020a038135169060208101359060400135612b9b565b610366600480360360208110156106fb57600080fd5b5035600160a060020a03166131b2565b610366613551565b6103b061374d565b6103666004803603602081101561073157600080fd5b5035600160a060020a031661375f565b610394613977565b6103666004803603602081101561075f57600080fd5b5035600160a060020a0316613986565b6103b0613b28565b6103b06004803603602081101561078d57600080fd5b5035600160a060020a0316613baa565b610366600480360360208110156107b357600080fd5b8101906020810181356401000000008111156107ce57600080fd5b8201836020820111156107e057600080fd5b8035906020019184606083028401116401000000008311171561080257600080fd5b9190808060200260200160405190810160405280939291908181526020016000905b828210156108655760408051606081810190925290808402870190600390839083908082843760009201919091525050508152600190910190602001610824565b50939650613cc195505050505050565b6103b06004803603604081101561088b57600080fd5b50600160a060020a0381358116916020013516613d76565b6103b0613dfb565b610394600480360360408110156108c157600080fd5b50600160a060020a038135169060200135613e1f565b610394613e75565b6103b0613e83565b610366600480360360208110156108fd57600080fd5b5035613e93565b61090c6140f2565b60408051602080825283518183015283519192839290830191858101910280838360005b83811015610948578181015183820152602001610930565b505050509050019250505060405180910390f35b61036661425d565b6103b06004803603604081101561097a57600080fd5b5080359060200135600160a060020a03166143d3565b61090c6145a3565b6103b061461d565b61062c600480360360a08110156109b657600080fd5b50600160a060020a0381358116916020810135916040820135169060608101359060800135614623565b610366600480360360208110156109f657600080fd5b5035600160a060020a0316614bd3565b61062c614faa565b6103b060048036036040811015610a2457600080fd5b50600160a060020a0381358116916020013516615036565b61036660048036036020811015610a5257600080fd5b810190602081018135640100000000811115610a6d57600080fd5b820183602082011115610a7f57600080fd5b80359060200191846020830284011164010000000083111715610aa157600080fd5b91908080602002602001604051908101604052809392919081815260200183836020028082843760009201919091525092955061505f945050505050565b6103b061508f565b6103b06150a0565b6103b060048036036020811015610b0557600080fd5b5035600160a060020a031661525f565b6103b060048036036020811015610b2b57600080fd5b5035600160a060020a0316615381565b33600160a060020a0316600035600160e060020a031916600160e060020a03191660003660405180806020018281038252848482818152602001925080828437600083820152604051601f909101601f19169092018290039550909350505050a260035460408051808201909152600b815260008051602061650f83398151915260208201529060ff1615610c515760405160e560020a62461bcd0281526004018080602001828103825283818151815260200191508051906020019080838360005b83811015610c16578181015183820152602001610bfe565b50505050905090810190601f168015610c435780820380516001836020036101000a031916815260200191505b509250505060405180910390fd5b506003805460ff19166001179055600454604080518082019091526012815260008051602061652f83398151915260208201529033600160a060020a0390911614610ce05760405160e560020a62461bcd028152602060048201818152835160248401528351909283926044909101919085019080838360008315610c16578181015183820152602001610bfe565b50600354604080518082019091526010815260008051602061656f83398151915260208201529062010000900460ff1615610d5f5760405160e560020a62461bcd028152602060048201818152835160248401528351909283926044909101919085019080838360008315610c16578181015183820152602001610bfe565b5060408051808201909152600f81527f4552525f4d41585f42414c414e434500000000000000000000000000000000006020820152670de0b6b3a7640000821015610dee5760405160e560020a62461bcd028152602060048201818152835160248401528351909283926044909101919085019080838360008315610c16578181015183820152602001610bfe565b506003805461ff001962ff0000199091166201000017169055610e1081615498565b610e1a33826154a4565b506003805460ff19169055565b33600081815260208181526040808320600160a060020a038716808552908352818420869055815186815291519394909390927f8c5be1e5ebec7d5bd14f71427d1e84f3dd0314c0f7b2291e5b200ac8c7c3b925928290030190a35060015b92915050565b6802b5e3af16b188000081565b33600160a060020a0316600035600160e060020a031916600160e060020a03191660003660405180806020018281038252848482818152602001925080828437600083820152604051601f909101601f19169092018290039550909350505050a260035460408051808201909152600b815260008051602061650f83398151915260208201529060ff1615610f725760405160e560020a62461bcd028152602060048201818152835160248401528351909283926044909101919085019080838360008315610c16578181015183820152602001610bfe565b506003805460ff19166001179055600454604080518082019091526012815260008051602061652f83398151915260208201529033600160a060020a03909116146110015760405160e560020a62461bcd028152602060048201818152835160248401528351909283926044909101919085019080838360008315610c16578181015183820152602001610bfe565b5060408051808201909152600b81527f4552525f4d41585f464545000000000000000000000000000000000000000000602082015267016345785d8a00008311156110905760405160e560020a62461bcd028152602060048201818152835160248401528351909283926044909101919085019080838360008315610c16578181015183820152602001610bfe565b5060408051808201909152600b81527f4552525f4d41585f464545000000000000000000000000000000000000000000602082015267016345785d8a000082111561111f5760405160e560020a62461bcd028152602060048201818152835160248401528351909283926044909101919085019080838360008315610c16578181015183820152602001610bfe565b506005919091556006556003805460ff19169055565b60035460408051808201909152600b815260008051602061650f833981519152602082015260009160ff16156111af5760405160e560020a62461bcd028152602060048201818152835160248401528351909283926044909101919085019080838360008315610c16578181015183820152602001610bfe565b50600160a060020a0380841660009081526008602052604080822092851682528120600280840154600180860154928401549084015493946111f494929392906154ae565b95945050505050565b60035460408051808201909152600b815260008051602061650f833981519152602082015260009160ff16156112775760405160e560020a62461bcd028152602060048201818152835160248401528351909283926044909101919085019080838360008315610c16578181015183820152602001610bfe565b50600160a060020a0380841660009081526008602052604080822092851682528120600280840154600180860154928401549084015493946111f49492939290615518565b60035460408051808201909152600b815260008051602061650f833981519152602082015260009160ff16156113365760405160e560020a62461bcd028152602060048201818152835160248401528351909283926044909101919085019080838360008315610c16578181015183820152602001610bfe565b506113418383615568565b9392505050565b60025490565b600033600160a060020a0316600035600160e060020a031916600160e060020a03191660003660405180806020018281038252848482818152602001925080828437600083820152604051601f909101601f19169092018290039550909350505050a260035460408051808201909152600b815260008051602061650f83398151915260208201529060ff16156114295760405160e560020a62461bcd028152602060048201818152835160248401528351909283926044909101919085019080838360008315610c16578181015183820152602001610bfe565b506003805460ff1916600117905561144082611fe0565b6040518060400160405280600e815260200160008051602061654f833981519152815250906114b35760405160e560020a62461bcd028152602060048201818152835160248401528351909283926044909101919085019080838360008315610c16578181015183820152602001610bfe565b50600160a060020a0382166000908152600860205260409020600280820154600183015491546009546005546114ed9492919089906155af565b91506114f884615498565b61150233856154a4565b61150d833384615677565b61151b8160020154836157a2565b6002909101556003805460ff1916905592915050565b670de0b6b3a764000081565b600033600160a060020a03851614806115775750600160a060020a0384166000908152602081815260408083203384529091529020548211155b6115cb576040805160e560020a62461bcd02815260206004820152601560248201527f4552525f42544f4b454e5f4241445f43414c4c45520000000000000000000000604482015290519081900360640190fd5b6115d6848484615837565b82600160a060020a031684600160a060020a03167fddf252ad1be2c89b69c2b068fc378daa952ba7f163c4a11628f55a4df523b3ef846040518082815260200191505060405180910390a333600160a060020a0385161480159061165d5750600160a060020a03841660009081526020818152604080832033845290915290205460001914155b156116b157600160a060020a03841660009081526020818152604080832033845290915290205461168e90836158e5565b600160a060020a0385166000908152602081815260408083203384529091529020555b5060019392505050565b600160a060020a0316600090815260086020526040902054151590565b60035460408051808201909152600b815260008051602061650f833981519152602082015260009160ff16156117525760405160e560020a62461bcd028152602060048201818152835160248401528351909283926044909101919085019080838360008315610c16578181015183820152602001610bfe565b5050600454600160a060020a031690565b33600160a060020a0316600035600160e060020a031916600160e060020a03191660003660405180806020018281038252848482818152602001925080828437600083820152604051601f909101601f19169092018290039550909350505050a260035460408051808201909152600b815260008051602061650f83398151915260208201529060ff161561183c5760405160e560020a62461bcd028152602060048201818152835160248401528351909283926044909101919085019080838360008315610c16578181015183820152602001610bfe565b506003805460ff19166001179081905560408051808201909152601181527f4552525f4e4f545f46494e414c495a454400000000000000000000000000000060208201529062010000900460ff166118d85760405160e560020a62461bcd028152602060048201818152835160248401528351909283926044909101919085019080838360008315610c16578181015183820152602001610bfe565b5060006118e3611348565b905060006118f18383615945565b905060005b60075481101561199f5760006007828154811061190f57fe5b6000918252602080832090910154600160a060020a031680835260089091526040822060020154909250906119448583615b1e565b600160a060020a03841660009081526008602052604090206002015490915061196d90826157a2565b600160a060020a038416600090815260086020526040902060020155611994833383615677565b5050506001016118f6565b506119a983615498565b6119b333846154a4565b50506003805460ff1916905550565b33600160a060020a0316600035600160e060020a031916600160e060020a03191660003660405180806020018281038252848482818152602001925080828437600083820152604051601f909101601f19169092018290039550909350505050a260035460408051808201909152600b815260008051602061650f83398151915260208201529060ff1615611a9b5760405160e560020a62461bcd028152602060048201818152835160248401528351909283926044909101919085019080838360008315610c16578181015183820152602001610bfe565b506003805460ff19166001179055600454604080518082019091526012815260008051602061652f83398151915260208201529033600160a060020a0390911614611b2a5760405160e560020a62461bcd028152602060048201818152835160248401528351909283926044909101919085019080838360008315610c16578181015183820152602001610bfe565b50611b33613977565b1560405180604001604052806010815260200160008051602061656f83398151915281525090611ba75760405160e560020a62461bcd028152602060048201818152835160248401528351909283926044909101919085019080838360008315610c16578181015183820152602001610bfe565b50600160a060020a038116600090815260086020526040902060020154611bd19082903390615c62565b600160a060020a0316600090815260086020526040812060028101829055600101556003805460ff19169055565b600033600160a060020a0316600035600160e060020a031916600160e060020a03191660003660405180806020018281038252848482818152602001925080828437600083820152604051601f909101601f19169092018290039550909350505050a260035460408051808201909152600b815260008051602061650f83398151915260208201529060ff1615611cda5760405160e560020a62461bcd028152602060048201818152835160248401528351909283926044909101919085019080838360008315610c16578181015183820152602001610bfe565b506003805460ff19166001179055611cf183611fe0565b6040518060400160405280600e815260200160008051602061654f83398151915281525090611d645760405160e560020a62461bcd028152602060048201818152835160248401528351909283926044909101919085019080838360008315610c16578181015183820152602001610bfe565b5060028054600160a060020a0385166000908152600860205260409020918201546001830154600954600554939493611da293929186918990615cce565b9250611dad83615498565b611db733846154a4565b611dc2853386615677565b611dd08160020154856157a2565b600290910155506003805460ff1916905592915050565b600033600160a060020a0316600035600160e060020a031916600160e060020a03191660003660405180806020018281038252848482818152602001925080828437600083820152604051601f909101601f19169092018290039550909350505050a260035460408051808201909152600b815260008051602061650f83398151915260208201529060ff1615611ec25760405160e560020a62461bcd028152602060048201818152835160248401528351909283926044909101919085019080838360008315610c16578181015183820152602001610bfe565b506003805460ff19166001179055611ed983611fe0565b6040518060400160405280600e815260200160008051602061654f83398151915281525090611f4c5760405160e560020a62461bcd028152602060048201818152835160248401528351909283926044909101919085019080838360008315610c16578181015183820152602001610bfe565b5060006008600085600160a060020a0316600160a060020a0316815260200190815260200160002090506000611f978260020154836001015460025460095488600554600654615d6b565b9050611fa33382615dfa565b611fac81615e04565b611fb7853386615c62565b611fc5826002015485615e0d565b60029092019190915590506003805460ff1916905592915050565b600160a060020a0316600090815260086020526040902060010154151590565b6040805160208082523690820181905260009283923392600160e060020a03198535169285929081908101848480828437600083820152604051601f909101601f19169092018290039550909350505050a260035460408051808201909152600b815260008051602061650f83398151915260208201529060ff16156120ca5760405160e560020a62461bcd028152602060048201818152835160248401528351909283926044909101919085019080838360008315610c16578181015183820152602001610bfe565b506003805460ff191660011790556120e187611fe0565b6040518060400160405280600e815260200160008051602061654f833981519152815250906121545760405160e560020a62461bcd028152602060048201818152835160248401528351909283926044909101919085019080838360008315610c16578181015183820152602001610bfe565b5061215e85611fe0565b6040518060400160405280600e815260200160008051602061654f833981519152815250906121d15760405160e560020a62461bcd028152602060048201818152835160248401528351909283926044909101919085019080838360008315610c16578181015183820152602001610bfe565b506121da613e75565b156040518060400160405280600d81526020017f4552525f49535f50415553454400000000000000000000000000000000000000815250906122605760405160e560020a62461bcd028152602060048201818152835160248401528351909283926044909101919085019080838360008315610c16578181015183820152602001610bfe565b50600160a060020a038088166000908152600860205260408082209288168252902060028082015461229c91670de0b6b3a76400005b04615b1e565b8311156040518060400160405280601181526020017f4552525f4d41585f4f55545f524154494f000000000000000000000000000000815250906123245760405160e560020a62461bcd028152602060048201818152835160248401528351909283926044909101919085019080838360008315610c16578181015183820152602001610bfe565b5061232f8988615eb1565b85106040518060400160405280601381526020017f4552525f4152475f4c494d49545f505249434500000000000000000000000000815250906123b65760405160e560020a62461bcd028152602060048201818152835160248401528351909283926044909101919085019080838360008315610c16578181015183820152602001610bfe565b506123d7826002015483600101548360020154846001015489600554615ef8565b93506123f9826002015483600101548360020154846001015488600554615f83565b9250878411156040518060400160405280600c81526020017f4552525f4c494d49545f494e0000000000000000000000000000000000000000815250906124845760405160e560020a62461bcd028152602060048201818152835160248401528351909283926044909101919085019080838360008315610c16578181015183820152602001610bfe565b5060408051808201909152600d81527f4552525f4c494d49545f4f55540000000000000000000000000000000000000060208201528684101561250b5760405160e560020a62461bcd028152602060048201818152835160248401528351909283926044909101919085019080838360008315610c16578181015183820152602001610bfe565b5061251a8260020154856157a2565b8260020181905550612530816002015484615e0d565b6002820155612540893386615677565b61254b873385615c62565b86600160a060020a031689600160a060020a031633600160a060020a03167f908fb5ee8f16c6bc9bc3690973819f32a4d4b10188134543c88706e0e1d433788787604051808381526020018281526020019250505060405180910390a450506003805460ff1916905590969095509350505050565b6040805160208082523690820181905260009283923392600160e060020a03198535169285929081908101848480828437600083820152604051601f909101601f19169092018290039550909350505050a260035460408051808201909152600b815260008051602061650f83398151915260208201529060ff161561268a5760405160e560020a62461bcd028152602060048201818152835160248401528351909283926044909101919085019080838360008315610c16578181015183820152602001610bfe565b506003805460ff191660011790556126a187611fe0565b6040518060400160405280600e815260200160008051602061654f833981519152815250906127145760405160e560020a62461bcd028152602060048201818152835160248401528351909283926044909101919085019080838360008315610c16578181015183820152602001610bfe565b5061271e85611fe0565b6040518060400160405280600e815260200160008051602061654f833981519152815250906127915760405160e560020a62461bcd028152602060048201818152835160248401528351909283926044909101919085019080838360008315610c16578181015183820152602001610bfe565b5061279a613e75565b156040518060400160405280600d81526020017f4552525f49535f50415553454400000000000000000000000000000000000000815250906128205760405160e560020a62461bcd028152602060048201818152835160248401528351909283926044909101919085019080838360008315610c16578181015183820152602001610bfe565b50600160a060020a038088166000908152600860205260408082209288168252902060028082015461285a91670de0b6b3a7640000612296565b8611156040518060400160405280601181526020017f4552525f4d41585f4f55545f524154494f000000000000000000000000000000815250906128e25760405160e560020a62461bcd028152602060048201818152835160248401528351909283926044909101919085019080838360008315610c16578181015183820152602001610bfe565b506128ed8988615eb1565b85106040518060400160405280601381526020017f4552525f4152475f4c494d49545f505249434500000000000000000000000000815250906129745760405160e560020a62461bcd028152602060048201818152835160248401528351909283926044909101919085019080838360008315610c16578181015183820152602001610bfe565b5061299582600201548360010154836002015484600101548a600554616004565b9350878411156040518060400160405280600c81526020017f4552525f4c494d49545f494e000000000000000000000000000000000000000081525090612a205760405160e560020a62461bcd028152602060048201818152835160248401528351909283926044909101919085019080838360008315610c16578181015183820152602001610bfe565b50612a2f8260020154856157a2565b8260020181905550612a45816002015487615e0d565b60028201556000612a568a89615eb1565b9050858110156040518060400160405280600f81526020017f4552525f4c494d49545f5052494345000000000000000000000000000000000081525090612ae15760405160e560020a62461bcd028152602060048201818152835160248401528351909283926044909101919085019080838360008315610c16578181015183820152602001610bfe565b50612aed8a3387615677565b612af8883389615c62565b87600160a060020a03168a600160a060020a031633600160a060020a03167f908fb5ee8f16c6bc9bc3690973819f32a4d4b10188134543c88706e0e1d43378888b604051808381526020018281526020019250505060405180910390a4925050506003805460ff1916905590969095509350505050565b600160a060020a031660009081526001602052604090205490565b612710670de0b6b3a76400005b0481565b33600160a060020a0316600035600160e060020a031916600160e060020a03191660003660405180806020018281038252848482818152602001925080828437600083820152604051601f909101601f19169092018290039550909350505050a260035460408051808201909152600b815260008051602061650f83398151915260208201529060ff1615612c745760405160e560020a62461bcd028152602060048201818152835160248401528351909283926044909101919085019080838360008315610c16578181015183820152602001610bfe565b506003805460ff19166001179055600454604080518082019091526012815260008051602061652f83398151915260208201529033600160a060020a0390911614612d035760405160e560020a62461bcd028152602060048201818152835160248401528351909283926044909101919085019080838360008315610c16578181015183820152602001610bfe565b50612d0d836116bb565b6040518060400160405280600d81526020017f4552525f4e4f545f424f554e440000000000000000000000000000000000000081525090612d925760405160e560020a62461bcd028152602060048201818152835160248401528351909283926044909101919085019080838360008315610c16578181015183820152602001610bfe565b50600354604080518082019091526010815260008051602061656f83398151915260208201529062010000900460ff1615612e115760405160e560020a62461bcd028152602060048201818152835160248401528351909283926044909101919085019080838360008315610c16578181015183820152602001610bfe565b5060408051808201909152600e81527f4552525f4d494e5f5745494748540000000000000000000000000000000000006020820152670de0b6b3a7640000821015612ea05760405160e560020a62461bcd028152602060048201818152835160248401528351909283926044909101919085019080838360008315610c16578181015183820152602001610bfe565b5060408051808201909152600e81527f4552525f4d41585f57454947485400000000000000000000000000000000000060208201526802b5e3af16b1880000821115612f305760405160e560020a62461bcd028152602060048201818152835160248401528351909283926044909101919085019080838360008315610c16578181015183820152602001610bfe565b5060408051808201909152600f81527f4552525f4d494e5f42414c414e43450000000000000000000000000000000000602082015264e8d4a51000831015612fbc5760405160e560020a62461bcd028152602060048201818152835160248401528351909283926044909101919085019080838360008315610c16578181015183820152602001610bfe565b5060408051808201909152600f81527f4552525f4d41585f42414c414e4345000000000000000000000000000000000060208201526c0c9f2c9cd04674edea400000008311156130505760405160e560020a62461bcd028152602060048201818152835160248401528351909283926044909101919085019080838360008315610c16578181015183820152602001610bfe565b50600160a060020a038316600090815260086020526040902060010154808211156131235761308a6009546130858484615e0d565b6157a2565b600981905560408051808201909152601481527f4552525f4d41585f544f54414c5f5745494748540000000000000000000000006020820152906802b5e3af16b18800001161311d5760405160e560020a62461bcd028152602060048201818152835160248401528351909283926044909101919085019080838360008315610c16578181015183820152602001610bfe565b5061313c565b6131386009546131338385615e0d565b615e0d565b6009555b600160a060020a0384166000908152600860205260409020600181018390556002018054908490558084111561318557613180853361317b8785615e0d565b615677565b6131a1565b808410156131a1576131a1853361319c8488615e0d565b615c62565b50506003805460ff19169055505050565b33600160a060020a0316600035600160e060020a031916600160e060020a03191660003660405180806020018281038252848482818152602001925080828437600083820152604051601f909101601f19169092018290039550909350505050a260035460408051808201909152600b815260008051602061650f83398151915260208201529060ff161561328b5760405160e560020a62461bcd028152602060048201818152835160248401528351909283926044909101919085019080838360008315610c16578181015183820152602001610bfe565b506003805460ff19166001179055600454604080518082019091526012815260008051602061652f83398151915260208201529033600160a060020a039091161461331a5760405160e560020a62461bcd028152602060048201818152835160248401528351909283926044909101919085019080838360008315610c16578181015183820152602001610bfe565b50613324816116bb565b156040518060400160405280600c81526020017f4552525f49535f424f554e440000000000000000000000000000000000000000815250906133aa5760405160e560020a62461bcd028152602060048201818152835160248401528351909283926044909101919085019080838360008315610c16578181015183820152602001610bfe565b506133b3613977565b1560405180604001604052806010815260200160008051602061656f833981519152815250906134275760405160e560020a62461bcd028152602060048201818152835160248401528351909283926044909101919085019080838360008315610c16578181015183820152602001610bfe565b5060075460408051808201909152600e81527f4552525f4d41585f544f4b454e530000000000000000000000000000000000006020820152906008116134b15760405160e560020a62461bcd028152602060048201818152835160248401528351909283926044909101919085019080838360008315610c16578181015183820152602001610bfe565b5060078054600181810183557fa66cc928b5edb82af9bd49922954155ab7b0942694bea4ce44661d9a8736c6889091018054600160a060020a0390941673ffffffffffffffffffffffffffffffffffffffff1990941684179055604080516060810182529254835260006020848101828152858401838152968352600890915291902092518355519082015590516002909101556003805460ff19169055565b33600160a060020a0316600035600160e060020a031916600160e060020a03191660003660405180806020018281038252848482818152602001925080828437600083820152604051601f909101601f19169092018290039550909350505050a260035460408051808201909152600b815260008051602061650f83398151915260208201529060ff161561362a5760405160e560020a62461bcd028152602060048201818152835160248401528351909283926044909101919085019080838360008315610c16578181015183820152602001610bfe565b506003805460ff191660011790819055604080518082019091526010815260008051602061656f83398151915260208201529062010000900460ff16156136b55760405160e560020a62461bcd028152602060048201818152835160248401528351909283926044909101919085019080838360008315610c16578181015183820152602001610bfe565b50600454604080518082019091526012815260008051602061652f833981519152602082015290600160a060020a031633146137355760405160e560020a62461bcd028152602060048201818152835160248401528351909283926044909101919085019080838360008315610c16578181015183820152602001610bfe565b506003805460ff1961ff001990911661010017169055565b620f4240670de0b6b3a7640000612b97565b33600160a060020a0316600035600160e060020a031916600160e060020a03191660003660405180806020018281038252848482818152602001925080828437600083820152604051601f909101601f19169092018290039550909350505050a260035460408051808201909152600b815260008051602061650f83398151915260208201529060ff16156138385760405160e560020a62461bcd028152602060048201818152835160248401528351909283926044909101919085019080838360008315610c16578181015183820152602001610bfe565b506003805460ff1916600117905561384f81611fe0565b6040518060400160405280600e815260200160008051602061654f833981519152815250906138c25760405160e560020a62461bcd028152602060048201818152835160248401528351909283926044909101919085019080838360008315610c16578181015183820152602001610bfe565b50604080517f70a082310000000000000000000000000000000000000000000000000000000081523060048201529051600160a060020a038316916370a08231916024808301926020929190829003018186803b15801561392257600080fd5b505afa158015613936573d6000803e3d6000fd5b505050506040513d602081101561394c57600080fd5b5051600160a060020a039091166000908152600860205260409020600201556003805460ff19169055565b60035462010000900460ff1690565b33600160a060020a0316600035600160e060020a031916600160e060020a03191660003660405180806020018281038252848482818152602001925080828437600083820152604051601f909101601f19169092018290039550909350505050a260035460408051808201909152600b815260008051602061650f83398151915260208201529060ff1615613a5f5760405160e560020a62461bcd028152602060048201818152835160248401528351909283926044909101919085019080838360008315610c16578181015183820152602001610bfe565b506003805460ff19166001179055600454604080518082019091526012815260008051602061652f83398151915260208201529033600160a060020a0390911614613aee5760405160e560020a62461bcd028152602060048201818152835160248401528351909283926044909101919085019080838360008315610c16578181015183820152602001610bfe565b506004805473ffffffffffffffffffffffffffffffffffffffff1916600160a060020a03929092169190911790556003805460ff19169055565b60035460408051808201909152600b815260008051602061650f833981519152602082015260009160ff1615613ba25760405160e560020a62461bcd028152602060048201818152835160248401528351909283926044909101919085019080838360008315610c16578181015183820152602001610bfe565b505060095490565b60035460408051808201909152600b815260008051602061650f833981519152602082015260009160ff1615613c245760405160e560020a62461bcd028152602060048201818152835160248401528351909283926044909101919085019080838360008315610c16578181015183820152602001610bfe565b50613c2e82611fe0565b6040518060400160405280600e815260200160008051602061654f83398151915281525090613ca15760405160e560020a62461bcd028152602060048201818152835160248401528351909283926044909101919085019080838360008315610c16578181015183820152602001610bfe565b5050600160a060020a031660009081526008602052604090206001015490565b60005b8151811015613d72576000828281518110613cdb57fe5b6020026020010151600060038110613cef57fe5b60200201516c01000000000000000000000000900490506000838381518110613d1457fe5b6020026020010151600160038110613d2857fe5b60200201516001900490506000848481518110613d4157fe5b6020026020010151600260038110613d5557fe5b60200201519050613d67838383612b9b565b505050600101613cc4565b5050565b60035460408051808201909152600b815260008051602061650f833981519152602082015260009160ff1615613df05760405160e560020a62461bcd028152602060048201818152835160248401528351909283926044909101919085019080838360008315610c16578181015183820152602001610bfe565b506113418383615eb1565b7f42524f4e5a45000000000000000000000000000000000000000000000000000090565b6000613e2c338484615837565b604080518381529051600160a060020a0385169133917fddf252ad1be2c89b69c2b068fc378daa952ba7f163c4a11628f55a4df523b3ef9181900360200190a350600192915050565b600354610100900460ff1690565b600a670de0b6b3a7640000612b97565b33600160a060020a0316600035600160e060020a031916600160e060020a03191660003660405180806020018281038252848482818152602001925080828437600083820152604051601f909101601f19169092018290039550909350505050a260035460408051808201909152600b815260008051602061650f83398151915260208201529060ff1615613f6c5760405160e560020a62461bcd028152602060048201818152835160248401528351909283926044909101919085019080838360008315610c16578181015183820152602001610bfe565b506003805460ff19166001179081905560408051808201909152601181527f4552525f4e4f545f46494e414c495a454400000000000000000000000000000060208201529062010000900460ff166140085760405160e560020a62461bcd028152602060048201818152835160248401528351909283926044909101919085019080838360008315610c16578181015183820152602001610bfe565b506000614013611348565b905060006140218383615945565b905061402d3384615dfa565b61403683615e04565b60005b6007548110156140e25760006007828154811061405257fe5b6000918252602080832090910154600160a060020a031680835260089091526040822060020154909250906140878583615b1e565b600160a060020a0384166000908152600860205260409020600201549091506140b09082615e0d565b600160a060020a0384166000908152600860205260409020600201556140d7833383615c62565b505050600101614039565b50506003805460ff191690555050565b60035460408051808201909152600b815260008051602061650f833981519152602082015260609160ff161561416c5760405160e560020a62461bcd028152602060048201818152835160248401528351909283926044909101919085019080838360008315610c16578181015183820152602001610bfe565b5060035460408051808201909152601181527f4552525f4e4f545f46494e414c495a454400000000000000000000000000000060208201529062010000900460ff166141fc5760405160e560020a62461bcd028152602060048201818152835160248401528351909283926044909101919085019080838360008315610c16578181015183820152602001610bfe565b50600780548060200260200160405190810160405280929190818152602001828054801561425357602002820191906000526020600020905b8154600160a060020a03168152600190910190602001808311614235575b5050505050905090565b33600160a060020a0316600035600160e060020a031916600160e060020a03191660003660405180806020018281038252848482818152602001925080828437600083820152604051601f909101601f19169092018290039550909350505050a260035460408051808201909152600b815260008051602061650f83398151915260208201529060ff16156143365760405160e560020a62461bcd028152602060048201818152835160248401528351909283926044909101919085019080838360008315610c16578181015183820152602001610bfe565b506003805460ff19166001179055600454604080518082019091526012815260008051602061652f83398151915260208201529033600160a060020a03909116146143c55760405160e560020a62461bcd028152602060048201818152835160248401528351909283926044909101919085019080838360008315610c16578181015183820152602001610bfe565b506003805461ffff19169055565b600033600160a060020a0316600035600160e060020a031916600160e060020a03191660003660405180806020018281038252848482818152602001925080828437600083820152604051601f909101601f19169092018290039550909350505050a260035460408051808201909152600b815260008051602061650f83398151915260208201529060ff16156144ae5760405160e560020a62461bcd028152602060048201818152835160248401528351909283926044909101919085019080838360008315610c16578181015183820152602001610bfe565b506003805460ff191660011790556144c582611fe0565b6040518060400160405280600e815260200160008051602061654f833981519152815250906145385760405160e560020a62461bcd028152602060048201818152835160248401528351909283926044909101919085019080838360008315610c16578181015183820152602001610bfe565b50600160a060020a038216600090815260086020526040902060028082015460018301549154600954600554600654614575959392918a91616078565b91506145813385615dfa565b61458a84615e04565b614595833384615c62565b61151b816002015483615e0d565b60035460408051808201909152600b815260008051602061650f833981519152602082015260609160ff16156141fc5760405160e560020a62461bcd028152602060048201818152835160248401528351909283926044909101919085019080838360008315610c16578181015183820152602001610bfe565b60075490565b6040805160208082523690820181905260009283923392600160e060020a03198535169285929081908101848480828437600083820152604051601f909101601f19169092018290039550909350505050a260035460408051808201909152600b815260008051602061650f83398151915260208201529060ff16156146ed5760405160e560020a62461bcd028152602060048201818152835160248401528351909283926044909101919085019080838360008315610c16578181015183820152602001610bfe565b506003805460ff1916600117905561470487611fe0565b6040518060400160405280600e815260200160008051602061654f833981519152815250906147775760405160e560020a62461bcd028152602060048201818152835160248401528351909283926044909101919085019080838360008315610c16578181015183820152602001610bfe565b5061478185611fe0565b6040518060400160405280600e815260200160008051602061654f833981519152815250906147f45760405160e560020a62461bcd028152602060048201818152835160248401528351909283926044909101919085019080838360008315610c16578181015183820152602001610bfe565b506147fd613e75565b156040518060400160405280600d81526020017f4552525f49535f50415553454400000000000000000000000000000000000000815250906148835760405160e560020a62461bcd028152602060048201818152835160248401528351909283926044909101919085019080838360008315610c16578181015183820152602001610bfe565b50600160a060020a03808816600090815260086020526040808220928816825290206002808301546148bd91670de0b6b3a7640000612296565b8811156040518060400160405280601081526020017f4552525f4d41585f494e5f524154494f00000000000000000000000000000000815250906149455760405160e560020a62461bcd028152602060048201818152835160248401528351909283926044909101919085019080838360008315610c16578181015183820152602001610bfe565b506149508988615568565b8510156040518060400160405280601081526020017f4552525f4152475f4c494d49545f494e00000000000000000000000000000000815250906149d85760405160e560020a62461bcd028152602060048201818152835160248401528351909283926044909101919085019080838360008315610c16578181015183820152602001610bfe565b506149f982600201548360010154836002015484600101548c600554615f83565b9350858410156040518060400160405280600d81526020017f4552525f4c494d49545f4f55540000000000000000000000000000000000000081525090614a845760405160e560020a62461bcd028152602060048201818152835160248401528351909283926044909101919085019080838360008315610c16578181015183820152602001610bfe565b50614a938260020154896157a2565b8260020181905550614aa9816002015485615e0d565b60028201556000614aba8a89615568565b9050858111156040518060400160405280600f81526020017f4552525f4c494d49545f5052494345000000000000000000000000000000000081525090614b455760405160e560020a62461bcd028152602060048201818152835160248401528351909283926044909101919085019080838360008315610c16578181015183820152602001610bfe565b50614b518a338b615677565b614b5c883387615c62565b87600160a060020a03168a600160a060020a031633600160a060020a03167f908fb5ee8f16c6bc9bc3690973819f32a4d4b10188134543c88706e0e1d433788c89604051808381526020018281526020019250505060405180910390a4925050506003805460ff1916905590969095509350505050565b33600160a060020a0316600035600160e060020a031916600160e060020a03191660003660405180806020018281038252848482818152602001925080828437600083820152604051601f909101601f19169092018290039550909350505050a260035460408051808201909152600b815260008051602061650f83398151915260208201529060ff1615614cac5760405160e560020a62461bcd028152602060048201818152835160248401528351909283926044909101919085019080838360008315610c16578181015183820152602001610bfe565b506003805460ff19166001179055600454604080518082019091526012815260008051602061652f83398151915260208201529033600160a060020a0390911614614d3b5760405160e560020a62461bcd028152602060048201818152835160248401528351909283926044909101919085019080838360008315610c16578181015183820152602001610bfe565b50614d45816116bb565b6040518060400160405280600d81526020017f4552525f4e4f545f424f554e440000000000000000000000000000000000000081525090614dca5760405160e560020a62461bcd028152602060048201818152835160248401528351909283926044909101919085019080838360008315610c16578181015183820152602001610bfe565b50614dd481611fe0565b156040518060400160405280600d81526020017f4552525f49535f46554e4445440000000000000000000000000000000000000081525090614e5a5760405160e560020a62461bcd028152602060048201818152835160248401528351909283926044909101919085019080838360008315610c16578181015183820152602001610bfe565b50600160a060020a03811660009081526008602052604090205460078054600019928301928101919082908110614e8d57fe5b60009182526020909120015460078054600160a060020a039092169184908110614eb357fe5b9060005260206000200160006101000a815481600160a060020a030219169083600160a060020a03160217905550816001016008600060078581548110614ef657fe5b6000918252602080832090910154600160a060020a031683528201929092526040019020556007805480614f2657fe5b600082815260208082208301600019908101805473ffffffffffffffffffffffffffffffffffffffff1916905590920190925560408051606081018252838152808301848152818301858152600160a060020a039890981685526008909352922091518255516001820155925160029093019290925550506003805460ff19169055565b60035460408051808201909152600b815260008051602061650f833981519152602082015260009182919060ff16156150275760405160e560020a62461bcd028152602060048201818152835160248401528351909283926044909101919085019080838360008315610c16578181015183820152602001610bfe565b50600554600654915091509091565b600160a060020a0391821660009081526020818152604080832093909416825291909152205490565b60005b8151811015613d725761508782828151811061507a57fe5b60200260200101516131b2565b600101615062565b6c0c9f2c9cd04674edea4000000081565b600033600160a060020a0316600035600160e060020a031916600160e060020a03191660003660405180806020018281038252848482818152602001925080828437600083820152604051601f909101601f19169092018290039550909350505050a260035460408051808201909152600b815260008051602061650f83398151915260208201529060ff161561517b5760405160e560020a62461bcd028152602060048201818152835160248401528351909283926044909101919085019080838360008315610c16578181015183820152602001610bfe565b5060038054600160ff19909116179081905560408051808201909152600f81527f4552525f4e4f545f464143544f5259000000000000000000000000000000000060208201529063010000009004600160a060020a031633146152225760405160e560020a62461bcd028152602060048201818152835160248401528351909283926044909101919085019080838360008315610c16578181015183820152602001610bfe565b5060035463010000009004600160a060020a03166000818152600160205260409020549061525090826154a4565b90506003805460ff1916905590565b60035460408051808201909152600b815260008051602061650f833981519152602082015260009160ff16156152d95760405160e560020a62461bcd028152602060048201818152835160248401528351909283926044909101919085019080838360008315610c16578181015183820152602001610bfe565b506152e382611fe0565b6040518060400160405280600e815260200160008051602061654f833981519152815250906153565760405160e560020a62461bcd028152602060048201818152835160248401528351909283926044909101919085019080838360008315610c16578181015183820152602001610bfe565b50600160a060020a038216600090815260086020526040902060010154600954611341908290615945565b60035460408051808201909152600b815260008051602061650f833981519152602082015260009160ff16156153fb5760405160e560020a62461bcd028152602060048201818152835160248401528351909283926044909101919085019080838360008315610c16578181015183820152602001610bfe565b5061540582611fe0565b6040518060400160405280600e815260200160008051602061654f833981519152815250906154785760405160e560020a62461bcd028152602060048201818152835160248401528351909283926044909101919085019080838360008315610c16578181015183820152602001610bfe565b5050600160a060020a031660009081526008602052604090206002015490565b6154a1816160e6565b50565b613d728282616156565b6000806154bb8787615945565b905060006154c98686615945565b905060006154d78383615945565b905060006154fe670de0b6b3a76400006154f9670de0b6b3a764000089615e0d565b615945565b905061550a8282615b1e565b9a9950505050505050505050565b6000806155258585615945565b905060006155338888615945565b905060006155418383615945565b905060006154fe670de0b6b3a7640000615563670de0b6b3a764000089615e0d565b615b1e565b600160a060020a038083166000908152600860205260408082209284168252812060028084015460018086015492840154908401546005549596956111f4949291906154ae565b6000806155bc8786615945565b905060006155ca87866157a2565b905060006155d88289615945565b905060006155ee670de0b6b3a764000085615945565b905060006155fc8383616161565b9050600061560a828e615b1e565b90506000615618828f615e0d565b9050600061562e670de0b6b3a764000089615e0d565b9050600061563c828c615b1e565b90506000615652670de0b6b3a764000083615e0d565b905060006156608583615945565b9b5050505050505050505050509695505050505050565b604080517f23b872dd000000000000000000000000000000000000000000000000000000008152600160a060020a0384811660048301523060248301526044820184905291516000928616916323b872dd91606480830192602092919082900301818787803b1580156156e957600080fd5b505af11580156156fd573d6000803e3d6000fd5b505050506040513d602081101561571357600080fd5b505160408051808201909152600f81527f4552525f45524332305f46414c5345000000000000000000000000000000000060208201529091508161579b5760405160e560020a62461bcd028152602060048201818152835160248401528351909283926044909101919085019080838360008315610c16578181015183820152602001610bfe565b5050505050565b60408051808201909152601081527f4552525f4144445f4f564552464c4f57000000000000000000000000000000006020820152600090838301908482101561582f5760405160e560020a62461bcd028152602060048201818152835160248401528351909283926044909101919085019080838360008315610c16578181015183820152602001610bfe565b509392505050565b600160a060020a03831660009081526001602052604090205461585a90826158e5565b600160a060020a03808516600090815260016020526040808220939093559084168152205461588990826157a2565b600160a060020a0380841660008181526001602090815260409182902094909455805185815290519193928716927fdeb3a6837278f6e9914a507e4d73f08e841d8fca434fb97d4307b3b0d3d6b10592918290030190a3505050565b60008183101561593f576040805160e560020a62461bcd02815260206004820152601460248201527f4552525f42544f4b454e5f554e444552464c4f57000000000000000000000000604482015290519081900360640190fd5b50900390565b60408051808201909152600c81527f4552525f4449565f5a45524f00000000000000000000000000000000000000006020820152600090826159cb5760405160e560020a62461bcd028152602060048201818152835160248401528351909283926044909101919085019080838360008315610c16578181015183820152602001610bfe565b50670de0b6b3a764000083028315806159f45750670de0b6b3a76400008482816159f157fe5b04145b6040518060400160405280601081526020017f4552525f4449565f494e5445524e414c0000000000000000000000000000000081525090615a795760405160e560020a62461bcd028152602060048201818152835160248401528351909283926044909101919085019080838360008315610c16578181015183820152602001610bfe565b5060408051808201909152601081527f4552525f4449565f494e5445524e414c0000000000000000000000000000000060208201526002840482019082821015615b075760405160e560020a62461bcd028152602060048201818152835160248401528351909283926044909101919085019080838360008315610c16578181015183820152602001610bfe565b506000848281615b1357fe5b049695505050505050565b6000828202831580615b38575082848281615b3557fe5b04145b6040518060400160405280601081526020017f4552525f4d554c5f4f564552464c4f570000000000000000000000000000000081525090615bbd5760405160e560020a62461bcd028152602060048201818152835160248401528351909283926044909101919085019080838360008315610c16578181015183820152602001610bfe565b5060408051808201909152601081527f4552525f4d554c5f4f564552464c4f570000000000000000000000000000000060208201526706f05b59d3b2000082019082821015615c505760405160e560020a62461bcd028152602060048201818152835160248401528351909283926044909101919085019080838360008315610c16578181015183820152602001610bfe565b506000670de0b6b3a764000082615b13565b604080517fa9059cbb000000000000000000000000000000000000000000000000000000008152600160a060020a03848116600483015260248201849052915160009286169163a9059cbb91604480830192602092919082900301818787803b1580156156e957600080fd5b600080615cdb8786615945565b90506000615cf1670de0b6b3a764000083615e0d565b90506000615d03866155638488615b1e565b90506000615d118783615e0d565b9050806000615d208d836157a2565b90506000615d2e828f615945565b90506000615d3c8289616161565b90506000615d4a828f615b1e565b9050615d56818f615e0d565b99505050505050505050509695505050505050565b600083880381615d7b828b615945565b90506000615d89828b616161565b90506000615d97828b615b1e565b9050806000615da6828d615e0d565b90506000615dbc670de0b6b3a76400008f615e0d565b90506000615dca828c615b1e565b90506000615de4846154f9670de0b6b3a76400008e615e0d565b9950505050505050505050979650505050505050565b613d7282826162dc565b6154a1816162e7565b6000806000615e1c8585616357565b9150915080156040518060400160405280601181526020017f4552525f5355425f554e444552464c4f5700000000000000000000000000000081525090615ea75760405160e560020a62461bcd028152602060048201818152835160248401528351909283926044909101919085019080838360008315610c16578181015183820152602001610bfe565b5090949350505050565b600160a060020a038083166000908152600860205260408082209284168252812060028084015460018086015492840154908401546005549596956111f494929190615518565b600080615f09888888886000615518565b90506000615f178286615945565b90506000615f29876154f9898c6157a2565b9050615f46615f388383616161565b670de0b6b3a7640000615e0d565b9350615f52848b615b1e565b93506000615f68670de0b6b3a764000087615e0d565b9050615f748582615945565b9b9a5050505050505050505050565b600080615f908786615945565b90506000615fa6670de0b6b3a764000085615e0d565b9050615fb28582615b1e565b90506000615fc48a6154f98c856157a2565b90506000615fd28285616161565b90506000615fe8670de0b6b3a764000083615e0d565b9050615ff48a82615b1e565b9c9b505050505050505050505050565b6000806160118588615945565b9050600061601f8786615e0d565b9050600061602d8883615945565b9050600061603b8285616161565b905061604f81670de0b6b3a7640000615e0d565b9050616063670de0b6b3a764000087615e0d565b9450615f746160728c83615b1e565b86615945565b6000806160858887615945565b9050600061609482878761637c565b905080880360006160ad670de0b6b3a764000085615945565b905060006160c46160be848d615945565b83616161565b905060006160d2828f615b1e565b909d039d9c50505050505050505050505050565b3060009081526001602052604090205461610090826157a2565b3060009081526001602052604090205560025461611d90826157a2565b6002556040805182815290517f07883703ed0e86588a40d76551c92f8a4b329e3bf19765e0e6749473c1a846659181900360200190a150565b613d72308383615837565b60408051808201909152601681527f4552525f42504f575f424153455f544f4f5f48494748000000000000000000006020820152600090671bc16d674ec800008411156161f25760405160e560020a62461bcd028152602060048201818152835160248401528351909283926044909101919085019080838360008315610c16578181015183820152602001610bfe565b5060408051808201909152601581527f4552525f42504f575f424153455f544f4f5f4c4f5700000000000000000000006020820152836162765760405160e560020a62461bcd028152602060048201818152835160248401528351909283926044909101919085019080838360008315610c16578181015183820152602001610bfe565b506000616282836163b0565b905060006162908483615e0d565b905060006162a6866162a1856163cb565b6163d9565b9050816162b7579250610e86915050565b60006162c587846014616430565b90506162d18282615b1e565b979650505050505050565b613d72823083615837565b3060009081526001602052604090205461630190826158e5565b3060009081526001602052604090205560025461631e90826158e5565b6002556040805182815290517fb90306ad06b2a6ff86ddc9327db583062895ef6540e62dc50add009db5b356eb9181900360200190a150565b60008082841061636d5750508082036000616375565b505081810360015b9250929050565b6000670de0b6b3a7640000849003816163958583615b1e565b905060006163a38286615b1e565b9095039695505050505050565b6000670de0b6b3a76400006163c4836163cb565b0292915050565b670de0b6b3a7640000900490565b600080600283066163f257670de0b6b3a76400006163f4565b835b90506002830492505b82156113415761640d8485615b1e565b93506002830615616425576164228185615b1e565b90505b6002830492506163fd565b600082818061644787670de0b6b3a7640000616357565b9092509050670de0b6b3a764000080600060015b8881116164ff576000670de0b6b3a76400008202905060008061648f8a61648a85670de0b6b3a7640000615e0d565b616357565b915091506164a187615563848c615b1e565b96506164ad8784615945565b9650866164bc575050506164ff565b87156164c6579315935b80156164d0579315935b84156164e7576164e08688615e0d565b95506164f4565b6164f186886157a2565b95505b50505060010161645b565b5090999850505050505050505056fe4552525f5245454e5452590000000000000000000000000000000000000000004552525f4e4f545f434f4e54524f4c4c455200000000000000000000000000004552525f4e4f545f46554e4445440000000000000000000000000000000000004552525f49535f46494e414c495a454400000000000000000000000000000000a265627a7a72315820eb1a51a7964dad4cd5a4450cd979a028b9f9228b2083f102ee1623c87e721dd064736f6c634300050b0032a265627a7a72315820f9565c9d700579644d36cd2725e9ba864a2bda018d9b36d13b88ad1d1704735a64736f6c634300050b0032",
  "source": "// This program is free software: you can redistribute it and/or modify\n// it under the terms of the GNU General Public License as published by\n// the Free Software Foundation, either version 3 of the License, or\n// (at your option) any later version.\n\n// This program is disstributed in the hope that it will be useful,\n// but WITHOUT ANY WARRANTY; without even the implied warranty of\n// MERCHANTABILITY or FITNESS FOR A PARTICULAR PURPOSE.  See the\n// GNU General Public License for more details.\n\n// You should have received a copy of the GNU General Public License\n// along with this program.  If not, see <http://www.gnu.org/licenses/>.\n\npragma solidity ^0.5.11;\n\n// Builds new BPools, logging their addresses and providing `isBPool(address) -> (bool)`\n// Grants access to BPool internal math utils, for use as a library\n\nimport 'contracts/BColor.sol';\nimport 'contracts/BPool.sol';\nimport 'contracts/BStub.sol';\n\ncontract BFactory is BBronze\n{\n    event LOG_NEW_POOL( address indexed caller\n                      , address indexed pool );\n\n    mapping(address=>bool) _isBPool;\n\n    function isBPool(address b)\n      public view returns (bool) {\n        return _isBPool[b];\n    }\n\n    function newBPool()\n      public returns (BPool)\n    {\n        BPool bpool = new BPool();\n        bpool.setController(msg.sender);\n        _isBPool[address(bpool)] = true;\n        emit LOG_NEW_POOL(msg.sender, address(bpool));\n        return bpool;\n    }\n\n    address _blabs;\n    constructor() public {\n        _blabs = msg.sender;\n    }\n    function getBLabs() public view returns (address) {\n        return _blabs;\n    }\n    function setBLabs(address b) public {\n        require(msg.sender == _blabs);\n        _blabs = b;\n    }\n    function collect(BPool pool, address to)\n      public \n    {\n        require(msg.sender == _blabs, \"ERR_NOT_BLABS\");\n        uint collected = pool.collect();\n        pool.transfer(to, collected);\n    }\n}\n",
  "sourcePath": "/Users/admin/desk/balancer/core/contracts/BFactory.sol",
  "compiler": {
    "name": "solc",
    "version": "0.5.11+commit.c082d0b4.Emscripten.clang"
  },
  "schemaVersion": "3.0.16",
  "updatedAt": "2019-09-29T15:19:21.506Z",
  "devdoc": {
    "methods": {}
  },
  "userdoc": {
    "methods": {}
  }
}