{
  "contractName": "BMath",
  "abi": [
    {
      "constant": true,
      "inputs": [],
      "name": "MAX_TOTAL_WEIGHT",
      "outputs": [
        {
          "internalType": "uint256",
          "name": "",
          "type": "uint256"
        }
      ],
      "payable": false,
      "stateMutability": "view",
      "type": "function"
    },
    {
      "constant": true,
      "inputs": [],
      "name": "MIN_WEIGHT",
      "outputs": [
        {
          "internalType": "uint256",
          "name": "",
          "type": "uint256"
        }
      ],
      "payable": false,
      "stateMutability": "view",
      "type": "function"
    },
    {
      "constant": true,
      "inputs": [],
      "name": "MIN_FEE",
      "outputs": [
        {
          "internalType": "uint256",
          "name": "",
          "type": "uint256"
        }
      ],
      "payable": false,
      "stateMutability": "view",
      "type": "function"
    },
    {
      "constant": true,
      "inputs": [],
      "name": "MIN_BALANCE",
      "outputs": [
        {
          "internalType": "uint256",
          "name": "",
          "type": "uint256"
        }
      ],
      "payable": false,
      "stateMutability": "view",
      "type": "function"
    },
    {
      "constant": true,
      "inputs": [],
      "name": "getColor",
      "outputs": [
        {
          "internalType": "bytes32",
          "name": "",
          "type": "bytes32"
        }
      ],
      "payable": false,
      "stateMutability": "view",
      "type": "function"
    },
    {
      "constant": true,
      "inputs": [],
      "name": "MAX_FEE",
      "outputs": [
        {
          "internalType": "uint256",
          "name": "",
          "type": "uint256"
        }
      ],
      "payable": false,
      "stateMutability": "view",
      "type": "function"
    },
    {
      "constant": true,
      "inputs": [],
      "name": "MAX_BALANCE",
      "outputs": [
        {
          "internalType": "uint256",
          "name": "",
          "type": "uint256"
        }
      ],
      "payable": false,
      "stateMutability": "view",
      "type": "function"
    },
    {
      "constant": true,
      "inputs": [],
      "name": "MAX_WEIGHT",
      "outputs": [
        {
          "internalType": "uint256",
          "name": "",
          "type": "uint256"
        }
      ],
      "payable": false,
      "stateMutability": "view",
      "type": "function"
    }
  ],
  "bytecode": "0x608060405234801561001057600080fd5b506101aa806100206000396000f3fe608060405234801561001057600080fd5b50600436106100a5576000357c0100000000000000000000000000000000000000000000000000000000900480639a86139b116100785780639a86139b146100dc578063bc063e1a146100e4578063def92c69146100ec578063e4a28a52146100aa576100a5565b806309a3bbe4146100aa578063218b5382146100c457806376c7a3c7146100cc578063867378c5146100d4575b600080fd5b6100b26100f4565b60408051918252519081900360200190f35b6100b2610101565b6100b261010d565b6100b261011e565b6100b2610130565b6100b2610154565b6100b2610164565b6802b5e3af16b188000081565b670de0b6b3a764000081565b612710670de0b6b3a76400005b0481565b620f4240670de0b6b3a764000061011a565b7f42524f4e5a45000000000000000000000000000000000000000000000000000090565b600a670de0b6b3a764000061011a565b6c0c9f2c9cd04674edea400000008156fea265627a7a72315820eef97878d84b204f01fa13ff1c3ba997e536ab3cd9aed2acc70a056583c8650264736f6c634300050b0032",
  "source": "// This program is free software: you can redistribute it and/or modify\n// it under the terms of the GNU General Public License as published by\n// the Free Software Foundation, either version 3 of the License, or\n// (at your option) any later version.\n\n// This program is distributed in the hope that it will be useful,\n// but WITHOUT ANY WARRANTY; without even the implied warranty of\n// MERCHANTABILITY or FITNESS FOR A PARTICULAR PURPOSE.  See the\n// GNU General Public License for more details.\n\n// You should have received a copy of the GNU General Public License\n// along with this program.  If not, see <http://www.gnu.org/licenses/>.\n\npragma solidity ^0.5.11;\n\nimport \"contracts/BColor.sol\";\nimport \"contracts/BConst.sol\";\nimport \"contracts/BNum.sol\";\n\ncontract BMath is BBronze, BConst, BNum\n{\n    // P = ((Bi/Wi)/(Bo/Wo)) * (1/(1-f))\n    function _calc_SpotPrice( uint Bi, uint Wi, uint Bo, uint Wo, uint f) \n      internal pure\n        returns ( uint P )\n    {\n        uint numer = bdiv(Bi, Wi);\n        uint denom = bdiv(Bo, Wo);\n        uint ratio = bdiv(numer, denom);\n        uint scale = bdiv(BONE, bsub(BONE, f));\n        return  (P = bmul(ratio, scale));\n    }\n\n    // P = ((Bo/Wo)/(Bi/Wi)) * (1*(1-f))\n    function _calc_SpotRate( uint Bi, uint Wi, uint Bo, uint Wo, uint f)\n      internal pure\n        returns ( uint R ) \n    {\n        uint numer = bdiv(Bo, Wo);\n        uint denom = bdiv(Bi, Wi);\n        uint ratio = bdiv(numer, denom);\n        uint scale = bmul(BONE, bsub(BONE, f));\n        return  (R = bmul(ratio, scale));\n    }\n\n    // Ao = Bo * (1 - (Bi/(Bi + Ai * (1 - fee)))^(Wi/Wo))\n    function _calc_OutGivenIn\n      ( uint Bi, uint Wi\n      , uint Bo, uint Wo\n      , uint Ai\n      , uint fee\n      )\n        pure\n        internal\n        returns ( uint Ao )\n    {\n        uint wRatio     = bdiv(Wi, Wo);\n        uint adjustedIn = bsub(BONE, fee);\n             adjustedIn = bmul(Ai, adjustedIn);\n        uint y          = bdiv(Bi, badd(Bi, adjustedIn));\n        uint foo        = bpow(y, wRatio);\n        uint bar        = bsub(BONE, foo);\n             Ao         = bmul(Bo, bar);\n        return Ao;\n\t}\n\n    // Ai = Bo * ((Bi/(Bi + Ai))^(Wo/Wi) - 1) / (1 - fee)\n    function _calc_InGivenOut( uint Bi, uint Wi\n                             , uint Bo, uint Wo\n                             , uint Ao\n                             , uint fee\n                             )\n      internal pure\n        returns ( uint Ai )\n    {\n        uint wRatio = bdiv(Wo, Wi);\n        uint diff   = bsub(Bo, Ao);\n        uint y      = bdiv(Bo, diff);\n        uint foo    = bpow(y, wRatio);\n             foo    = bsub(foo, BONE);\n             Ai     = bsub(BONE, fee);\n             Ai     = bdiv(bmul(Bi, foo), Ai);\n        return Ai;\n    }\n\n    function _calc_InGivenPrice( uint Bi, uint Wi\n                               , uint Bo , uint Wo\n                               , uint SER1\n                               , uint fee)\n      internal pure\n        returns ( uint Ai )\n    {\n        uint SER0    = _calc_SpotRate(Bi, Wi, Bo, Wo, 0);\n        uint base    = bdiv(SER0, SER1);\n        uint exp     = bdiv(Wo, badd(Wo, Wi));\n        Ai           = bsub(bpow(base, exp), BONE);\n        Ai           = bmul(Ai, Bi);\n        uint foo     = bsub(BONE, fee);\n        Ai           = bdiv(Ai, foo);\n        return Ai;\n    }\n\n    // Pissued = Ptotal * ((1+(tAi/B))^W - 1)\n    function _calc_PoolOutGivenSingleIn( uint balance, uint weight\n                                       , uint poolSupply, uint totalWeight\n                                       , uint tAi, uint fee )\n      internal pure\n        returns (uint poolOut)\n    {\n        // Charge the trading fee for the proportion of tokenAi\n        ///  which is implicitly traded to the other pool tokens.\n        // That proportion is (1-T.normalizedWeight)\n        // tokenAiAfterFee = tAi - tAi * (1-T.normalizedWeight) * poolFee;\n\n        uint normalizedWeight = bdiv(weight, totalWeight);\n\n        uint boo = bsub(BONE, normalizedWeight);\n        uint bar = bmul(tAi, bmul(boo, fee));\n        uint baz = bsub(tAi, bar);\n        uint tokenAiAfterFee = baz;\n\n        uint newBalTi = badd(balance, tokenAiAfterFee);\n        uint ratioTi = bdiv(newBalTi, balance);\n\n        // uint newPoolTotal = (ratioTi ^ T.normalizedWeight) * oldPoolTotal;\n        uint zoo = bpow(ratioTi, normalizedWeight);\n        uint zar = bmul(zoo, poolSupply);\n        return (poolOut = bsub(zar, poolSupply));\n    }\n\n    function _calc_SingleInGivenPoolOut( uint balance, uint weight\n                                       , uint poolSupply, uint totalWeight\n                                       , uint pAo, uint fee)\n      internal pure\n        returns (uint tokenIn)\n    {\n        uint normalizedWeight = bdiv(weight, totalWeight);\n        uint newPoolTotal = badd(poolSupply, pAo);\n        uint poolRatio = bdiv(newPoolTotal, poolSupply);\n      \n        //uint newBalTi = poolRatio^(1/T.weight) * T.balance;\n        uint boo = bdiv(BONE, normalizedWeight); \n        uint bar = bpow(poolRatio, boo);\n        uint newBalTi = bmul(bar, balance);\n        uint tokenAi = bsub(newBalTi, balance);\n        // Do reverse order of fees charged in joinswap_ExternAmountIn, this way \n        //     ``` pAo == joinswap_ExternAmountIn(Ti, joinswap_PoolAmountOut(pAo, Ti)) ```\n        //uint tokenAiBeforeFee = tokenAi / (1 - (1-T.weight) * _swapFee) ;\n        uint zoo = bsub(BONE, normalizedWeight);\n        uint zar = bmul(zoo, fee);\n        uint zaz = bsub(BONE, zar);\n        uint tAi = bdiv(tokenAi, zaz);\n        return tAi;\n    }\n\n    // Temporary hack to avoid stack depth\n    // TODO actually fix it\n    function _calc_SOGPI_helper(uint normalizedWeight, uint pAi, uint fee)\n      internal pure\n        returns (uint pAi_fee)\n    {\n        // pAi_fee = poolAi - poolAi * (1-weightTo) * poolFee\n        uint boo = BONE - normalizedWeight;\n        uint bar = bmul(pAi, boo);\n        uint baz = bmul(bar, fee);\n        pAi_fee = pAi - baz;\n    }\n\n    function _calc_SingleOutGivenPoolIn( uint balance, uint weight\n                                       , uint poolSupply, uint totalWeight\n                                       , uint pAi, uint fee, uint exitFee)\n      internal pure\n        returns (uint tAo)\n    {\n        uint normalizedWeight = bdiv(weight, totalWeight);\n        uint pAi_fee = _calc_SOGPI_helper(normalizedWeight, pAi, fee);\n\n        uint newPoolTotal = poolSupply - pAi_fee;\n//        uint poolRatio = bdiv(newPoolTotal, poolSupply);\n     \n        // newBalTo = poolRatio^(1/weightTo) * oldBalTo;\n        uint zoo = bdiv(BONE, normalizedWeight); \n        uint zar = bpow(bdiv(newPoolTotal, poolSupply), zoo);\n        uint newBalTo = bmul(zar, balance);\n\n        tAo = balance - newBalTo;\n        return tAo;\n    }\n\n    function _calc_PoolInGivenSingleOut( uint balance, uint weight\n                                       , uint poolSupply, uint totalWeight\n                                       , uint tAo, uint swapFee, uint exitFee)\n      internal pure\n        returns (uint pAi)\n    {\n        uint newBalTo = balance - tAo;\n        uint ratioTo = bdiv(newBalTo, balance);\n\n        //uint newPoolTotal = (ratioTo ^ weightTo) * _totalSupply;\n        uint boo = bpow(ratioTo, weight);\n        uint bar = bmul(boo, poolSupply);\n        uint newPoolTotal = bar;\n        uint poolAi = bsub(newPoolTotal, poolSupply);\n\n        //uint poolAoBeforeTradingFee = poolAo / (1 - (1-weightTo) * poolTradingFee) ;\n        uint zoo = bsub(BONE, weight);\n        uint zar = bmul(zoo, swapFee); // poolAoBeforeTradingFees\n        uint pAi_beforeFees = bdiv(poolAi, bsub(BONE, exitFee));\n        return pAi_beforeFees;\n    }\n\n\n}\n",
  "sourcePath": "/Users/admin/desk/balancer/core/contracts/BMath.sol",
  "compiler": {
    "name": "solc",
    "version": "0.5.11+commit.c082d0b4.Emscripten.clang"
  },
  "schemaVersion": "3.0.16",
  "updatedAt": "2019-10-05T16:01:13.290Z",
  "devdoc": {
    "methods": {}
  },
  "userdoc": {
    "methods": {}
  }
}