{
  "contractName": "BNum",
  "abi": [
    {
      "constant": true,
      "inputs": [],
      "name": "MAX_TOTAL_WEIGHT",
      "outputs": [
        {
          "internalType": "uint256",
          "name": "",
          "type": "uint256"
        }
      ],
      "payable": false,
      "stateMutability": "view",
      "type": "function"
    },
    {
      "constant": true,
      "inputs": [],
      "name": "MIN_WEIGHT",
      "outputs": [
        {
          "internalType": "uint256",
          "name": "",
          "type": "uint256"
        }
      ],
      "payable": false,
      "stateMutability": "view",
      "type": "function"
    },
    {
      "constant": true,
      "inputs": [],
      "name": "MIN_FEE",
      "outputs": [
        {
          "internalType": "uint256",
          "name": "",
          "type": "uint256"
        }
      ],
      "payable": false,
      "stateMutability": "view",
      "type": "function"
    },
    {
      "constant": true,
      "inputs": [],
      "name": "MIN_BALANCE",
      "outputs": [
        {
          "internalType": "uint256",
          "name": "",
          "type": "uint256"
        }
      ],
      "payable": false,
      "stateMutability": "view",
      "type": "function"
    },
    {
      "constant": true,
      "inputs": [],
      "name": "getColor",
      "outputs": [
        {
          "internalType": "bytes32",
          "name": "",
          "type": "bytes32"
        }
      ],
      "payable": false,
      "stateMutability": "view",
      "type": "function"
    },
    {
      "constant": true,
      "inputs": [],
      "name": "MAX_FEE",
      "outputs": [
        {
          "internalType": "uint256",
          "name": "",
          "type": "uint256"
        }
      ],
      "payable": false,
      "stateMutability": "view",
      "type": "function"
    },
    {
      "constant": true,
      "inputs": [],
      "name": "MAX_BALANCE",
      "outputs": [
        {
          "internalType": "uint256",
          "name": "",
          "type": "uint256"
        }
      ],
      "payable": false,
      "stateMutability": "view",
      "type": "function"
    },
    {
      "constant": true,
      "inputs": [],
      "name": "MAX_WEIGHT",
      "outputs": [
        {
          "internalType": "uint256",
          "name": "",
          "type": "uint256"
        }
      ],
      "payable": false,
      "stateMutability": "view",
      "type": "function"
    }
  ],
  "bytecode": "0x608060405234801561001057600080fd5b506101aa806100206000396000f3fe608060405234801561001057600080fd5b50600436106100a5576000357c0100000000000000000000000000000000000000000000000000000000900480639a86139b116100785780639a86139b146100dc578063bc063e1a146100e4578063def92c69146100ec578063e4a28a52146100aa576100a5565b806309a3bbe4146100aa578063218b5382146100c457806376c7a3c7146100cc578063867378c5146100d4575b600080fd5b6100b26100f4565b60408051918252519081900360200190f35b6100b2610101565b6100b261010d565b6100b261011e565b6100b2610130565b6100b2610154565b6100b2610164565b6802b5e3af16b188000081565b670de0b6b3a764000081565b612710670de0b6b3a76400005b0481565b620f4240670de0b6b3a764000061011a565b7f42524f4e5a45000000000000000000000000000000000000000000000000000090565b600a670de0b6b3a764000061011a565b6c0c9f2c9cd04674edea400000008156fea265627a7a723158202bf540764946a722fcd521f920dee4848bd091c38cdb1280a93607b2629f6a9564736f6c634300050b0032",
  "source": "// This program is free software: you can redistribute it and/or modify\n// it under the terms of the GNU General Public License as published by\n// the Free Software Foundation, either version 3 of the License, or\n// (at your option) any later version.\n\n// This program is distributed in the hope that it will be useful,\n// but WITHOUT ANY WARRANTY; without even the implied warranty of\n// MERCHANTABILITY or FITNESS FOR A PARTICULAR PURPOSE.  See the\n// GNU General Public License for more details.\n\n// You should have received a copy of the GNU General Public License\n// along with this program.  If not, see <http://www.gnu.org/licenses/>.\n\npragma solidity ^0.5.11;\n\nimport \"contracts/BColor.sol\";\nimport \"contracts/BConst.sol\";\n\ncontract BNum is BBronze, BConst {\n\n    function btoi(uint a) internal pure returns (uint) {\n        return a / BONE;\n    }\n\n    function bfloor(uint a) internal pure returns (uint) {\n        return btoi(a) * BONE;\n    }\n\n    function badd(uint a, uint b) internal pure returns (uint) {\n        uint c = a + b;\n        require(c >= a, ERR_ADD_OVERFLOW);\n        return c;\n    }\n\n    function bsub(uint a, uint b) internal pure returns (uint) {\n        (uint c, bool flag) = bsubSign(a, b);\n        require(!flag, ERR_SUB_UNDERFLOW);\n        return c;\n    }\n\n    function bsubSign(uint a, uint b) internal pure returns (uint, bool) {\n        if (a >= b) {\n            return (a - b, false);\n        } else {\n            return (b - a, true);\n        }\n    }\n\n    function bmul(uint a, uint b) internal pure returns (uint) {\n        uint c0 = a * b;\n        require(a == 0 || c0 / a == b, ERR_MUL_OVERFLOW);\n        uint c1 = c0 + (BONE / 2);\n        require(c1 >= c0, ERR_MUL_OVERFLOW);\n        uint c2 = c1 / BONE;\n        return c2;\n    }\n\n    function bdiv(uint a, uint b) internal pure returns (uint) {\n        require(b != 0, ERR_DIV_ZERO);\n        uint c0 = a * BONE;\n        require(a == 0 || c0 / a == BONE, ERR_DIV_INTERNAL); // bmul overflow\n        uint c1 = c0 + (b / 2);\n        require(c1 >= c0, ERR_DIV_INTERNAL); //  badd require\n        uint c2 = c1 / b;\n        return c2;\n    }\n\n    // DSMath.wpow\n    function bpowi(uint a, uint n) internal pure returns (uint) {\n        uint z = n % 2 != 0 ? a : BONE;\n\n        for (n /= 2; n != 0; n /= 2) {\n            a = bmul(a, a);\n\n            if (n % 2 != 0) {\n                z = bmul(z, a);\n            }\n        }\n        return z;\n    }\n\n    // Compute b^(e.w) by splitting it into (b^e)*(b^0.w).\n    // Use `bpowi` for `b^e` and `bpowK` for k iterations\n    // of approximation of b^0.w\n    function bpow(uint base, uint exp)\n      pure internal\n        returns (uint)\n    {\n        require(base <= BONE * 2, ERR_BPOW_BASE_TOO_HIGH);\n        require(base > 0, ERR_BPOW_BASE_TOO_LOW);\n\n        uint whole  = bfloor(exp);   \n        uint remain = bsub(exp, whole);\n\n        uint wholePow = bpowi(base, btoi(whole));\n\n        if (remain == 0) {\n            return wholePow;\n        }\n\n        uint partialResult = bpowK(base, remain, APPROX_ITERATIONS);\n        return bmul(wholePow, partialResult);\n    }\n\n    function bpowK(uint base, uint exp, uint K)\n      pure internal\n        returns (uint)\n    {\n        // term 0:\n        uint a     = exp;\n        (uint x, bool xneg)  = bsubSign(base, BONE);\n        uint term = BONE;\n        uint sum   = term;\n        bool negative = false;\n\n        // term(k) = numer / denom \n        //         = (product(a - i - 1, i=1-->k) * x^k) / (k!)\n        // each iteration, multiply previous term by (a-(k-1)) * x / k\n        // keep a tally of negative signs in 'negatives' to determine this term's sign\n        for( uint i = 1; i <= K; i++) {\n            uint bigK = i * BONE;\n            (uint c, bool cneg) = bsubSign(a, bsub(bigK, BONE));\n\n            term                = bmul(term, bmul(c, x));\n            term                = bdiv(term, bigK);\n            if (term == 0) break;\n\n            if (xneg) negative = !negative;\n            if (cneg) negative = !negative;\n            if (negative) {\n                sum      = bsub(sum, term);\n            } else {\n                sum      = badd(sum, term);\n            }\n        }\n\n        return sum;\n    }\n\n}\n",
  "sourcePath": "contracts/BNum.sol",
  "compiler": {
    "name": "solc",
    "version": "0.5.11+commit.c082d0b4.Emscripten.clang"
  },
  "schemaVersion": "3.0.16",
  "updatedAt": "2019-09-29T15:19:21.513Z",
  "devdoc": {
    "methods": {}
  },
  "userdoc": {
    "methods": {}
  }
}