{
  "contractName": "BPool",
  "abi": [
    {
      "constant": false,
      "inputs": [
        {
          "internalType": "address",
          "name": "guy",
          "type": "address"
        },
        {
          "internalType": "uint256",
          "name": "wad",
          "type": "uint256"
        }
      ],
      "name": "approve",
      "outputs": [
        {
          "internalType": "bool",
          "name": "",
          "type": "bool"
        }
      ],
      "payable": false,
      "stateMutability": "nonpayable",
      "type": "function"
    },
    {
      "constant": true,
      "inputs": [],
      "name": "MAX_TOTAL_WEIGHT",
      "outputs": [
        {
          "internalType": "uint256",
          "name": "",
          "type": "uint256"
        }
      ],
      "payable": false,
      "stateMutability": "view",
      "type": "function"
    },
    {
      "constant": true,
      "inputs": [],
      "name": "totalSupply",
      "outputs": [
        {
          "internalType": "uint256",
          "name": "",
          "type": "uint256"
        }
      ],
      "payable": false,
      "stateMutability": "view",
      "type": "function"
    },
    {
      "constant": true,
      "inputs": [],
      "name": "MIN_WEIGHT",
      "outputs": [
        {
          "internalType": "uint256",
          "name": "",
          "type": "uint256"
        }
      ],
      "payable": false,
      "stateMutability": "view",
      "type": "function"
    },
    {
      "constant": false,
      "inputs": [
        {
          "internalType": "address",
          "name": "src",
          "type": "address"
        },
        {
          "internalType": "address",
          "name": "dst",
          "type": "address"
        },
        {
          "internalType": "uint256",
          "name": "wad",
          "type": "uint256"
        }
      ],
      "name": "transferFrom",
      "outputs": [
        {
          "internalType": "bool",
          "name": "",
          "type": "bool"
        }
      ],
      "payable": false,
      "stateMutability": "nonpayable",
      "type": "function"
    },
    {
      "constant": true,
      "inputs": [
        {
          "internalType": "address",
          "name": "whom",
          "type": "address"
        }
      ],
      "name": "balanceOf",
      "outputs": [
        {
          "internalType": "uint256",
          "name": "",
          "type": "uint256"
        }
      ],
      "payable": false,
      "stateMutability": "view",
      "type": "function"
    },
    {
      "constant": true,
      "inputs": [],
      "name": "MIN_FEE",
      "outputs": [
        {
          "internalType": "uint256",
          "name": "",
          "type": "uint256"
        }
      ],
      "payable": false,
      "stateMutability": "view",
      "type": "function"
    },
    {
      "constant": true,
      "inputs": [],
      "name": "MIN_BALANCE",
      "outputs": [
        {
          "internalType": "uint256",
          "name": "",
          "type": "uint256"
        }
      ],
      "payable": false,
      "stateMutability": "view",
      "type": "function"
    },
    {
      "constant": true,
      "inputs": [],
      "name": "getColor",
      "outputs": [
        {
          "internalType": "bytes32",
          "name": "",
          "type": "bytes32"
        }
      ],
      "payable": false,
      "stateMutability": "view",
      "type": "function"
    },
    {
      "constant": false,
      "inputs": [
        {
          "internalType": "address",
          "name": "dst",
          "type": "address"
        },
        {
          "internalType": "uint256",
          "name": "wad",
          "type": "uint256"
        }
      ],
      "name": "transfer",
      "outputs": [
        {
          "internalType": "bool",
          "name": "",
          "type": "bool"
        }
      ],
      "payable": false,
      "stateMutability": "nonpayable",
      "type": "function"
    },
    {
      "constant": true,
      "inputs": [],
      "name": "MAX_FEE",
      "outputs": [
        {
          "internalType": "uint256",
          "name": "",
          "type": "uint256"
        }
      ],
      "payable": false,
      "stateMutability": "view",
      "type": "function"
    },
    {
      "constant": true,
      "inputs": [
        {
          "internalType": "address",
          "name": "src",
          "type": "address"
        },
        {
          "internalType": "address",
          "name": "guy",
          "type": "address"
        }
      ],
      "name": "allowance",
      "outputs": [
        {
          "internalType": "uint256",
          "name": "",
          "type": "uint256"
        }
      ],
      "payable": false,
      "stateMutability": "view",
      "type": "function"
    },
    {
      "constant": true,
      "inputs": [],
      "name": "MAX_BALANCE",
      "outputs": [
        {
          "internalType": "uint256",
          "name": "",
          "type": "uint256"
        }
      ],
      "payable": false,
      "stateMutability": "view",
      "type": "function"
    },
    {
      "constant": true,
      "inputs": [],
      "name": "MAX_WEIGHT",
      "outputs": [
        {
          "internalType": "uint256",
          "name": "",
          "type": "uint256"
        }
      ],
      "payable": false,
      "stateMutability": "view",
      "type": "function"
    },
    {
      "inputs": [],
      "payable": false,
      "stateMutability": "nonpayable",
      "type": "constructor"
    },
    {
      "anonymous": false,
      "inputs": [
        {
          "indexed": true,
          "internalType": "address",
          "name": "caller",
          "type": "address"
        },
        {
          "indexed": true,
          "internalType": "address",
          "name": "tokenIn",
          "type": "address"
        },
        {
          "indexed": true,
          "internalType": "address",
          "name": "tokenOut",
          "type": "address"
        },
        {
          "indexed": false,
          "internalType": "uint256",
          "name": "amountIn",
          "type": "uint256"
        },
        {
          "indexed": false,
          "internalType": "uint256",
          "name": "amountOut",
          "type": "uint256"
        }
      ],
      "name": "LOG_SWAP",
      "type": "event"
    },
    {
      "anonymous": true,
      "inputs": [
        {
          "indexed": true,
          "internalType": "bytes4",
          "name": "sig",
          "type": "bytes4"
        },
        {
          "indexed": true,
          "internalType": "address",
          "name": "caller",
          "type": "address"
        },
        {
          "indexed": false,
          "internalType": "bytes",
          "name": "data",
          "type": "bytes"
        }
      ],
      "name": "LOG_CALL",
      "type": "event"
    },
    {
      "anonymous": false,
      "inputs": [
        {
          "indexed": true,
          "internalType": "address",
          "name": "src",
          "type": "address"
        },
        {
          "indexed": true,
          "internalType": "address",
          "name": "guy",
          "type": "address"
        },
        {
          "indexed": false,
          "internalType": "uint256",
          "name": "wad",
          "type": "uint256"
        }
      ],
      "name": "Approval",
      "type": "event"
    },
    {
      "anonymous": false,
      "inputs": [
        {
          "indexed": true,
          "internalType": "address",
          "name": "src",
          "type": "address"
        },
        {
          "indexed": true,
          "internalType": "address",
          "name": "dst",
          "type": "address"
        },
        {
          "indexed": false,
          "internalType": "uint256",
          "name": "wad",
          "type": "uint256"
        }
      ],
      "name": "Transfer",
      "type": "event"
    },
    {
      "anonymous": false,
      "inputs": [
        {
          "indexed": false,
          "internalType": "uint256",
          "name": "amt",
          "type": "uint256"
        }
      ],
      "name": "Mint",
      "type": "event"
    },
    {
      "anonymous": false,
      "inputs": [
        {
          "indexed": false,
          "internalType": "uint256",
          "name": "amt",
          "type": "uint256"
        }
      ],
      "name": "Burn",
      "type": "event"
    },
    {
      "anonymous": false,
      "inputs": [
        {
          "indexed": true,
          "internalType": "address",
          "name": "src",
          "type": "address"
        },
        {
          "indexed": true,
          "internalType": "address",
          "name": "dst",
          "type": "address"
        },
        {
          "indexed": false,
          "internalType": "uint256",
          "name": "amt",
          "type": "uint256"
        }
      ],
      "name": "Move",
      "type": "event"
    },
    {
      "constant": true,
      "inputs": [],
      "name": "isSwapPublic",
      "outputs": [
        {
          "internalType": "bool",
          "name": "",
          "type": "bool"
        }
      ],
      "payable": false,
      "stateMutability": "view",
      "type": "function"
    },
    {
      "constant": true,
      "inputs": [],
      "name": "isJoinPublic",
      "outputs": [
        {
          "internalType": "bool",
          "name": "",
          "type": "bool"
        }
      ],
      "payable": false,
      "stateMutability": "view",
      "type": "function"
    },
    {
      "constant": true,
      "inputs": [],
      "name": "isFinalized",
      "outputs": [
        {
          "internalType": "bool",
          "name": "",
          "type": "bool"
        }
      ],
      "payable": false,
      "stateMutability": "view",
      "type": "function"
    },
    {
      "constant": true,
      "inputs": [
        {
          "internalType": "address",
          "name": "t",
          "type": "address"
        }
      ],
      "name": "isBound",
      "outputs": [
        {
          "internalType": "bool",
          "name": "",
          "type": "bool"
        }
      ],
      "payable": false,
      "stateMutability": "view",
      "type": "function"
    },
    {
      "constant": true,
      "inputs": [],
      "name": "getNumTokens",
      "outputs": [
        {
          "internalType": "uint256",
          "name": "",
          "type": "uint256"
        }
      ],
      "payable": false,
      "stateMutability": "view",
      "type": "function"
    },
    {
      "constant": true,
      "inputs": [],
      "name": "getCurrentTokens",
      "outputs": [
        {
          "internalType": "address[]",
          "name": "tokens",
          "type": "address[]"
        }
      ],
      "payable": false,
      "stateMutability": "view",
      "type": "function"
    },
    {
      "constant": true,
      "inputs": [],
      "name": "getFinalTokens",
      "outputs": [
        {
          "internalType": "address[]",
          "name": "tokens",
          "type": "address[]"
        }
      ],
      "payable": false,
      "stateMutability": "view",
      "type": "function"
    },
    {
      "constant": true,
      "inputs": [
        {
          "internalType": "address",
          "name": "token",
          "type": "address"
        }
      ],
      "name": "getDenormalizedWeight",
      "outputs": [
        {
          "internalType": "uint256",
          "name": "",
          "type": "uint256"
        }
      ],
      "payable": false,
      "stateMutability": "view",
      "type": "function"
    },
    {
      "constant": true,
      "inputs": [],
      "name": "getTotalDenormalizedWeight",
      "outputs": [
        {
          "internalType": "uint256",
          "name": "",
          "type": "uint256"
        }
      ],
      "payable": false,
      "stateMutability": "view",
      "type": "function"
    },
    {
      "constant": true,
      "inputs": [
        {
          "internalType": "address",
          "name": "token",
          "type": "address"
        }
      ],
      "name": "getNormalizedWeight",
      "outputs": [
        {
          "internalType": "uint256",
          "name": "",
          "type": "uint256"
        }
      ],
      "payable": false,
      "stateMutability": "view",
      "type": "function"
    },
    {
      "constant": true,
      "inputs": [
        {
          "internalType": "address",
          "name": "token",
          "type": "address"
        }
      ],
      "name": "getBalance",
      "outputs": [
        {
          "internalType": "uint256",
          "name": "",
          "type": "uint256"
        }
      ],
      "payable": false,
      "stateMutability": "view",
      "type": "function"
    },
    {
      "constant": true,
      "inputs": [],
      "name": "getFees",
      "outputs": [
        {
          "internalType": "uint256",
          "name": "",
          "type": "uint256"
        },
        {
          "internalType": "uint256",
          "name": "",
          "type": "uint256"
        }
      ],
      "payable": false,
      "stateMutability": "view",
      "type": "function"
    },
    {
      "constant": true,
      "inputs": [],
      "name": "getController",
      "outputs": [
        {
          "internalType": "address",
          "name": "",
          "type": "address"
        }
      ],
      "payable": false,
      "stateMutability": "view",
      "type": "function"
    },
    {
      "constant": false,
      "inputs": [
        {
          "internalType": "uint256",
          "name": "swapFee",
          "type": "uint256"
        },
        {
          "internalType": "uint256",
          "name": "exitFee",
          "type": "uint256"
        }
      ],
      "name": "setFees",
      "outputs": [],
      "payable": false,
      "stateMutability": "nonpayable",
      "type": "function"
    },
    {
      "constant": false,
      "inputs": [
        {
          "internalType": "address",
          "name": "manager",
          "type": "address"
        }
      ],
      "name": "setController",
      "outputs": [],
      "payable": false,
      "stateMutability": "nonpayable",
      "type": "function"
    },
    {
      "constant": false,
      "inputs": [
        {
          "internalType": "bool",
          "name": "public_",
          "type": "bool"
        }
      ],
      "name": "setSwapAccess",
      "outputs": [],
      "payable": false,
      "stateMutability": "nonpayable",
      "type": "function"
    },
    {
      "constant": false,
      "inputs": [
        {
          "internalType": "bool",
          "name": "public_",
          "type": "bool"
        }
      ],
      "name": "setJoinAccess",
      "outputs": [],
      "payable": false,
      "stateMutability": "nonpayable",
      "type": "function"
    },
    {
      "constant": false,
      "inputs": [
        {
          "internalType": "uint256",
          "name": "initSupply",
          "type": "uint256"
        }
      ],
      "name": "finalize",
      "outputs": [],
      "payable": false,
      "stateMutability": "nonpayable",
      "type": "function"
    },
    {
      "constant": false,
      "inputs": [
        {
          "internalType": "address",
          "name": "token",
          "type": "address"
        },
        {
          "internalType": "uint256",
          "name": "balance",
          "type": "uint256"
        },
        {
          "internalType": "uint256",
          "name": "denorm",
          "type": "uint256"
        }
      ],
      "name": "bind",
      "outputs": [],
      "payable": false,
      "stateMutability": "nonpayable",
      "type": "function"
    },
    {
      "constant": false,
      "inputs": [
        {
          "internalType": "address",
          "name": "token",
          "type": "address"
        },
        {
          "internalType": "uint256",
          "name": "balance",
          "type": "uint256"
        },
        {
          "internalType": "uint256",
          "name": "denorm",
          "type": "uint256"
        }
      ],
      "name": "rebind",
      "outputs": [],
      "payable": false,
      "stateMutability": "nonpayable",
      "type": "function"
    },
    {
      "constant": false,
      "inputs": [
        {
          "internalType": "address",
          "name": "token",
          "type": "address"
        }
      ],
      "name": "unbind",
      "outputs": [],
      "payable": false,
      "stateMutability": "nonpayable",
      "type": "function"
    },
    {
      "constant": false,
      "inputs": [
        {
          "internalType": "address",
          "name": "token",
          "type": "address"
        }
      ],
      "name": "gulp",
      "outputs": [],
      "payable": false,
      "stateMutability": "nonpayable",
      "type": "function"
    },
    {
      "constant": false,
      "inputs": [],
      "name": "collect",
      "outputs": [
        {
          "internalType": "uint256",
          "name": "collected",
          "type": "uint256"
        }
      ],
      "payable": false,
      "stateMutability": "nonpayable",
      "type": "function"
    },
    {
      "constant": true,
      "inputs": [
        {
          "internalType": "address",
          "name": "Ti",
          "type": "address"
        },
        {
          "internalType": "address",
          "name": "To",
          "type": "address"
        }
      ],
      "name": "getSpotPrice",
      "outputs": [
        {
          "internalType": "uint256",
          "name": "P",
          "type": "uint256"
        }
      ],
      "payable": false,
      "stateMutability": "view",
      "type": "function"
    },
    {
      "constant": true,
      "inputs": [
        {
          "internalType": "address",
          "name": "Ti",
          "type": "address"
        },
        {
          "internalType": "address",
          "name": "To",
          "type": "address"
        }
      ],
      "name": "getSpotRate",
      "outputs": [
        {
          "internalType": "uint256",
          "name": "R",
          "type": "uint256"
        }
      ],
      "payable": false,
      "stateMutability": "view",
      "type": "function"
    },
    {
      "constant": true,
      "inputs": [
        {
          "internalType": "address",
          "name": "Ti",
          "type": "address"
        },
        {
          "internalType": "address",
          "name": "To",
          "type": "address"
        }
      ],
      "name": "getSpotPriceSansFee",
      "outputs": [
        {
          "internalType": "uint256",
          "name": "P",
          "type": "uint256"
        }
      ],
      "payable": false,
      "stateMutability": "view",
      "type": "function"
    },
    {
      "constant": true,
      "inputs": [
        {
          "internalType": "address",
          "name": "Ti",
          "type": "address"
        },
        {
          "internalType": "address",
          "name": "To",
          "type": "address"
        }
      ],
      "name": "getSpotRateSansFee",
      "outputs": [
        {
          "internalType": "uint256",
          "name": "P",
          "type": "uint256"
        }
      ],
      "payable": false,
      "stateMutability": "view",
      "type": "function"
    },
    {
      "constant": false,
      "inputs": [
        {
          "internalType": "uint256",
          "name": "poolAo",
          "type": "uint256"
        }
      ],
      "name": "joinPool",
      "outputs": [],
      "payable": false,
      "stateMutability": "nonpayable",
      "type": "function"
    },
    {
      "constant": false,
      "inputs": [
        {
          "internalType": "uint256",
          "name": "poolAi",
          "type": "uint256"
        }
      ],
      "name": "exitPool",
      "outputs": [],
      "payable": false,
      "stateMutability": "nonpayable",
      "type": "function"
    },
    {
      "constant": false,
      "inputs": [
        {
          "internalType": "address",
          "name": "Ti",
          "type": "address"
        },
        {
          "internalType": "uint256",
          "name": "Ai",
          "type": "uint256"
        },
        {
          "internalType": "address",
          "name": "To",
          "type": "address"
        },
        {
          "internalType": "uint256",
          "name": "Lo",
          "type": "uint256"
        },
        {
          "internalType": "uint256",
          "name": "LP",
          "type": "uint256"
        }
      ],
      "name": "swap_ExactAmountIn",
      "outputs": [
        {
          "internalType": "uint256",
          "name": "Ao",
          "type": "uint256"
        },
        {
          "internalType": "uint256",
          "name": "MP",
          "type": "uint256"
        }
      ],
      "payable": false,
      "stateMutability": "nonpayable",
      "type": "function"
    },
    {
      "constant": false,
      "inputs": [
        {
          "internalType": "address",
          "name": "Ti",
          "type": "address"
        },
        {
          "internalType": "uint256",
          "name": "Li",
          "type": "uint256"
        },
        {
          "internalType": "address",
          "name": "To",
          "type": "address"
        },
        {
          "internalType": "uint256",
          "name": "Ao",
          "type": "uint256"
        },
        {
          "internalType": "uint256",
          "name": "PL",
          "type": "uint256"
        }
      ],
      "name": "swap_ExactAmountOut",
      "outputs": [
        {
          "internalType": "uint256",
          "name": "Ai",
          "type": "uint256"
        },
        {
          "internalType": "uint256",
          "name": "MP",
          "type": "uint256"
        }
      ],
      "payable": false,
      "stateMutability": "nonpayable",
      "type": "function"
    },
    {
      "constant": false,
      "inputs": [
        {
          "internalType": "address",
          "name": "Ti",
          "type": "address"
        },
        {
          "internalType": "uint256",
          "name": "Li",
          "type": "uint256"
        },
        {
          "internalType": "address",
          "name": "To",
          "type": "address"
        },
        {
          "internalType": "uint256",
          "name": "Lo",
          "type": "uint256"
        },
        {
          "internalType": "uint256",
          "name": "MP",
          "type": "uint256"
        }
      ],
      "name": "swap_ExactMarginalPrice",
      "outputs": [
        {
          "internalType": "uint256",
          "name": "Ai",
          "type": "uint256"
        },
        {
          "internalType": "uint256",
          "name": "Ao",
          "type": "uint256"
        }
      ],
      "payable": false,
      "stateMutability": "nonpayable",
      "type": "function"
    },
    {
      "constant": false,
      "inputs": [
        {
          "internalType": "address",
          "name": "Ti",
          "type": "address"
        },
        {
          "internalType": "uint256",
          "name": "tAi",
          "type": "uint256"
        }
      ],
      "name": "joinswap_ExternAmountIn",
      "outputs": [
        {
          "internalType": "uint256",
          "name": "poolAo",
          "type": "uint256"
        }
      ],
      "payable": false,
      "stateMutability": "nonpayable",
      "type": "function"
    },
    {
      "constant": false,
      "inputs": [
        {
          "internalType": "uint256",
          "name": "pAo",
          "type": "uint256"
        },
        {
          "internalType": "address",
          "name": "Ti",
          "type": "address"
        }
      ],
      "name": "joinswap_PoolAmountOut",
      "outputs": [
        {
          "internalType": "uint256",
          "name": "tAi",
          "type": "uint256"
        }
      ],
      "payable": false,
      "stateMutability": "nonpayable",
      "type": "function"
    },
    {
      "constant": false,
      "inputs": [
        {
          "internalType": "uint256",
          "name": "pAi",
          "type": "uint256"
        },
        {
          "internalType": "address",
          "name": "To",
          "type": "address"
        }
      ],
      "name": "exitswap_PoolAmountIn",
      "outputs": [
        {
          "internalType": "uint256",
          "name": "tAo",
          "type": "uint256"
        }
      ],
      "payable": false,
      "stateMutability": "nonpayable",
      "type": "function"
    },
    {
      "constant": false,
      "inputs": [
        {
          "internalType": "address",
          "name": "To",
          "type": "address"
        },
        {
          "internalType": "uint256",
          "name": "tAo",
          "type": "uint256"
        }
      ],
      "name": "exitswap_ExternAmountOut",
      "outputs": [
        {
          "internalType": "uint256",
          "name": "pAi",
          "type": "uint256"
        }
      ],
      "payable": false,
      "stateMutability": "nonpayable",
      "type": "function"
    }
  ],
  "bytecode": "0x608060405234801561001057600080fd5b506004805433600160a060020a03199091168117909155600380547fffffffffffffffff0000000000000000000000000000000000000000ffffffff166401000000009092029190911763ffffff001916905561611280620000736000396000f3fe608060405234801561001057600080fd5b50600436106102f3576000357c0100000000000000000000000000000000000000000000000000000000900480638d4e40831161019f578063cd2ed8fb11610106578063e4a28a52116100bf578063f1b8a9b711610099578063f1b8a9b7146108f2578063f27af5d114610918578063f8b2cb4f14610937578063ff4a1db11461095d576102f3565b8063e4a28a5214610357578063e4e1e538146108b8578063e5225381146108ea576102f3565b8063cd2ed8fb1461080c578063ce1d477d14610814578063cf5e7bd314610854578063db8d55f11461087a578063dd62ed3e14610882578063def92c69146108b0576102f3565b8063a9059cbb11610158578063a9059cbb1461072f578063bc063e1a1461075b578063be1d24ad14610763578063be3bbd2e14610780578063c83d529e146107d8578063cc77828d14610804576102f3565b80638d4e40831461069d57806392eefe9b146106a5578063936c3477146106cb578063948d8ce6146106d3578063990e784a146106f95780639a86139b14610727576102f3565b80633018205f1161025e5780635718db491161021757806370a08231116101f157806370a082311461064157806376c7a3c714610667578063867378c51461066f5780638c28cbe814610677576102f3565b80635718db491461058957806362fd7942146105e257806370080c6314610622576102f3565b80633018205f146104b657806332476e83146104da57806334e7a19f146104e25780633fdddaa2146104ff578063483605e8146105315780634b0f9faa1461055d576102f3565b806315e84af9116102b057806315e84af9146103f057806318160ddd1461041e5780631ecc61bc14610426578063218b53821461045257806323b872dd1461045a5780632f37b62414610490576102f3565b806305261aea146102f8578063095ea7b31461031757806309a3bbe4146103575780630b78f9c0146103715780631446a7ff14610394578063156e38cd146103c2575b600080fd5b6103156004803603602081101561030e57600080fd5b5035610965565b005b6103436004803603604081101561032d57600080fd5b50600160a060020a038135169060200135610c66565b604080519115158252519081900360200190f35b61035f610ccb565b60408051918252519081900360200190f35b6103156004803603604081101561038757600080fd5b5080359060200135610cd8565b61035f600480360360408110156103aa57600080fd5b50600160a060020a0381358116916020013516610f74565b61035f600480360360408110156103d857600080fd5b50600160a060020a038135811691602001351661103c565b61035f6004803603604081101561040657600080fd5b50600160a060020a03813581169160200135166110fb565b61035f611187565b61035f6004803603604081101561043c57600080fd5b5080359060200135600160a060020a031661118d565b61035f611370565b6103436004803603606081101561047057600080fd5b50600160a060020a0381358116916020810135909116906040013561137c565b610343600480360360208110156104a657600080fd5b5035600160a060020a03166114fa565b6104be611517565b60408051600160a060020a039092168252519081900360200190f35b6103436115a2565b610315600480360360208110156104f857600080fd5b50356115b0565b6103156004803603606081101561051557600080fd5b50600160a060020a038135169060208101359060400135611810565b61035f6004803603604081101561054757600080fd5b50600160a060020a038135169060200135611e16565b61035f6004803603604081101561057357600080fd5b50600160a060020a038135169060200135611ffe565b6105c9600480360360a081101561059f57600080fd5b50600160a060020a03813581169160208101359160408201351690606081013590608001356121f7565b6040805192835260208301919091528051918290030190f35b6105c9600480360360a08110156105f857600080fd5b50600160a060020a03813581169160208101359160408201351690606081013590608001356127b6565b6103156004803603602081101561063857600080fd5b50351515612d64565b61035f6004803603602081101561065757600080fd5b5035600160a060020a0316612f6a565b61035f612f85565b61035f612f96565b6103156004803603602081101561068d57600080fd5b5035600160a060020a0316612fa8565b6103436131c0565b610315600480360360208110156106bb57600080fd5b5035600160a060020a03166131d0565b61035f613372565b61035f600480360360208110156106e957600080fd5b5035600160a060020a03166133f4565b61035f6004803603604081101561070f57600080fd5b50600160a060020a038135811691602001351661350b565b61035f613590565b6103436004803603604081101561074557600080fd5b50600160a060020a0381351690602001356135b4565b61035f61360a565b6103156004803603602081101561077957600080fd5b503561361a565b61078861387a565b60408051602080825283518183015283519192839290830191858101910280838360005b838110156107c45781810151838201526020016107ac565b505050509050019250505060405180910390f35b61035f600480360360408110156107ee57600080fd5b5080359060200135600160a060020a03166139e6565b610788613bb6565b61035f613c30565b6105c9600480360360a081101561082a57600080fd5b50600160a060020a0381358116916020810135916040820135169060608101359060800135613c36565b6103156004803603602081101561086a57600080fd5b5035600160a060020a03166141e5565b6105c961456f565b61035f6004803603604081101561089857600080fd5b50600160a060020a03813581169160200135166145fb565b61035f614624565b610315600480360360608110156108ce57600080fd5b50600160a060020a038135169060208101359060400135614635565b61035f6149d6565b61035f6004803603602081101561090857600080fd5b5035600160a060020a0316614b97565b6103156004803603602081101561092e57600080fd5b50351515614cb9565b61035f6004803603602081101561094d57600080fd5b5035600160a060020a0316614ebd565b610343614fd4565b33600160a060020a0316600035600160e060020a031916600160e060020a03191660003660405180806020018281038252848482818152602001925080828437600083820152604051601f909101601f19169092018290039550909350505050a260035460408051808201909152600b815260008051602061605e83398151915260208201529060ff1615610a7b5760405160e560020a62461bcd0281526004018080602001828103825283818151815260200191508051906020019080838360005b83811015610a40578181015183820152602001610a28565b50505050905090810190601f168015610a6d5780820380516001836020036101000a031916815260200191505b509250505060405180910390fd5b506003805460ff19166001179055600454604080518082019091526012815260008051602061607e83398151915260208201529033600160a060020a0390911614610b0a5760405160e560020a62461bcd028152602060048201818152835160248401528351909283926044909101919085019080838360008315610a40578181015183820152602001610a28565b5060035460408051808201909152601081526000805160206160be8339815191526020820152906301000000900460ff1615610b8a5760405160e560020a62461bcd028152602060048201818152835160248401528351909283926044909101919085019080838360008315610a40578181015183820152602001610a28565b5060408051808201909152600f81527f4552525f4d41585f42414c414e434500000000000000000000000000000000006020820152670de0b6b3a7640000821015610c195760405160e560020a62461bcd028152602060048201818152835160248401528351909283926044909101919085019080838360008315610a40578181015183820152602001610a28565b506003805462ff00001961ff001963ff0000001990921663010000001791909116610100171662010000179055610c4f81614fe3565b610c593382614fef565b506003805460ff19169055565b33600081815260208181526040808320600160a060020a038716808552908352818420869055815186815291519394909390927f8c5be1e5ebec7d5bd14f71427d1e84f3dd0314c0f7b2291e5b200ac8c7c3b925928290030190a35060015b92915050565b6802b5e3af16b188000081565b33600160a060020a0316600035600160e060020a031916600160e060020a03191660003660405180806020018281038252848482818152602001925080828437600083820152604051601f909101601f19169092018290039550909350505050a260035460408051808201909152600b815260008051602061605e83398151915260208201529060ff1615610db15760405160e560020a62461bcd028152602060048201818152835160248401528351909283926044909101919085019080838360008315610a40578181015183820152602001610a28565b506003805460ff19166001179055600454604080518082019091526012815260008051602061607e83398151915260208201529033600160a060020a0390911614610e405760405160e560020a62461bcd028152602060048201818152835160248401528351909283926044909101919085019080838360008315610a40578181015183820152602001610a28565b5060408051808201909152600b81527f4552525f4d41585f464545000000000000000000000000000000000000000000602082015267016345785d8a0000831115610ecf5760405160e560020a62461bcd028152602060048201818152835160248401528351909283926044909101919085019080838360008315610a40578181015183820152602001610a28565b5060408051808201909152600b81527f4552525f4d41585f464545000000000000000000000000000000000000000000602082015267016345785d8a0000821115610f5e5760405160e560020a62461bcd028152602060048201818152835160248401528351909283926044909101919085019080838360008315610a40578181015183820152602001610a28565b506005919091556006556003805460ff19169055565b60035460408051808201909152600b815260008051602061605e833981519152602082015260009160ff1615610fee5760405160e560020a62461bcd028152602060048201818152835160248401528351909283926044909101919085019080838360008315610a40578181015183820152602001610a28565b50600160a060020a0380841660009081526008602052604080822092851682528120600280840154600180860154928401549084015493946110339492939290614ffd565b95945050505050565b60035460408051808201909152600b815260008051602061605e833981519152602082015260009160ff16156110b65760405160e560020a62461bcd028152602060048201818152835160248401528351909283926044909101919085019080838360008315610a40578181015183820152602001610a28565b50600160a060020a0380841660009081526008602052604080822092851682528120600280840154600180860154928401549084015493946110339492939290615067565b60035460408051808201909152600b815260008051602061605e833981519152602082015260009160ff16156111755760405160e560020a62461bcd028152602060048201818152835160248401528351909283926044909101919085019080838360008315610a40578181015183820152602001610a28565b5061118083836150b7565b9392505050565b60025490565b600033600160a060020a0316600035600160e060020a031916600160e060020a03191660003660405180806020018281038252848482818152602001925080828437600083820152604051601f909101601f19169092018290039550909350505050a260035460408051808201909152600b815260008051602061605e83398151915260208201529060ff16156112685760405160e560020a62461bcd028152602060048201818152835160248401528351909283926044909101919085019080838360008315610a40578181015183820152602001610a28565b506003805460ff1916600117905561127f826114fa565b6040518060400160405280600d815260200160008051602061609e833981519152815250906112f25760405160e560020a62461bcd028152602060048201818152835160248401528351909283926044909101919085019080838360008315610a40578181015183820152602001610a28565b50600160a060020a03821660009081526008602052604090206002808201546001830154915460095460055461132c9492919089906150fe565b915061133784614fe3565b6113413385614fef565b61134c8333846151c6565b61135a8160020154836152f1565b6002909101556003805460ff1916905592915050565b670de0b6b3a764000081565b600033600160a060020a03851614806113b65750600160a060020a0384166000908152602081815260408083203384529091529020548211155b61140a576040805160e560020a62461bcd02815260206004820152601560248201527f4552525f42544f4b454e5f4241445f43414c4c45520000000000000000000000604482015290519081900360640190fd5b611415848484615386565b82600160a060020a031684600160a060020a03167fddf252ad1be2c89b69c2b068fc378daa952ba7f163c4a11628f55a4df523b3ef846040518082815260200191505060405180910390a333600160a060020a0385161480159061149c5750600160a060020a03841660009081526020818152604080832033845290915290205460001914155b156114f057600160a060020a0384166000908152602081815260408083203384529091529020546114cd9083615434565b600160a060020a0385166000908152602081815260408083203384529091529020555b5060019392505050565b600160a060020a0316600090815260086020526040902054151590565b60035460408051808201909152600b815260008051602061605e833981519152602082015260009160ff16156115915760405160e560020a62461bcd028152602060048201818152835160248401528351909283926044909101919085019080838360008315610a40578181015183820152602001610a28565b5050600454600160a060020a031690565b600354610100900460ff1690565b33600160a060020a0316600035600160e060020a031916600160e060020a03191660003660405180806020018281038252848482818152602001925080828437600083820152604051601f909101601f19169092018290039550909350505050a260035460408051808201909152600b815260008051602061605e83398151915260208201529060ff16156116895760405160e560020a62461bcd028152602060048201818152835160248401528351909283926044909101919085019080838360008315610a40578181015183820152602001610a28565b506003805460ff19166001179081905560408051808201909152601181527f4552525f4e4f545f46494e414c495a45440000000000000000000000000000006020820152906301000000900460ff166117265760405160e560020a62461bcd028152602060048201818152835160248401528351909283926044909101919085019080838360008315610a40578181015183820152602001610a28565b506000611731611187565b9050600061173f8383615494565b905060005b6007548110156117ed5760006007828154811061175d57fe5b6000918252602080832090910154600160a060020a03168083526008909152604082206002015490925090611792858361566d565b600160a060020a0384166000908152600860205260409020600201549091506117bb90826152f1565b600160a060020a0384166000908152600860205260409020600201556117e28333836151c6565b505050600101611744565b506117f783614fe3565b6118013384614fef565b50506003805460ff1916905550565b33600160a060020a0316600035600160e060020a031916600160e060020a03191660003660405180806020018281038252848482818152602001925080828437600083820152604051601f909101601f19169092018290039550909350505050a260035460408051808201909152600b815260008051602061605e83398151915260208201529060ff16156118e95760405160e560020a62461bcd028152602060048201818152835160248401528351909283926044909101919085019080838360008315610a40578181015183820152602001610a28565b506003805460ff19166001179055600454604080518082019091526012815260008051602061607e83398151915260208201529033600160a060020a03909116146119785760405160e560020a62461bcd028152602060048201818152835160248401528351909283926044909101919085019080838360008315610a40578181015183820152602001610a28565b50611982836114fa565b6040518060400160405280600d815260200160008051602061609e833981519152815250906119f55760405160e560020a62461bcd028152602060048201818152835160248401528351909283926044909101919085019080838360008315610a40578181015183820152602001610a28565b5060035460408051808201909152601081526000805160206160be8339815191526020820152906301000000900460ff1615611a755760405160e560020a62461bcd028152602060048201818152835160248401528351909283926044909101919085019080838360008315610a40578181015183820152602001610a28565b5060408051808201909152600e81527f4552525f4d494e5f5745494748540000000000000000000000000000000000006020820152670de0b6b3a7640000821015611b045760405160e560020a62461bcd028152602060048201818152835160248401528351909283926044909101919085019080838360008315610a40578181015183820152602001610a28565b5060408051808201909152600e81527f4552525f4d41585f57454947485400000000000000000000000000000000000060208201526802b5e3af16b1880000821115611b945760405160e560020a62461bcd028152602060048201818152835160248401528351909283926044909101919085019080838360008315610a40578181015183820152602001610a28565b5060408051808201909152600f81527f4552525f4d494e5f42414c414e43450000000000000000000000000000000000602082015264e8d4a51000831015611c205760405160e560020a62461bcd028152602060048201818152835160248401528351909283926044909101919085019080838360008315610a40578181015183820152602001610a28565b5060408051808201909152600f81527f4552525f4d41585f42414c414e4345000000000000000000000000000000000060208201526c0c9f2c9cd04674edea40000000831115611cb45760405160e560020a62461bcd028152602060048201818152835160248401528351909283926044909101919085019080838360008315610a40578181015183820152602001610a28565b50600160a060020a03831660009081526008602052604090206001015480821115611d8757611cee600954611ce984846157b1565b6152f1565b600981905560408051808201909152601481527f4552525f4d41585f544f54414c5f5745494748540000000000000000000000006020820152906802b5e3af16b188000011611d815760405160e560020a62461bcd028152602060048201818152835160248401528351909283926044909101919085019080838360008315610a40578181015183820152602001610a28565b50611da0565b611d9c600954611d9783856157b1565b6157b1565b6009555b600160a060020a03841660009081526008602052604090206001810183905560020180549084905580841115611de957611de48533611ddf87856157b1565b6151c6565b611e05565b80841015611e0557611e058533611e0084886157b1565b615855565b50506003805460ff19169055505050565b600033600160a060020a0316600035600160e060020a031916600160e060020a03191660003660405180806020018281038252848482818152602001925080828437600083820152604051601f909101601f19169092018290039550909350505050a260035460408051808201909152600b815260008051602061605e83398151915260208201529060ff1615611ef15760405160e560020a62461bcd028152602060048201818152835160248401528351909283926044909101919085019080838360008315610a40578181015183820152602001610a28565b506003805460ff19166001179055611f08836114fa565b6040518060400160405280600d815260200160008051602061609e83398151915281525090611f7b5760405160e560020a62461bcd028152602060048201818152835160248401528351909283926044909101919085019080838360008315610a40578181015183820152602001610a28565b5060028054600160a060020a0385166000908152600860205260409020918201546001830154600954600554939493611fb9939291869189906158c1565b9250611fc483614fe3565b611fce3384614fef565b611fd98533866151c6565b611fe78160020154856152f1565b600290910155506003805460ff1916905592915050565b600033600160a060020a0316600035600160e060020a031916600160e060020a03191660003660405180806020018281038252848482818152602001925080828437600083820152604051601f909101601f19169092018290039550909350505050a260035460408051808201909152600b815260008051602061605e83398151915260208201529060ff16156120d95760405160e560020a62461bcd028152602060048201818152835160248401528351909283926044909101919085019080838360008315610a40578181015183820152602001610a28565b506003805460ff191660011790556120f0836114fa565b6040518060400160405280600d815260200160008051602061609e833981519152815250906121635760405160e560020a62461bcd028152602060048201818152835160248401528351909283926044909101919085019080838360008315610a40578181015183820152602001610a28565b5060006008600085600160a060020a0316600160a060020a03168152602001908152602001600020905060006121ae826002015483600101546002546009548860055460065461595e565b90506121ba33826159ed565b6121c3816159f7565b6121ce853386615855565b6121dc8260020154856157b1565b60029092019190915590506003805460ff1916905592915050565b6040805160208082523690820181905260009283923392600160e060020a03198535169285929081908101848480828437600083820152604051601f909101601f19169092018290039550909350505050a260035460408051808201909152600b815260008051602061605e83398151915260208201529060ff16156122c15760405160e560020a62461bcd028152602060048201818152835160248401528351909283926044909101919085019080838360008315610a40578181015183820152602001610a28565b506003805460ff191660011790556122d8876114fa565b6040518060400160405280600d815260200160008051602061609e8339815191528152509061234b5760405160e560020a62461bcd028152602060048201818152835160248401528351909283926044909101919085019080838360008315610a40578181015183820152602001610a28565b50612355856114fa565b6040518060400160405280600d815260200160008051602061609e833981519152815250906123c85760405160e560020a62461bcd028152602060048201818152835160248401528351909283926044909101919085019080838360008315610a40578181015183820152602001610a28565b506123d16115a2565b6040518060400160405280601381526020017f4552525f535741505f4e4f545f5055424c494300000000000000000000000000815250906124565760405160e560020a62461bcd028152602060048201818152835160248401528351909283926044909101919085019080838360008315610a40578181015183820152602001610a28565b50600160a060020a038088166000908152600860205260408082209288168252902060028082015461249291670de0b6b3a76400005b0461566d565b8311156040518060400160405280601181526020017f4552525f4d41585f4f55545f524154494f0000000000000000000000000000008152509061251a5760405160e560020a62461bcd028152602060048201818152835160248401528351909283926044909101919085019080838360008315610a40578181015183820152602001610a28565b506125258988615a00565b85106040518060400160405280601381526020017f4552525f4152475f4c494d49545f505249434500000000000000000000000000815250906125ac5760405160e560020a62461bcd028152602060048201818152835160248401528351909283926044909101919085019080838360008315610a40578181015183820152602001610a28565b506125cd826002015483600101548360020154846001015489600554615a47565b93506125ef826002015483600101548360020154846001015488600554615ad2565b9250878411156040518060400160405280600c81526020017f4552525f4c494d49545f494e00000000000000000000000000000000000000008152509061267a5760405160e560020a62461bcd028152602060048201818152835160248401528351909283926044909101919085019080838360008315610a40578181015183820152602001610a28565b5060408051808201909152600d81527f4552525f4c494d49545f4f5554000000000000000000000000000000000000006020820152868410156127015760405160e560020a62461bcd028152602060048201818152835160248401528351909283926044909101919085019080838360008315610a40578181015183820152602001610a28565b506127108260020154856152f1565b82600201819055506127268160020154846157b1565b60028201556127368933866151c6565b612741873385615855565b86600160a060020a031689600160a060020a031633600160a060020a03167f908fb5ee8f16c6bc9bc3690973819f32a4d4b10188134543c88706e0e1d433788787604051808381526020018281526020019250505060405180910390a450506003805460ff1916905590969095509350505050565b6040805160208082523690820181905260009283923392600160e060020a03198535169285929081908101848480828437600083820152604051601f909101601f19169092018290039550909350505050a260035460408051808201909152600b815260008051602061605e83398151915260208201529060ff16156128805760405160e560020a62461bcd028152602060048201818152835160248401528351909283926044909101919085019080838360008315610a40578181015183820152602001610a28565b506003805460ff19166001179055612897876114fa565b6040518060400160405280600d815260200160008051602061609e8339815191528152509061290a5760405160e560020a62461bcd028152602060048201818152835160248401528351909283926044909101919085019080838360008315610a40578181015183820152602001610a28565b50612914856114fa565b6040518060400160405280600d815260200160008051602061609e833981519152815250906129875760405160e560020a62461bcd028152602060048201818152835160248401528351909283926044909101919085019080838360008315610a40578181015183820152602001610a28565b506129906115a2565b6040518060400160405280601381526020017f4552525f535741505f4e4f545f5055424c49430000000000000000000000000081525090612a155760405160e560020a62461bcd028152602060048201818152835160248401528351909283926044909101919085019080838360008315610a40578181015183820152602001610a28565b50600160a060020a0380881660009081526008602052604080822092881682529020600280820154612a4f91670de0b6b3a764000061248c565b8611156040518060400160405280601181526020017f4552525f4d41585f4f55545f524154494f00000000000000000000000000000081525090612ad75760405160e560020a62461bcd028152602060048201818152835160248401528351909283926044909101919085019080838360008315610a40578181015183820152602001610a28565b50612ae28988615a00565b85106040518060400160405280601381526020017f4552525f4152475f4c494d49545f50524943450000000000000000000000000081525090612b695760405160e560020a62461bcd028152602060048201818152835160248401528351909283926044909101919085019080838360008315610a40578181015183820152602001610a28565b50612b8a82600201548360010154836002015484600101548a600554615b53565b9350878411156040518060400160405280600c81526020017f4552525f4c494d49545f494e000000000000000000000000000000000000000081525090612c155760405160e560020a62461bcd028152602060048201818152835160248401528351909283926044909101919085019080838360008315610a40578181015183820152602001610a28565b50612c248260020154856152f1565b8260020181905550612c3a8160020154876157b1565b60028201556000612c4b8a89615a00565b9050858110156040518060400160405280600f81526020017f4552525f4c494d49545f5052494345000000000000000000000000000000000081525090612cd65760405160e560020a62461bcd028152602060048201818152835160248401528351909283926044909101919085019080838360008315610a40578181015183820152602001610a28565b50612ce28a33876151c6565b612ced883389615855565b87600160a060020a03168a600160a060020a031633600160a060020a03167f908fb5ee8f16c6bc9bc3690973819f32a4d4b10188134543c88706e0e1d43378888b604051808381526020018281526020019250505060405180910390a4925050506003805460ff1916905590969095509350505050565b33600160a060020a0316600035600160e060020a031916600160e060020a03191660003660405180806020018281038252848482818152602001925080828437600083820152604051601f909101601f19169092018290039550909350505050a260035460408051808201909152600b815260008051602061605e83398151915260208201529060ff1615612e3d5760405160e560020a62461bcd028152602060048201818152835160248401528351909283926044909101919085019080838360008315610a40578181015183820152602001610a28565b506003805460ff19166001179081905560408051808201909152601081526000805160206160be8339815191526020820152906301000000900460ff1615612ec95760405160e560020a62461bcd028152602060048201818152835160248401528351909283926044909101919085019080838360008315610a40578181015183820152602001610a28565b50600454604080518082019091526012815260008051602061607e833981519152602082015290600160a060020a03163314612f495760405160e560020a62461bcd028152602060048201818152835160248401528351909283926044909101919085019080838360008315610a40578181015183820152602001610a28565b506003805460ff19921515620100000262ff00001990911617919091169055565b600160a060020a031660009081526001602052604090205490565b612710670de0b6b3a76400005b0481565b620f4240670de0b6b3a7640000612f92565b33600160a060020a0316600035600160e060020a031916600160e060020a03191660003660405180806020018281038252848482818152602001925080828437600083820152604051601f909101601f19169092018290039550909350505050a260035460408051808201909152600b815260008051602061605e83398151915260208201529060ff16156130815760405160e560020a62461bcd028152602060048201818152835160248401528351909283926044909101919085019080838360008315610a40578181015183820152602001610a28565b506003805460ff19166001179055613098816114fa565b6040518060400160405280600d815260200160008051602061609e8339815191528152509061310b5760405160e560020a62461bcd028152602060048201818152835160248401528351909283926044909101919085019080838360008315610a40578181015183820152602001610a28565b50604080517f70a082310000000000000000000000000000000000000000000000000000000081523060048201529051600160a060020a038316916370a08231916024808301926020929190829003018186803b15801561316b57600080fd5b505afa15801561317f573d6000803e3d6000fd5b505050506040513d602081101561319557600080fd5b5051600160a060020a039091166000908152600860205260409020600201556003805460ff19169055565b6003546301000000900460ff1690565b33600160a060020a0316600035600160e060020a031916600160e060020a03191660003660405180806020018281038252848482818152602001925080828437600083820152604051601f909101601f19169092018290039550909350505050a260035460408051808201909152600b815260008051602061605e83398151915260208201529060ff16156132a95760405160e560020a62461bcd028152602060048201818152835160248401528351909283926044909101919085019080838360008315610a40578181015183820152602001610a28565b506003805460ff19166001179055600454604080518082019091526012815260008051602061607e83398151915260208201529033600160a060020a03909116146133385760405160e560020a62461bcd028152602060048201818152835160248401528351909283926044909101919085019080838360008315610a40578181015183820152602001610a28565b506004805473ffffffffffffffffffffffffffffffffffffffff1916600160a060020a03929092169190911790556003805460ff19169055565b60035460408051808201909152600b815260008051602061605e833981519152602082015260009160ff16156133ec5760405160e560020a62461bcd028152602060048201818152835160248401528351909283926044909101919085019080838360008315610a40578181015183820152602001610a28565b505060095490565b60035460408051808201909152600b815260008051602061605e833981519152602082015260009160ff161561346e5760405160e560020a62461bcd028152602060048201818152835160248401528351909283926044909101919085019080838360008315610a40578181015183820152602001610a28565b50613478826114fa565b6040518060400160405280600d815260200160008051602061609e833981519152815250906134eb5760405160e560020a62461bcd028152602060048201818152835160248401528351909283926044909101919085019080838360008315610a40578181015183820152602001610a28565b5050600160a060020a031660009081526008602052604090206001015490565b60035460408051808201909152600b815260008051602061605e833981519152602082015260009160ff16156135855760405160e560020a62461bcd028152602060048201818152835160248401528351909283926044909101919085019080838360008315610a40578181015183820152602001610a28565b506111808383615a00565b7f42524f4e5a45000000000000000000000000000000000000000000000000000090565b60006135c1338484615386565b604080518381529051600160a060020a0385169133917fddf252ad1be2c89b69c2b068fc378daa952ba7f163c4a11628f55a4df523b3ef9181900360200190a350600192915050565b600a670de0b6b3a7640000612f92565b33600160a060020a0316600035600160e060020a031916600160e060020a03191660003660405180806020018281038252848482818152602001925080828437600083820152604051601f909101601f19169092018290039550909350505050a260035460408051808201909152600b815260008051602061605e83398151915260208201529060ff16156136f35760405160e560020a62461bcd028152602060048201818152835160248401528351909283926044909101919085019080838360008315610a40578181015183820152602001610a28565b506003805460ff19166001179081905560408051808201909152601181527f4552525f4e4f545f46494e414c495a45440000000000000000000000000000006020820152906301000000900460ff166137905760405160e560020a62461bcd028152602060048201818152835160248401528351909283926044909101919085019080838360008315610a40578181015183820152602001610a28565b50600061379b611187565b905060006137a98383615494565b90506137b533846159ed565b6137be836159f7565b60005b60075481101561386a576000600782815481106137da57fe5b6000918252602080832090910154600160a060020a0316808352600890915260408220600201549092509061380f858361566d565b600160a060020a03841660009081526008602052604090206002015490915061383890826157b1565b600160a060020a03841660009081526008602052604090206002015561385f833383615855565b5050506001016137c1565b50506003805460ff191690555050565b60035460408051808201909152600b815260008051602061605e833981519152602082015260609160ff16156138f45760405160e560020a62461bcd028152602060048201818152835160248401528351909283926044909101919085019080838360008315610a40578181015183820152602001610a28565b5060035460408051808201909152601181527f4552525f4e4f545f46494e414c495a45440000000000000000000000000000006020820152906301000000900460ff166139855760405160e560020a62461bcd028152602060048201818152835160248401528351909283926044909101919085019080838360008315610a40578181015183820152602001610a28565b5060078054806020026020016040519081016040528092919081815260200182805480156139dc57602002820191906000526020600020905b8154600160a060020a031681526001909101906020018083116139be575b5050505050905090565b600033600160a060020a0316600035600160e060020a031916600160e060020a03191660003660405180806020018281038252848482818152602001925080828437600083820152604051601f909101601f19169092018290039550909350505050a260035460408051808201909152600b815260008051602061605e83398151915260208201529060ff1615613ac15760405160e560020a62461bcd028152602060048201818152835160248401528351909283926044909101919085019080838360008315610a40578181015183820152602001610a28565b506003805460ff19166001179055613ad8826114fa565b6040518060400160405280600d815260200160008051602061609e83398151915281525090613b4b5760405160e560020a62461bcd028152602060048201818152835160248401528351909283926044909101919085019080838360008315610a40578181015183820152602001610a28565b50600160a060020a038216600090815260086020526040902060028082015460018301549154600954600554600654613b88959392918a91615bc7565b9150613b9433856159ed565b613b9d846159f7565b613ba8833384615855565b61135a8160020154836157b1565b60035460408051808201909152600b815260008051602061605e833981519152602082015260609160ff16156139855760405160e560020a62461bcd028152602060048201818152835160248401528351909283926044909101919085019080838360008315610a40578181015183820152602001610a28565b60075490565b6040805160208082523690820181905260009283923392600160e060020a03198535169285929081908101848480828437600083820152604051601f909101601f19169092018290039550909350505050a260035460408051808201909152600b815260008051602061605e83398151915260208201529060ff1615613d005760405160e560020a62461bcd028152602060048201818152835160248401528351909283926044909101919085019080838360008315610a40578181015183820152602001610a28565b506003805460ff19166001179055613d17876114fa565b6040518060400160405280600d815260200160008051602061609e83398151915281525090613d8a5760405160e560020a62461bcd028152602060048201818152835160248401528351909283926044909101919085019080838360008315610a40578181015183820152602001610a28565b50613d94856114fa565b6040518060400160405280600d815260200160008051602061609e83398151915281525090613e075760405160e560020a62461bcd028152602060048201818152835160248401528351909283926044909101919085019080838360008315610a40578181015183820152602001610a28565b50613e106115a2565b6040518060400160405280601381526020017f4552525f535741505f4e4f545f5055424c49430000000000000000000000000081525090613e955760405160e560020a62461bcd028152602060048201818152835160248401528351909283926044909101919085019080838360008315610a40578181015183820152602001610a28565b50600160a060020a0380881660009081526008602052604080822092881682529020600280830154613ecf91670de0b6b3a764000061248c565b8811156040518060400160405280601081526020017f4552525f4d41585f494e5f524154494f0000000000000000000000000000000081525090613f575760405160e560020a62461bcd028152602060048201818152835160248401528351909283926044909101919085019080838360008315610a40578181015183820152602001610a28565b50613f6289886150b7565b8510156040518060400160405280601081526020017f4552525f4152475f4c494d49545f494e0000000000000000000000000000000081525090613fea5760405160e560020a62461bcd028152602060048201818152835160248401528351909283926044909101919085019080838360008315610a40578181015183820152602001610a28565b5061400b82600201548360010154836002015484600101548c600554615ad2565b9350858410156040518060400160405280600d81526020017f4552525f4c494d49545f4f555400000000000000000000000000000000000000815250906140965760405160e560020a62461bcd028152602060048201818152835160248401528351909283926044909101919085019080838360008315610a40578181015183820152602001610a28565b506140a58260020154896152f1565b82600201819055506140bb8160020154856157b1565b600282015560006140cc8a896150b7565b9050858111156040518060400160405280600f81526020017f4552525f4c494d49545f50524943450000000000000000000000000000000000815250906141575760405160e560020a62461bcd028152602060048201818152835160248401528351909283926044909101919085019080838360008315610a40578181015183820152602001610a28565b506141638a338b6151c6565b61416e883387615855565b87600160a060020a03168a600160a060020a031633600160a060020a03167f908fb5ee8f16c6bc9bc3690973819f32a4d4b10188134543c88706e0e1d433788c89604051808381526020018281526020019250505060405180910390a4925050506003805460ff1916905590969095509350505050565b33600160a060020a0316600035600160e060020a031916600160e060020a03191660003660405180806020018281038252848482818152602001925080828437600083820152604051601f909101601f19169092018290039550909350505050a260035460408051808201909152600b815260008051602061605e83398151915260208201529060ff16156142be5760405160e560020a62461bcd028152602060048201818152835160248401528351909283926044909101919085019080838360008315610a40578181015183820152602001610a28565b506003805460ff19166001179055600454604080518082019091526012815260008051602061607e83398151915260208201529033600160a060020a039091161461434d5760405160e560020a62461bcd028152602060048201818152835160248401528351909283926044909101919085019080838360008315610a40578181015183820152602001610a28565b50614357816114fa565b6040518060400160405280600d815260200160008051602061609e833981519152815250906143ca5760405160e560020a62461bcd028152602060048201818152835160248401528351909283926044909101919085019080838360008315610a40578181015183820152602001610a28565b50600160a060020a0381166000908152600860205260409020600201546143f49082903390615855565b600954600160a060020a03821660009081526008602052604090206001015461441d91906157b1565b600955600160a060020a0381166000908152600860205260409020546007805460001992830192810191908290811061445257fe5b60009182526020909120015460078054600160a060020a03909216918490811061447857fe5b9060005260206000200160006101000a815481600160a060020a030219169083600160a060020a031602179055508160010160086000600785815481106144bb57fe5b6000918252602080832090910154600160a060020a0316835282019290925260400190205560078054806144eb57fe5b600082815260208082208301600019908101805473ffffffffffffffffffffffffffffffffffffffff1916905590920190925560408051606081018252838152808301848152818301858152600160a060020a039890981685526008909352922091518255516001820155925160029093019290925550506003805460ff19169055565b60035460408051808201909152600b815260008051602061605e833981519152602082015260009182919060ff16156145ec5760405160e560020a62461bcd028152602060048201818152835160248401528351909283926044909101919085019080838360008315610a40578181015183820152602001610a28565b50600554600654915091509091565b600160a060020a0391821660009081526020818152604080832093909416825291909152205490565b6c0c9f2c9cd04674edea4000000081565b33600160a060020a0316600035600160e060020a031916600160e060020a03191660003660405180806020018281038252848482818152602001925080828437600083820152604051601f909101601f19169092018290039550909350505050a260035460408051808201909152600b815260008051602061605e83398151915260208201529060ff161561470e5760405160e560020a62461bcd028152602060048201818152835160248401528351909283926044909101919085019080838360008315610a40578181015183820152602001610a28565b506003805460ff19166001179055600454604080518082019091526012815260008051602061607e83398151915260208201529033600160a060020a039091161461479d5760405160e560020a62461bcd028152602060048201818152835160248401528351909283926044909101919085019080838360008315610a40578181015183820152602001610a28565b506147a7836114fa565b156040518060400160405280600c81526020017f4552525f49535f424f554e4400000000000000000000000000000000000000008152509061482d5760405160e560020a62461bcd028152602060048201818152835160248401528351909283926044909101919085019080838360008315610a40578181015183820152602001610a28565b506148366131c0565b156040518060400160405280601081526020016000805160206160be833981519152815250906148aa5760405160e560020a62461bcd028152602060048201818152835160248401528351909283926044909101919085019080838360008315610a40578181015183820152602001610a28565b5060075460408051808201909152600e81527f4552525f4d41585f544f4b454e530000000000000000000000000000000000006020820152906008116149345760405160e560020a62461bcd028152602060048201818152835160248401528351909283926044909101919085019080838360008315610a40578181015183820152602001610a28565b50600780546001808201928390557fa66cc928b5edb82af9bd49922954155ab7b0942694bea4ce44661d9a8736c688909101805473ffffffffffffffffffffffffffffffffffffffff1916600160a060020a03871690811790915560408051606081018252848152600060208083018281528385018381529583526008909152929020905181559051928101929092555160029091015561386a848484611810565b600033600160a060020a0316600035600160e060020a031916600160e060020a03191660003660405180806020018281038252848482818152602001925080828437600083820152604051601f909101601f19169092018290039550909350505050a260035460408051808201909152600b815260008051602061605e83398151915260208201529060ff1615614ab15760405160e560020a62461bcd028152602060048201818152835160248401528351909283926044909101919085019080838360008315610a40578181015183820152602001610a28565b5060038054600160ff19909116179081905560408051808201909152600f81527f4552525f4e4f545f464143544f525900000000000000000000000000000000006020820152906401000000009004600160a060020a03163314614b595760405160e560020a62461bcd028152602060048201818152835160248401528351909283926044909101919085019080838360008315610a40578181015183820152602001610a28565b506003546401000000009004600160a060020a031660008181526001602052604090205490614b889082614fef565b90506003805460ff1916905590565b60035460408051808201909152600b815260008051602061605e833981519152602082015260009160ff1615614c115760405160e560020a62461bcd028152602060048201818152835160248401528351909283926044909101919085019080838360008315610a40578181015183820152602001610a28565b50614c1b826114fa565b6040518060400160405280600d815260200160008051602061609e83398151915281525090614c8e5760405160e560020a62461bcd028152602060048201818152835160248401528351909283926044909101919085019080838360008315610a40578181015183820152602001610a28565b50600160a060020a038216600090815260086020526040902060010154600954611180908290615494565b33600160a060020a0316600035600160e060020a031916600160e060020a03191660003660405180806020018281038252848482818152602001925080828437600083820152604051601f909101601f19169092018290039550909350505050a260035460408051808201909152600b815260008051602061605e83398151915260208201529060ff1615614d925760405160e560020a62461bcd028152602060048201818152835160248401528351909283926044909101919085019080838360008315610a40578181015183820152602001610a28565b506003805460ff19166001179081905560408051808201909152601081526000805160206160be8339815191526020820152906301000000900460ff1615614e1e5760405160e560020a62461bcd028152602060048201818152835160248401528351909283926044909101919085019080838360008315610a40578181015183820152602001610a28565b50600454604080518082019091526012815260008051602061607e833981519152602082015290600160a060020a03163314614e9e5760405160e560020a62461bcd028152602060048201818152835160248401528351909283926044909101919085019080838360008315610a40578181015183820152602001610a28565b506003805460ff199215156101000261ff001990911617919091169055565b60035460408051808201909152600b815260008051602061605e833981519152602082015260009160ff1615614f375760405160e560020a62461bcd028152602060048201818152835160248401528351909283926044909101919085019080838360008315610a40578181015183820152602001610a28565b50614f41826114fa565b6040518060400160405280600d815260200160008051602061609e83398151915281525090614fb45760405160e560020a62461bcd028152602060048201818152835160248401528351909283926044909101919085019080838360008315610a40578181015183820152602001610a28565b5050600160a060020a031660009081526008602052604090206002015490565b60035462010000900460ff1690565b614fec81615c35565b50565b614ff98282615ca5565b5050565b60008061500a8787615494565b905060006150188686615494565b905060006150268383615494565b9050600061504d670de0b6b3a7640000615048670de0b6b3a7640000896157b1565b615494565b9050615059828261566d565b9a9950505050505050505050565b6000806150748585615494565b905060006150828888615494565b905060006150908383615494565b9050600061504d670de0b6b3a76400006150b2670de0b6b3a7640000896157b1565b61566d565b600160a060020a0380831660009081526008602052604080822092841682528120600280840154600180860154928401549084015460055495969561103394929190614ffd565b60008061510b8786615494565b9050600061511987866152f1565b905060006151278289615494565b9050600061513d670de0b6b3a764000085615494565b9050600061514b8383615cb0565b90506000615159828e61566d565b90506000615167828f6157b1565b9050600061517d670de0b6b3a7640000896157b1565b9050600061518b828c61566d565b905060006151a1670de0b6b3a7640000836157b1565b905060006151af8583615494565b9b5050505050505050505050509695505050505050565b604080517f23b872dd000000000000000000000000000000000000000000000000000000008152600160a060020a0384811660048301523060248301526044820184905291516000928616916323b872dd91606480830192602092919082900301818787803b15801561523857600080fd5b505af115801561524c573d6000803e3d6000fd5b505050506040513d602081101561526257600080fd5b505160408051808201909152600f81527f4552525f45524332305f46414c534500000000000000000000000000000000006020820152909150816152ea5760405160e560020a62461bcd028152602060048201818152835160248401528351909283926044909101919085019080838360008315610a40578181015183820152602001610a28565b5050505050565b60408051808201909152601081527f4552525f4144445f4f564552464c4f57000000000000000000000000000000006020820152600090838301908482101561537e5760405160e560020a62461bcd028152602060048201818152835160248401528351909283926044909101919085019080838360008315610a40578181015183820152602001610a28565b509392505050565b600160a060020a0383166000908152600160205260409020546153a99082615434565b600160a060020a0380851660009081526001602052604080822093909355908416815220546153d890826152f1565b600160a060020a0380841660008181526001602090815260409182902094909455805185815290519193928716927fdeb3a6837278f6e9914a507e4d73f08e841d8fca434fb97d4307b3b0d3d6b10592918290030190a3505050565b60008183101561548e576040805160e560020a62461bcd02815260206004820152601460248201527f4552525f42544f4b454e5f554e444552464c4f57000000000000000000000000604482015290519081900360640190fd5b50900390565b60408051808201909152600c81527f4552525f4449565f5a45524f000000000000000000000000000000000000000060208201526000908261551a5760405160e560020a62461bcd028152602060048201818152835160248401528351909283926044909101919085019080838360008315610a40578181015183820152602001610a28565b50670de0b6b3a764000083028315806155435750670de0b6b3a764000084828161554057fe5b04145b6040518060400160405280601081526020017f4552525f4449565f494e5445524e414c00000000000000000000000000000000815250906155c85760405160e560020a62461bcd028152602060048201818152835160248401528351909283926044909101919085019080838360008315610a40578181015183820152602001610a28565b5060408051808201909152601081527f4552525f4449565f494e5445524e414c00000000000000000000000000000000602082015260028404820190828210156156565760405160e560020a62461bcd028152602060048201818152835160248401528351909283926044909101919085019080838360008315610a40578181015183820152602001610a28565b50600084828161566257fe5b049695505050505050565b600082820283158061568757508284828161568457fe5b04145b6040518060400160405280601081526020017f4552525f4d554c5f4f564552464c4f57000000000000000000000000000000008152509061570c5760405160e560020a62461bcd028152602060048201818152835160248401528351909283926044909101919085019080838360008315610a40578181015183820152602001610a28565b5060408051808201909152601081527f4552525f4d554c5f4f564552464c4f570000000000000000000000000000000060208201526706f05b59d3b200008201908282101561579f5760405160e560020a62461bcd028152602060048201818152835160248401528351909283926044909101919085019080838360008315610a40578181015183820152602001610a28565b506000670de0b6b3a764000082615662565b60008060006157c08585615e2b565b9150915080156040518060400160405280601181526020017f4552525f5355425f554e444552464c4f570000000000000000000000000000008152509061584b5760405160e560020a62461bcd028152602060048201818152835160248401528351909283926044909101919085019080838360008315610a40578181015183820152602001610a28565b5090949350505050565b604080517fa9059cbb000000000000000000000000000000000000000000000000000000008152600160a060020a03848116600483015260248201849052915160009286169163a9059cbb91604480830192602092919082900301818787803b15801561523857600080fd5b6000806158ce8786615494565b905060006158e4670de0b6b3a7640000836157b1565b905060006158f6866150b2848861566d565b9050600061590487836157b1565b90508060006159138d836152f1565b90506000615921828f615494565b9050600061592f8289615cb0565b9050600061593d828f61566d565b9050615949818f6157b1565b99505050505050505050509695505050505050565b60008388038161596e828b615494565b9050600061597c828b615cb0565b9050600061598a828b61566d565b9050806000615999828d6157b1565b905060006159af670de0b6b3a76400008f6157b1565b905060006159bd828c61566d565b905060006159d784615048670de0b6b3a76400008e6157b1565b9950505050505050505050979650505050505050565b614ff98282615e50565b614fec81615e5b565b600160a060020a0380831660009081526008602052604080822092841682528120600280840154600180860154928401549084015460055495969561103394929190615067565b600080615a58888888886000615067565b90506000615a668286615494565b90506000615a7887615048898c6152f1565b9050615a95615a878383615cb0565b670de0b6b3a76400006157b1565b9350615aa1848b61566d565b93506000615ab7670de0b6b3a7640000876157b1565b9050615ac38582615494565b9b9a5050505050505050505050565b600080615adf8786615494565b90506000615af5670de0b6b3a7640000856157b1565b9050615b01858261566d565b90506000615b138a6150488c856152f1565b90506000615b218285615cb0565b90506000615b37670de0b6b3a7640000836157b1565b9050615b438a8261566d565b9c9b505050505050505050505050565b600080615b608588615494565b90506000615b6e87866157b1565b90506000615b7c8883615494565b90506000615b8a8285615cb0565b9050615b9e81670de0b6b3a76400006157b1565b9050615bb2670de0b6b3a7640000876157b1565b9450615ac3615bc18c8361566d565b86615494565b600080615bd48887615494565b90506000615be3828787615ecb565b90508088036000615bfc670de0b6b3a764000085615494565b90506000615c13615c0d848d615494565b83615cb0565b90506000615c21828f61566d565b909d039d9c50505050505050505050505050565b30600090815260016020526040902054615c4f90826152f1565b30600090815260016020526040902055600254615c6c90826152f1565b6002556040805182815290517f07883703ed0e86588a40d76551c92f8a4b329e3bf19765e0e6749473c1a846659181900360200190a150565b614ff9308383615386565b60408051808201909152601681527f4552525f42504f575f424153455f544f4f5f48494748000000000000000000006020820152600090671bc16d674ec80000841115615d415760405160e560020a62461bcd028152602060048201818152835160248401528351909283926044909101919085019080838360008315610a40578181015183820152602001610a28565b5060408051808201909152601581527f4552525f42504f575f424153455f544f4f5f4c4f570000000000000000000000602082015283615dc55760405160e560020a62461bcd028152602060048201818152835160248401528351909283926044909101919085019080838360008315610a40578181015183820152602001610a28565b506000615dd183615eff565b90506000615ddf84836157b1565b90506000615df586615df085615f1a565b615f28565b905081615e06579250610cc5915050565b6000615e1487846014615f7f565b9050615e20828261566d565b979650505050505050565b600080828410615e415750508082036000615e49565b505081810360015b9250929050565b614ff9823083615386565b30600090815260016020526040902054615e759082615434565b30600090815260016020526040902055600254615e929082615434565b6002556040805182815290517fb90306ad06b2a6ff86ddc9327db583062895ef6540e62dc50add009db5b356eb9181900360200190a150565b6000670de0b6b3a764000084900381615ee4858361566d565b90506000615ef2828661566d565b9095039695505050505050565b6000670de0b6b3a7640000615f1383615f1a565b0292915050565b670de0b6b3a7640000900490565b60008060028306615f4157670de0b6b3a7640000615f43565b835b90506002830492505b821561118057615f5c848561566d565b93506002830615615f7457615f71818561566d565b90505b600283049250615f4c565b6000828180615f9687670de0b6b3a7640000615e2b565b9092509050670de0b6b3a764000080600060015b88811161604e576000670de0b6b3a764000082029050600080615fde8a615fd985670de0b6b3a76400006157b1565b615e2b565b91509150615ff0876150b2848c61566d565b9650615ffc8784615494565b96508661600b5750505061604e565b8715616015579315935b801561601f579315935b84156160365761602f86886157b1565b9550616043565b61604086886152f1565b95505b505050600101615faa565b5090999850505050505050505056fe4552525f5245454e5452590000000000000000000000000000000000000000004552525f4e4f545f434f4e54524f4c4c455200000000000000000000000000004552525f4e4f545f424f554e44000000000000000000000000000000000000004552525f49535f46494e414c495a454400000000000000000000000000000000a265627a7a72315820dcdd4547155058f3afe8fa1de10b7d0abc1a51e4f6249370ccf2590f35cf3d2464736f6c634300050b0032",
  "source": "// This program is free software: you can redistribute it and/or modify\n// it under the terms of the GNU General Public License as published by\n// the Free Software Foundation, either version 3 of the License, or\n// (at your option) any later version.\n\n// This program is distributed in the hope that it will be useful,\n// but WITHOUT ANY WARRANTY; without even the implied warranty of\n// MERCHANTABILITY or FITNESS FOR A PARTICULAR PURPOSE.  See the\n// GNU General Public License for more details.\n\n// You should have received a copy of the GNU General Public License\n// along with this program.  If not, see <http://www.gnu.org/licenses/>.\n\npragma solidity ^0.5.11;\n\nimport \"contracts/BColor.sol\";\nimport \"contracts/BToken.sol\";\nimport \"contracts/BMath.sol\";\n\ncontract BPool is BBronze, BToken, BMath\n{\n    struct Record {\n        uint index; // private and 1-indexed; 0 is \"unbound\" state.\n        uint denorm;\n        uint balance;\n    }\n\n    event LOG_SWAP( address indexed caller\n                  , address indexed tokenIn\n                  , address indexed tokenOut\n                  , uint256         amountIn\n                  , uint256         amountOut );\n\n    event LOG_CALL( bytes4  indexed sig\n                  , address indexed caller\n                  , bytes           data\n                  ) anonymous;\n\n    modifier _logs_() {\n        emit LOG_CALL(msg.sig, msg.sender, msg.data);\n        _;\n    }\n\n    modifier _lock_() {\n        require( !_mutex, ERR_REENTRY);\n        _mutex = true;\n        _;\n        _mutex = false;\n    }\n\n    modifier _viewlock_() {\n        require( !_mutex, ERR_REENTRY);\n        _;\n    }\n\n    bool                      _mutex;\n\n    bool                      _publicSwap;\n    bool                      _publicJoin;\n    bool                      _finalized;\n\n    address                   _factory;\n    address                   _controller;\n\n    uint                      _swapFee;\n    uint                      _exitFee;\n\n    address[]                 _tokens;\n    mapping(address=>Record)  _records;\n    uint                      _totalWeight;\n\n    constructor() public {\n        _controller = msg.sender;\n        _factory = msg.sender;\n        _publicSwap = false;\n        _publicJoin = false;\n        _finalized = false;\n    }\n\n    function isSwapPublic()\n      public view returns (bool) {\n        return _publicSwap;\n    }\n\n    function isJoinPublic()\n      public view returns (bool) {\n        return _publicJoin;\n    }\n\n    function isFinalized()\n      public view returns (bool) {\n        return _finalized;\n    }\n\n    function isBound(address t) public view returns (bool) {\n        return _records[t].index != 0;\n    }\n\n    function getNumTokens()\n      public view returns (uint) {\n        return _tokens.length;\n    }\n\n    function getCurrentTokens()\n      public view _viewlock_\n        returns (address[] memory tokens)\n    {\n        return _tokens;\n    }\n\n    function getFinalTokens()\n      public view _viewlock_\n        returns (address[] memory tokens)\n    {\n        require(_finalized, ERR_NOT_FINALIZED);\n        return _tokens;\n    }\n\n    function getDenormalizedWeight(address token)\n      public view _viewlock_\n        returns (uint)\n    {\n        require( isBound(token), ERR_NOT_BOUND);\n        return _records[token].denorm;\n    }\n\n    function getTotalDenormalizedWeight()\n      public view _viewlock_\n      returns (uint)\n    {\n        return _totalWeight;\n    }\n\n    function getNormalizedWeight(address token)\n      public view _viewlock_\n      returns (uint)\n    {\n        require( isBound(token), ERR_NOT_BOUND);\n        uint denorm = _records[token].denorm;\n        return bdiv(denorm, _totalWeight);\n    }\n\n    function getBalance(address token)\n      public view _viewlock_\n      returns (uint)\n    {\n        require( isBound(token), ERR_NOT_BOUND);\n        return _records[token].balance;\n    }\n\n    function getFees()\n      public view _viewlock_\n        returns (uint,uint)\n    {\n        return (_swapFee, _exitFee);\n    }\n\n    function getController()\n      public view _viewlock_\n        returns (address) {\n        return _controller;\n    }\n\n    function setFees(uint swapFee, uint exitFee)\n      _logs_\n      _lock_\n      public\n    { \n        require(msg.sender == _controller, ERR_NOT_CONTROLLER);\n        // TODO min fees\n        require(swapFee <= MAX_FEE, ERR_MAX_FEE);\n        require(exitFee <= MAX_FEE, ERR_MAX_FEE);\n        _swapFee = swapFee;\n        _exitFee = exitFee;\n    }\n\n    function setController(address manager)\n      _logs_\n      _lock_\n      public\n    {\n        require(msg.sender == _controller, ERR_NOT_CONTROLLER);\n        _controller = manager;\n    }\n\n    function setSwapAccess(bool public_)\n        _logs_\n        _lock_\n        public\n    {\n        require( ! _finalized, ERR_IS_FINALIZED);\n        require(msg.sender == _controller, ERR_NOT_CONTROLLER);\n        _publicSwap = public_;\n    }\n\n    function setJoinAccess(bool public_)\n        _logs_\n        _lock_\n        public\n    {\n        require( ! _finalized, ERR_IS_FINALIZED);\n        require(msg.sender == _controller, ERR_NOT_CONTROLLER);\n        _publicJoin = public_;\n    }\n\n    function finalize(uint initSupply)\n      _logs_\n      _lock_\n      public\n    {\n        require(msg.sender == _controller, ERR_NOT_CONTROLLER);\n        require( !_finalized, ERR_IS_FINALIZED);\n        require(initSupply >= MIN_POOL_SUPPLY, ERR_MIN_POOL_SUPPLY);\n\n        _finalized = true;\n        _publicSwap = true;\n        _publicJoin = true;\n\n        _mintPoolShare(initSupply);\n        _pushPoolShare(msg.sender, initSupply);\n    }\n\n\n    function bind(address token, uint balance, uint denorm)\n      _logs_\n      _lock_\n      public\n    {\n        require(msg.sender == _controller, ERR_NOT_CONTROLLER);\n        require( ! isBound(token), ERR_IS_BOUND);\n        require( ! isFinalized(), ERR_IS_FINALIZED);\n\n        require(_tokens.length < MAX_BOUND_TOKENS, ERR_MAX_TOKENS);\n\n        uint length = _tokens.push(token);\n        _records[token] = Record({\n            index: length // 1-indexed (0 is 'unbound' state)\n          , denorm: 0    // balance and denorm will be validated\n          , balance: 0   // and set by `rebind`\n        });\n        rebind(token, balance, denorm);\n    }\n\n    function rebind(address token, uint balance, uint denorm)\n      _logs_\n      _lock_\n      public\n    {\n        require(msg.sender == _controller, ERR_NOT_CONTROLLER);\n        require(isBound(token), ERR_NOT_BOUND);\n        require( ! _finalized, ERR_IS_FINALIZED);\n\n        require(denorm >= MIN_WEIGHT, ERR_MIN_WEIGHT);\n        require(denorm <= MAX_WEIGHT, ERR_MAX_WEIGHT);\n        require(balance >= MIN_BALANCE, ERR_MIN_BALANCE);\n        require(balance <= MAX_BALANCE, ERR_MAX_BALANCE);\n\n        uint oldWeight = _records[token].denorm;\n        if (denorm > oldWeight) {\n            _totalWeight = badd(_totalWeight, bsub(denorm, oldWeight));\n            require( _totalWeight < MAX_TOTAL_WEIGHT, ERR_MAX_TOTAL_WEIGHT );\n        } else {\n            _totalWeight = bsub(_totalWeight, bsub(oldWeight, denorm));\n        }        \n        _records[token].denorm = denorm;\n\n        uint oldBalance = _records[token].balance;\n        _records[token].balance = balance;\n\n        if (balance > oldBalance) {\n            _pullUnderlying(token, msg.sender, bsub(balance, oldBalance));\n        } else if( balance < oldBalance) {\n            _pushUnderlying(token, msg.sender, bsub(oldBalance, balance));\n        }\n    }\n\n    function unbind(address token)\n        _logs_\n        _lock_\n        public\n    {\n        require(msg.sender == _controller, ERR_NOT_CONTROLLER);\n        require(isBound(token), ERR_NOT_BOUND);\n\n        _pushUnderlying(token, msg.sender, _records[token].balance);\n        _totalWeight = bsub(_totalWeight, _records[token].denorm);\n\n        // Swap the token-to-unbind with the last token,\n        // then delete the last token\n        uint index = _records[token].index - 1;\n        uint last = _tokens.length - 1;\n        _tokens[index] = _tokens[last];\n        _records[_tokens[index]].index = index + 1;\n        _tokens.pop();\n        _records[token] = Record({\n            index: 0\n          , denorm: 0\n          , balance: 0\n        });\n    }\n\n    // Absorb any tokens that have been sent to this contract into the pool\n    function gulp(address token)\n      _logs_\n      _lock_\n      public\n    {\n        require(isBound(token), ERR_NOT_BOUND);\n        _records[token].balance = ERC20(token).balanceOf(address(this));\n    }\n\n    function collect()\n      _logs_\n      _lock_\n      public returns (uint collected)\n    {\n        require(msg.sender == _factory, ERR_NOT_FACTORY);\n        uint fees = _balance[_factory];\n        _pushPoolShare(_factory, fees);\n        return (collected = fees);\n    }\n\n    function getSpotPrice(address Ti, address To)\n      public view\n        _viewlock_\n        returns (uint P)\n    {\n        return _getSpotPrice(Ti, To);\n    }\n    function _getSpotPrice(address Ti, address To)\n      internal view returns (uint P)\n    {\n        Record storage I = _records[Ti];\n        Record storage O = _records[To];\n        return _calc_SpotPrice(I.balance, I.denorm, O.balance, O.denorm, _swapFee);\n    }\n\n    function getSpotRate(address Ti, address To)\n      public view\n        _viewlock_\n        returns (uint R)\n    {\n        return _getSpotRate(Ti, To);\n    }\n    function _getSpotRate(address Ti, address To)\n      internal view returns (uint R)\n    {\n        Record storage I = _records[Ti];\n        Record storage O = _records[To];\n        return _calc_SpotRate(I.balance, I.denorm, O.balance, O.denorm, _swapFee);\n    }\n\n    function getSpotPriceSansFee(address Ti, address To)\n      public view\n        _viewlock_\n        returns (uint P)\n    {\n        Record storage I = _records[Ti];\n        Record storage O = _records[To];\n        return _calc_SpotPrice(I.balance, I.denorm, O.balance, O.denorm, 0);\n    }\n\n    function getSpotRateSansFee(address Ti, address To)\n      public view\n        _viewlock_\n        returns (uint P)\n    {\n        Record storage I = _records[Ti];\n        Record storage O = _records[To];\n        return _calc_SpotRate(I.balance, I.denorm, O.balance, O.denorm, 0);\n    }\n\n    function joinPool(uint poolAo)\n      public\n        _logs_\n        _lock_\n    {\n        require(_finalized, ERR_NOT_FINALIZED);\n        uint poolTotal = totalSupply();\n        uint ratio = bdiv(poolAo, poolTotal);\n        for( uint i = 0; i < _tokens.length; i++ ) {\n            address t = _tokens[i];\n            uint bal = _records[t].balance;\n            uint tAi = bmul(ratio, bal);\n            _records[t].balance = badd(_records[t].balance, tAi);\n            _pullUnderlying(t, msg.sender, tAi);\n        }\n        _mintPoolShare(poolAo);\n        _pushPoolShare(msg.sender, poolAo);\n    }\n\n    function exitPool(uint poolAi)\n      public\n        _logs_\n        _lock_\n    {\n        require(_finalized, ERR_NOT_FINALIZED);\n\n        uint poolTotal = totalSupply();\n        uint ratio = bdiv(poolAi, poolTotal);\n       \n        _pullPoolShare(msg.sender, poolAi); \n        _burnPoolShare(poolAi);\n\n        for( uint i = 0; i < _tokens.length; i++ ) {\n            address t = _tokens[i];\n            uint bal = _records[t].balance;\n            uint tAo = bmul(ratio, bal);\n            _records[t].balance = bsub(_records[t].balance, tAo);\n            _pushUnderlying(t, msg.sender, tAo);\n        }\n    }\n\n\n    function swap_ExactAmountIn(address Ti, uint Ai, address To, uint Lo, uint LP)\n        _logs_\n        _lock_\n        public returns (uint Ao, uint MP)\n    {\n        \n        require( isBound(Ti), ERR_NOT_BOUND );\n        require( isBound(To), ERR_NOT_BOUND );\n        require( isSwapPublic(), ERR_SWAP_NOT_PUBLIC );\n\n        Record storage I = _records[address(Ti)];\n        Record storage O = _records[address(To)];\n\n        require( Ai <= bmul(I.balance, MAX_IN_RATIO), ERR_MAX_IN_RATIO );\n\n        require( LP >= _getSpotPrice(Ti, To), ERR_ARG_LIMIT_IN);\n\n        Ao = _calc_OutGivenIn(I.balance, I.denorm, O.balance, O.denorm, Ai, _swapFee);\n        require( Ao >= Lo, ERR_LIMIT_OUT );\n\n        I.balance = badd(I.balance, Ai);\n        O.balance = bsub(O.balance, Ao);\n\n        uint Pafter = _getSpotPrice(Ti, To);\n        require(Pafter <= LP, ERR_LIMIT_PRICE);\n\n        _pullUnderlying(Ti, msg.sender, Ai);\n        _pushUnderlying(To, msg.sender, Ao);\n\n        emit LOG_SWAP(msg.sender, Ti, To, Ai, Ao);\n\n        return (Ao, Pafter);\n    }\n\n    function swap_ExactAmountOut(address Ti, uint Li, address To, uint Ao, uint PL)\n        _logs_\n        _lock_ \n        public returns (uint Ai, uint MP)\n    {\n        require( isBound(Ti), ERR_NOT_BOUND);\n        require( isBound(To), ERR_NOT_BOUND);\n        require( isSwapPublic(), ERR_SWAP_NOT_PUBLIC );\n\n        Record storage I = _records[address(Ti)];\n        Record storage O = _records[address(To)];\n\n        require(Ao <= bmul(O.balance, MAX_OUT_RATIO), ERR_MAX_OUT_RATIO );\n        require(PL < _getSpotRate(Ti, To), ERR_ARG_LIMIT_PRICE );\n\n        Ai = _calc_InGivenOut(I.balance, I.denorm, O.balance, O.denorm, Ao, _swapFee);\n        require( Ai <= Li, ERR_LIMIT_IN);\n\n        I.balance = badd(I.balance, Ai);\n        O.balance = bsub(O.balance, Ao);\n\n        uint Pafter = _getSpotRate(Ti, To);\n        require( Pafter >= PL, ERR_LIMIT_PRICE);\n\n        _pullUnderlying(Ti, msg.sender, Ai);\n        _pushUnderlying(To, msg.sender, Ao);\n\n        emit LOG_SWAP(msg.sender, Ti, To, Ai, Ao);\n\n        return (Ai, Pafter);\n    }\n\n    function swap_ExactMarginalPrice(address Ti, uint Li, address To, uint Lo, uint MP)\n        _logs_\n        _lock_\n        public returns (uint Ai, uint Ao)\n    {\n        require( isBound(Ti), ERR_NOT_BOUND);\n        require( isBound(To), ERR_NOT_BOUND);\n        require( isSwapPublic(), ERR_SWAP_NOT_PUBLIC );\n\n        Record storage I = _records[address(Ti)];\n        Record storage O = _records[address(To)];\n\n        require(Ao <= bmul(O.balance, MAX_OUT_RATIO), ERR_MAX_OUT_RATIO);\n        require(MP < _getSpotRate(Ti, To), ERR_ARG_LIMIT_PRICE);\n\n        Ai = _calc_InGivenPrice( I.balance, I.denorm, O.balance, O.denorm, MP, _swapFee );\n        Ao = _calc_OutGivenIn( I.balance, I.denorm, O.balance, O.denorm, Ai, _swapFee );\n\n        require( Ai <= Li, ERR_LIMIT_IN);\n        require( Ao >= Lo, ERR_LIMIT_OUT);\n\n        I.balance = badd(I.balance, Ai);\n        O.balance = bsub(O.balance, Ao);\n\n        _pullUnderlying(Ti, msg.sender, Ai);\n        _pushUnderlying(To, msg.sender, Ao);\n\n        emit LOG_SWAP(msg.sender, Ti, To, Ai, Ao);\n\n        return (Ai, Ao);\n    }\n\n    function joinswap_ExternAmountIn(address Ti, uint256 tAi)\n      public\n        _logs_\n        _lock_\n        returns (uint poolAo)\n    {\n        require( isBound(Ti), ERR_NOT_BOUND );\n        uint oldPoolTotal = _totalSupply;\n\n        Record storage T = _records[Ti];\n\n        poolAo = _calc_PoolOutGivenSingleIn(T.balance, T.denorm, _totalSupply, _totalWeight, tAi, _swapFee);\n\n        _mintPoolShare(poolAo);\n        _pushPoolShare(msg.sender, poolAo);\n        _pullUnderlying(Ti, msg.sender, tAi);\n        T.balance = badd(T.balance, tAi);\n        return poolAo;\n    }\n\n    function joinswap_PoolAmountOut(uint pAo, address Ti)\n      public\n        _logs_\n        _lock_\n        returns (uint tAi)\n    {\n        require( isBound(Ti), ERR_NOT_BOUND );\n\n        Record storage T = _records[Ti];\n\n        tAi = _calc_SingleInGivenPoolOut(T.balance, T.denorm, _totalSupply, _totalWeight, pAo, _swapFee);\n\n        _mintPoolShare(pAo);\n        _pushPoolShare(msg.sender, pAo);\n        _pullUnderlying(Ti, msg.sender, tAi);\n        T.balance = badd(T.balance, tAi);\n        return tAi;\n    }\n\n    function exitswap_PoolAmountIn(uint pAi, address To)\n      public\n        _logs_\n        _lock_\n        returns (uint tAo)\n    {\n        require( isBound(To), ERR_NOT_BOUND );\n\n        Record storage T = _records[To];\n\n        tAo = _calc_SingleOutGivenPoolIn(T.balance, T.denorm, _totalSupply, _totalWeight, pAi, _swapFee, _exitFee);\n\n        _pullPoolShare(msg.sender, pAi);\n        _burnPoolShare(pAi);\n        _pushUnderlying(To, msg.sender, tAo);\n        T.balance = bsub(T.balance, tAo);\n        return tAo;\n    }\n\n    function exitswap_ExternAmountOut(address To, uint tAo)\n      public\n        _logs_\n        _lock_\n        returns (uint pAi)\n    {\n        require( isBound(To), ERR_NOT_BOUND );\n\n        Record storage T = _records[To];\n\n        uint poolAoBeforeFees = _calc_PoolInGivenSingleOut(T.balance, T.denorm, _totalSupply, _totalWeight, tAo, _swapFee, _exitFee);\n     \n        _pullPoolShare(msg.sender, poolAoBeforeFees );  // Pull poolAoBeforeFees , not just poolAo \n        _burnPoolShare(poolAoBeforeFees);    \n        _pushUnderlying(To, msg.sender, tAo);\n        T.balance = bsub(T.balance, tAo);\n        return poolAoBeforeFees;\n    }\n\n\n    // ==\n    // 'Underlying' token-manipulation functions make external calls but are NOT locked\n    // You must `_lock_` or otherwise ensure reentry-safety\n\n    function _pullUnderlying(address erc20, address from, uint amt)\n      internal\n    {\n        bool xfer = ERC20(erc20).transferFrom(from, address(this), amt);\n        require(xfer, ERR_ERC20_FALSE);\n    }\n\n    function _pushUnderlying(address erc20, address to, uint amt)\n      internal\n    {\n        bool xfer = ERC20(erc20).transfer(to, amt);\n        require(xfer, ERR_ERC20_FALSE);\n    }\n\n    function _pullPoolShare(address from, uint amount)\n      internal {\n        _pull(from, amount);\n    }\n\n    function _pushPoolShare(address to, uint amount)\n      internal {\n        _push(to, amount);\n    }\n\n    function _mintPoolShare(uint amount)\n      internal {\n        _mint(amount);\n    }\n\n    function _burnPoolShare(uint amount)\n      internal {\n        _burn(amount);\n    }\n\n}\n",
  "sourcePath": "contracts/BPool.sol",
  "compiler": {
    "name": "solc",
    "version": "0.5.11+commit.c082d0b4.Emscripten.clang"
  },
  "schemaVersion": "3.0.16",
  "updatedAt": "2019-10-05T16:01:13.314Z",
  "devdoc": {
    "methods": {}
  },
  "userdoc": {
    "methods": {}
  }
}