{
  "contractName": "BStub",
  "abi": [
    {
      "constant": true,
      "inputs": [],
      "name": "MAX_TOTAL_WEIGHT",
      "outputs": [
        {
          "internalType": "uint256",
          "name": "",
          "type": "uint256"
        }
      ],
      "payable": false,
      "stateMutability": "view",
      "type": "function"
    },
    {
      "constant": true,
      "inputs": [],
      "name": "MIN_WEIGHT",
      "outputs": [
        {
          "internalType": "uint256",
          "name": "",
          "type": "uint256"
        }
      ],
      "payable": false,
      "stateMutability": "view",
      "type": "function"
    },
    {
      "constant": true,
      "inputs": [],
      "name": "MIN_FEE",
      "outputs": [
        {
          "internalType": "uint256",
          "name": "",
          "type": "uint256"
        }
      ],
      "payable": false,
      "stateMutability": "view",
      "type": "function"
    },
    {
      "constant": true,
      "inputs": [],
      "name": "MIN_BALANCE",
      "outputs": [
        {
          "internalType": "uint256",
          "name": "",
          "type": "uint256"
        }
      ],
      "payable": false,
      "stateMutability": "view",
      "type": "function"
    },
    {
      "constant": true,
      "inputs": [],
      "name": "getColor",
      "outputs": [
        {
          "internalType": "bytes32",
          "name": "",
          "type": "bytes32"
        }
      ],
      "payable": false,
      "stateMutability": "view",
      "type": "function"
    },
    {
      "constant": true,
      "inputs": [],
      "name": "MAX_FEE",
      "outputs": [
        {
          "internalType": "uint256",
          "name": "",
          "type": "uint256"
        }
      ],
      "payable": false,
      "stateMutability": "view",
      "type": "function"
    },
    {
      "constant": true,
      "inputs": [],
      "name": "MAX_BALANCE",
      "outputs": [
        {
          "internalType": "uint256",
          "name": "",
          "type": "uint256"
        }
      ],
      "payable": false,
      "stateMutability": "view",
      "type": "function"
    },
    {
      "constant": true,
      "inputs": [],
      "name": "MAX_WEIGHT",
      "outputs": [
        {
          "internalType": "uint256",
          "name": "",
          "type": "uint256"
        }
      ],
      "payable": false,
      "stateMutability": "view",
      "type": "function"
    },
    {
      "constant": true,
      "inputs": [
        {
          "internalType": "uint256",
          "name": "Bi",
          "type": "uint256"
        },
        {
          "internalType": "uint256",
          "name": "Wi",
          "type": "uint256"
        },
        {
          "internalType": "uint256",
          "name": "Bo",
          "type": "uint256"
        },
        {
          "internalType": "uint256",
          "name": "Wo",
          "type": "uint256"
        },
        {
          "internalType": "uint256",
          "name": "f",
          "type": "uint256"
        }
      ],
      "name": "calc_SpotPrice",
      "outputs": [
        {
          "internalType": "uint256",
          "name": "price",
          "type": "uint256"
        }
      ],
      "payable": false,
      "stateMutability": "pure",
      "type": "function"
    },
    {
      "constant": true,
      "inputs": [
        {
          "internalType": "uint256",
          "name": "Bi",
          "type": "uint256"
        },
        {
          "internalType": "uint256",
          "name": "Wi",
          "type": "uint256"
        },
        {
          "internalType": "uint256",
          "name": "Bo",
          "type": "uint256"
        },
        {
          "internalType": "uint256",
          "name": "Wo",
          "type": "uint256"
        },
        {
          "internalType": "uint256",
          "name": "f",
          "type": "uint256"
        }
      ],
      "name": "calc_SpotRate",
      "outputs": [
        {
          "internalType": "uint256",
          "name": "rate",
          "type": "uint256"
        }
      ],
      "payable": false,
      "stateMutability": "pure",
      "type": "function"
    },
    {
      "constant": true,
      "inputs": [
        {
          "internalType": "uint256",
          "name": "Bi",
          "type": "uint256"
        },
        {
          "internalType": "uint256",
          "name": "Wi",
          "type": "uint256"
        },
        {
          "internalType": "uint256",
          "name": "Bo",
          "type": "uint256"
        },
        {
          "internalType": "uint256",
          "name": "Wo",
          "type": "uint256"
        },
        {
          "internalType": "uint256",
          "name": "Ai",
          "type": "uint256"
        },
        {
          "internalType": "uint256",
          "name": "fee",
          "type": "uint256"
        }
      ],
      "name": "calc_OutGivenIn",
      "outputs": [
        {
          "internalType": "uint256",
          "name": "Ao",
          "type": "uint256"
        }
      ],
      "payable": false,
      "stateMutability": "pure",
      "type": "function"
    },
    {
      "constant": true,
      "inputs": [
        {
          "internalType": "uint256",
          "name": "Bi",
          "type": "uint256"
        },
        {
          "internalType": "uint256",
          "name": "Wi",
          "type": "uint256"
        },
        {
          "internalType": "uint256",
          "name": "Bo",
          "type": "uint256"
        },
        {
          "internalType": "uint256",
          "name": "Wo",
          "type": "uint256"
        },
        {
          "internalType": "uint256",
          "name": "Ao",
          "type": "uint256"
        },
        {
          "internalType": "uint256",
          "name": "fee",
          "type": "uint256"
        }
      ],
      "name": "calc_InGivenOut",
      "outputs": [
        {
          "internalType": "uint256",
          "name": "Ai",
          "type": "uint256"
        }
      ],
      "payable": false,
      "stateMutability": "pure",
      "type": "function"
    },
    {
      "constant": true,
      "inputs": [
        {
          "internalType": "uint256",
          "name": "Bi",
          "type": "uint256"
        },
        {
          "internalType": "uint256",
          "name": "Wi",
          "type": "uint256"
        },
        {
          "internalType": "uint256",
          "name": "Bo",
          "type": "uint256"
        },
        {
          "internalType": "uint256",
          "name": "Wo",
          "type": "uint256"
        },
        {
          "internalType": "uint256",
          "name": "SER1",
          "type": "uint256"
        },
        {
          "internalType": "uint256",
          "name": "fee",
          "type": "uint256"
        }
      ],
      "name": "calc_InGivenPrice",
      "outputs": [
        {
          "internalType": "uint256",
          "name": "Ai",
          "type": "uint256"
        }
      ],
      "payable": false,
      "stateMutability": "pure",
      "type": "function"
    },
    {
      "constant": true,
      "inputs": [
        {
          "internalType": "uint256",
          "name": "balance",
          "type": "uint256"
        },
        {
          "internalType": "uint256",
          "name": "weight",
          "type": "uint256"
        },
        {
          "internalType": "uint256",
          "name": "poolBalance",
          "type": "uint256"
        },
        {
          "internalType": "uint256",
          "name": "totalWeight",
          "type": "uint256"
        },
        {
          "internalType": "uint256",
          "name": "tAi",
          "type": "uint256"
        },
        {
          "internalType": "uint256",
          "name": "fee",
          "type": "uint256"
        }
      ],
      "name": "calc_PoolOutGivenSingleIn",
      "outputs": [
        {
          "internalType": "uint256",
          "name": "pAo",
          "type": "uint256"
        }
      ],
      "payable": false,
      "stateMutability": "pure",
      "type": "function"
    },
    {
      "constant": true,
      "inputs": [
        {
          "internalType": "uint256",
          "name": "balance",
          "type": "uint256"
        },
        {
          "internalType": "uint256",
          "name": "weight",
          "type": "uint256"
        },
        {
          "internalType": "uint256",
          "name": "poolSupply",
          "type": "uint256"
        },
        {
          "internalType": "uint256",
          "name": "totalWeight",
          "type": "uint256"
        },
        {
          "internalType": "uint256",
          "name": "pAo",
          "type": "uint256"
        },
        {
          "internalType": "uint256",
          "name": "fee",
          "type": "uint256"
        }
      ],
      "name": "calc_SingleInGivenPoolOut",
      "outputs": [
        {
          "internalType": "uint256",
          "name": "tokenIn",
          "type": "uint256"
        }
      ],
      "payable": false,
      "stateMutability": "pure",
      "type": "function"
    },
    {
      "constant": true,
      "inputs": [
        {
          "internalType": "uint256",
          "name": "balance",
          "type": "uint256"
        },
        {
          "internalType": "uint256",
          "name": "weight",
          "type": "uint256"
        },
        {
          "internalType": "uint256",
          "name": "poolSupply",
          "type": "uint256"
        },
        {
          "internalType": "uint256",
          "name": "totalWeight",
          "type": "uint256"
        },
        {
          "internalType": "uint256",
          "name": "pAi",
          "type": "uint256"
        },
        {
          "internalType": "uint256",
          "name": "fee",
          "type": "uint256"
        },
        {
          "internalType": "uint256",
          "name": "exitFee",
          "type": "uint256"
        }
      ],
      "name": "calc_SingleOutGivenPoolIn",
      "outputs": [
        {
          "internalType": "uint256",
          "name": "tAo",
          "type": "uint256"
        }
      ],
      "payable": false,
      "stateMutability": "pure",
      "type": "function"
    },
    {
      "constant": true,
      "inputs": [
        {
          "internalType": "uint256",
          "name": "balance",
          "type": "uint256"
        },
        {
          "internalType": "uint256",
          "name": "weight",
          "type": "uint256"
        },
        {
          "internalType": "uint256",
          "name": "poolSupply",
          "type": "uint256"
        },
        {
          "internalType": "uint256",
          "name": "totalWeight",
          "type": "uint256"
        },
        {
          "internalType": "uint256",
          "name": "tAo",
          "type": "uint256"
        },
        {
          "internalType": "uint256",
          "name": "swapFee",
          "type": "uint256"
        },
        {
          "internalType": "uint256",
          "name": "exitFee",
          "type": "uint256"
        }
      ],
      "name": "calc_PoolInGivenSingleOut",
      "outputs": [
        {
          "internalType": "uint256",
          "name": "pAi",
          "type": "uint256"
        }
      ],
      "payable": false,
      "stateMutability": "pure",
      "type": "function"
    },
    {
      "constant": true,
      "inputs": [
        {
          "internalType": "uint256",
          "name": "base",
          "type": "uint256"
        },
        {
          "internalType": "uint256",
          "name": "exp",
          "type": "uint256"
        }
      ],
      "name": "calc_bpow",
      "outputs": [
        {
          "internalType": "uint256",
          "name": "",
          "type": "uint256"
        }
      ],
      "payable": false,
      "stateMutability": "pure",
      "type": "function"
    },
    {
      "constant": true,
      "inputs": [
        {
          "internalType": "uint256",
          "name": "base",
          "type": "uint256"
        },
        {
          "internalType": "uint256",
          "name": "exp",
          "type": "uint256"
        },
        {
          "internalType": "uint256",
          "name": "K",
          "type": "uint256"
        }
      ],
      "name": "calc_bpowK",
      "outputs": [
        {
          "internalType": "uint256",
          "name": "",
          "type": "uint256"
        }
      ],
      "payable": false,
      "stateMutability": "pure",
      "type": "function"
    }
  ],
  "bytecode": "0x608060405234801561001057600080fd5b50611144806100206000396000f3fe608060405234801561001057600080fd5b506004361061013e576000357c010000000000000000000000000000000000000000000000000000000090048063867378c5116100ca578063def92c691161008e578063def92c6914610345578063e4a28a5214610143578063e7d5c9c41461034d578063f5f5b1481461038e578063fd241f29146103b15761013e565b8063867378c5146102b157806396e19f84146102b95780639a86139b146102fa578063a7f39e3714610302578063bc063e1a1461033d5761013e565b8063218b538211610111578063218b53821461020857806351b03ec3146102105780636c7a21981461024557806374434dca1461026e57806376c7a3c7146102a95761013e565b806309a3bbe4146101435780630b896c961461015d5780630f82749d1461019257806318b098cf146101cd575b600080fd5b61014b6103ec565b60408051918252519081900360200190f35b61014b600480360360a081101561017357600080fd5b50803590602081013590604081013590606081013590608001356103f9565b61014b600480360360c08110156101a857600080fd5b5080359060208101359060408101359060608101359060808101359060a00135610412565b61014b600480360360c08110156101e357600080fd5b5080359060208101359060408101359060608101359060808101359060a0013561042d565b61014b61043d565b61014b600480360360a081101561022657600080fd5b5080359060208101359060408101359060608101359060800135610449565b61014b6004803603606081101561025b57600080fd5b5080359060208101359060400135610458565b61014b600480360360c081101561028457600080fd5b5080359060208101359060408101359060608101359060808101359060a0013561046d565b61014b61047d565b61014b61048e565b61014b600480360360e08110156102cf57600080fd5b5080359060208101359060408101359060608101359060808101359060a08101359060c001356104a0565b61014b6104bd565b61014b600480360360c081101561031857600080fd5b5080359060208101359060408101359060608101359060808101359060a001356104e1565b61014b6104f1565b61014b610501565b61014b600480360360e081101561036357600080fd5b5080359060208101359060408101359060608101359060808101359060a08101359060c00135610512565b61014b600480360360408110156103a457600080fd5b5080359060200135610523565b61014b600480360360c08110156103c757600080fd5b5080359060208101359060408101359060608101359060808101359060a00135610538565b6802b5e3af16b188000081565b60006104088686868686610548565b9695505050505050565b60006104228787878787876105b2565b979650505050505050565b6000610422878787878787610642565b670de0b6b3a764000081565b600061040886868686866106df565b600061046584848461072a565b949350505050565b6000610422878787878787610808565b612710670de0b6b3a76400005b0481565b620f4240670de0b6b3a764000061048a565b60006104b188888888888888610889565b98975050505050505050565b7f42524f4e5a45000000000000000000000000000000000000000000000000000090565b60006104228787878787876108f7565b600a670de0b6b3a764000061048a565b6c0c9f2c9cd04674edea4000000081565b60006104b188888888888888610512565b600061052f838361096b565b90505b92915050565b6000610422878787878787610b18565b6000806105558585610be0565b905060006105638888610be0565b905060006105718383610be0565b90506000610598670de0b6b3a7640000610593670de0b6b3a764000089610db9565b610e5d565b90506105a48282610e5d565b9a9950505050505050505050565b6000806105c3888888886000610548565b905060006105d18286610be0565b905060006105e8876105e3898c610fa1565b610be0565b90506106056105f7838361096b565b670de0b6b3a7640000610db9565b9350610611848b610e5d565b93506000610627670de0b6b3a764000087610db9565b90506106338582610be0565b9b9a5050505050505050505050565b60008061064f8786610be0565b90506000610665670de0b6b3a764000083610db9565b90506000610677866105938488610e5d565b905060006106858783610db9565b90508060006106948d83610fa1565b905060006106a2828f610be0565b905060006106b0828961096b565b905060006106be828f610e5d565b90506106ca818f610db9565b99505050505050505050509695505050505050565b6000806106ec8787610be0565b905060006106fa8686610be0565b905060006107088383610be0565b90506000610598670de0b6b3a76400006105e3670de0b6b3a764000089610db9565b600082818061074187670de0b6b3a7640000611036565b9092509050670de0b6b3a764000080600060015b8881116107f9576000670de0b6b3a7640000820290506000806107898a61078485670de0b6b3a7640000610db9565b611036565b9150915061079b87610593848c610e5d565b96506107a78784610be0565b9650866107b6575050506107f9565b87156107c0579315935b80156107ca579315935b84156107e1576107da8688610db9565b95506107ee565b6107eb8688610fa1565b95505b505050600101610755565b50909998505050505050505050565b6000806108158786610be0565b9050600061082b670de0b6b3a764000085610db9565b90506108378582610e5d565b905060006108498a6105e38c85610fa1565b90506000610857828561096b565b9050600061086d670de0b6b3a764000083610db9565b90506108798a82610e5d565b9c9b505050505050505050505050565b6000806108968887610be0565b905060006108a582878761105b565b905080880360006108be670de0b6b3a764000085610be0565b905060006108d56108cf848d610be0565b8361096b565b905060006108e3828f610e5d565b909d039d9c50505050505050505050505050565b6000806109048588610be0565b905060006109128786610db9565b905060006109208883610be0565b9050600061092e828561096b565b905061094281670de0b6b3a7640000610db9565b9050610956670de0b6b3a764000087610db9565b94506106336109658c83610e5d565b86610be0565b60408051808201909152601681527f4552525f42504f575f424153455f544f4f5f48494748000000000000000000006020820152600090671bc16d674ec80000841115610a395760405160e560020a62461bcd0281526004018080602001828103825283818151815260200191508051906020019080838360005b838110156109fe5781810151838201526020016109e6565b50505050905090810190601f168015610a2b5780820380516001836020036101000a031916815260200191505b509250505060405180910390fd5b5060408051808201909152601581527f4552525f42504f575f424153455f544f4f5f4c4f570000000000000000000000602082015283610abd5760405160e560020a62461bcd0281526020600482018181528351602484015283519092839260449091019190850190808383600083156109fe5781810151838201526020016109e6565b506000610ac98361108f565b90506000610ad78483610db9565b90506000610aed86610ae8856110aa565b6110b8565b905081610afe579250610532915050565b6000610b0c8784601461072a565b90506104228282610e5d565b600080610b258786610be0565b90506000610b338786610fa1565b90506000610b418289610be0565b90506000610b57670de0b6b3a764000085610be0565b90506000610b65838361096b565b90506000610b73828e610e5d565b90506000610b81828f610db9565b90506000610b97670de0b6b3a764000089610db9565b90506000610ba5828c610e5d565b90506000610bbb670de0b6b3a764000083610db9565b90506000610bc98583610be0565b9b5050505050505050505050509695505050505050565b60408051808201909152600c81527f4552525f4449565f5a45524f0000000000000000000000000000000000000000602082015260009082610c665760405160e560020a62461bcd0281526020600482018181528351602484015283519092839260449091019190850190808383600083156109fe5781810151838201526020016109e6565b50670de0b6b3a76400008302831580610c8f5750670de0b6b3a7640000848281610c8c57fe5b04145b6040518060400160405280601081526020017f4552525f4449565f494e5445524e414c0000000000000000000000000000000081525090610d145760405160e560020a62461bcd0281526020600482018181528351602484015283519092839260449091019190850190808383600083156109fe5781810151838201526020016109e6565b5060408051808201909152601081527f4552525f4449565f494e5445524e414c0000000000000000000000000000000060208201526002840482019082821015610da25760405160e560020a62461bcd0281526020600482018181528351602484015283519092839260449091019190850190808383600083156109fe5781810151838201526020016109e6565b506000848281610dae57fe5b049695505050505050565b6000806000610dc88585611036565b9150915080156040518060400160405280601181526020017f4552525f5355425f554e444552464c4f5700000000000000000000000000000081525090610e535760405160e560020a62461bcd0281526020600482018181528351602484015283519092839260449091019190850190808383600083156109fe5781810151838201526020016109e6565b5090949350505050565b6000828202831580610e77575082848281610e7457fe5b04145b6040518060400160405280601081526020017f4552525f4d554c5f4f564552464c4f570000000000000000000000000000000081525090610efc5760405160e560020a62461bcd0281526020600482018181528351602484015283519092839260449091019190850190808383600083156109fe5781810151838201526020016109e6565b5060408051808201909152601081527f4552525f4d554c5f4f564552464c4f570000000000000000000000000000000060208201526706f05b59d3b2000082019082821015610f8f5760405160e560020a62461bcd0281526020600482018181528351602484015283519092839260449091019190850190808383600083156109fe5781810151838201526020016109e6565b506000670de0b6b3a764000082610dae565b60408051808201909152601081527f4552525f4144445f4f564552464c4f57000000000000000000000000000000006020820152600090838301908482101561102e5760405160e560020a62461bcd0281526020600482018181528351602484015283519092839260449091019190850190808383600083156109fe5781810151838201526020016109e6565b509392505050565b60008082841061104c5750508082036000611054565b505081810360015b9250929050565b6000670de0b6b3a7640000849003816110748583610e5d565b905060006110828286610e5d565b9095039695505050505050565b6000670de0b6b3a76400006110a3836110aa565b0292915050565b670de0b6b3a7640000900490565b600080600283066110d157670de0b6b3a76400006110d3565b835b90506002830492505b821561052f576110ec8485610e5d565b93506002830615611104576111018185610e5d565b90505b6002830492506110dc56fea265627a7a723158204c5602b2d15a938bcf77613f6d29d3e7d92f63be1f26fb36df0c91f32b9e5ff164736f6c634300050b0032",
  "source": "// This program is free software: you can redistribute it and/or modify\n// it under the terms of the GNU General Public License as published by\n// the Free Software Foundation, either version 3 of the License, or\n// (at your option) any later version.\n\n// This program is distributed in the hope that it will be useful,\n// but WITHOUT ANY WARRANTY; without even the implied warranty of\n// MERCHANTABILITY or FITNESS FOR A PARTICULAR PURPOSE.  See the\n// GNU General Public License for more details.\n\n// You should have received a copy of the GNU General Public License\n// along with this program.  If not, see <http://www.gnu.org/licenses/>.\n\npragma solidity ^0.5.11;\n\nimport \"contracts/BColor.sol\";\nimport \"contracts/BMath.sol\";\n\n// BStub exposes BMath internal functions\n\ncontract BStub is BBronze, BMath\n{\n    function calc_SpotPrice( uint Bi, uint Wi, uint Bo, uint Wo, uint f )\n      public pure\n        returns ( uint price ) \n    {\n        return (price = _calc_SpotPrice(Bi, Wi, Bo, Wo, f));\n    }\n\n    function calc_SpotRate( uint Bi, uint Wi, uint Bo, uint Wo, uint f )\n      public pure\n        returns ( uint rate ) \n    {\n        return (rate = _calc_SpotRate(Bi, Wi, Bo, Wo, f));\n    }\n\n    function calc_OutGivenIn( uint Bi, uint Wi\n                            , uint Bo, uint Wo\n                            , uint Ai\n                            , uint fee\n                            )\n      public pure\n        returns ( uint Ao )\n    {\n        return _calc_OutGivenIn(Bi, Wi, Bo, Wo, Ai, fee);\n    }\n\n    function calc_InGivenOut( uint Bi, uint Wi\n                            , uint Bo, uint Wo\n                            , uint Ao\n                            , uint fee\n                            )\n      public pure\n        returns ( uint Ai )\n    {\n        return _calc_InGivenOut(Bi, Wi, Bo, Wo, Ao, fee);\n    }\n\n    function calc_InGivenPrice( uint Bi, uint Wi\n                              , uint Bo , uint Wo\n                              , uint SER1\n                              , uint fee)\n      public pure\n        returns ( uint Ai )\n    {\n        return _calc_InGivenPrice(Bi, Wi, Bo, Wo, SER1, fee);\n    }\n\n    function calc_PoolOutGivenSingleIn( uint balance, uint weight\n                                      , uint poolBalance, uint totalWeight\n                                      , uint tAi, uint fee )\n      public pure\n        returns (uint pAo)\n    {\n        return  _calc_PoolOutGivenSingleIn( balance, weight, poolBalance, totalWeight , tAi, fee );\n    }\n\n    function calc_SingleInGivenPoolOut( uint balance, uint weight\n                                      , uint poolSupply, uint totalWeight\n                                      , uint pAo, uint fee)\n      public pure\n        returns (uint tokenIn)\n    {\n        return _calc_SingleInGivenPoolOut( balance, weight, poolSupply, totalWeight, pAo, fee);\n    }\n\n    function calc_SingleOutGivenPoolIn( uint balance, uint weight\n                                       , uint poolSupply, uint totalWeight\n                                       , uint pAi, uint fee, uint exitFee)\n      public pure\n        returns (uint tAo)\n    {\n        return _calc_SingleOutGivenPoolIn( balance, weight, poolSupply, totalWeight, pAi, fee, exitFee);\n    }\n\n    function calc_PoolInGivenSingleOut( uint balance, uint weight\n                                      , uint poolSupply, uint totalWeight\n                                      , uint tAo, uint swapFee, uint exitFee)\n      public pure\n        returns (uint pAi)\n    {\n        return calc_PoolInGivenSingleOut( balance, weight, poolSupply, totalWeight, tAo, swapFee, exitFee);\n    }\n\n\n    function calc_bpow(uint base, uint exp)\n      public pure\n        returns (uint)\n    {\n        return bpow(base, exp);\n    }\n\n    function calc_bpowK(uint base, uint exp, uint K)\n      public pure\n        returns (uint)\n    {\n        return bpowK(base, exp, K);\n    }\n\n}\n",
  "sourcePath": "/Users/admin/desk/balancer/core/contracts/BStub.sol",
  "compiler": {
    "name": "solc",
    "version": "0.5.11+commit.c082d0b4.Emscripten.clang"
  },
  "schemaVersion": "3.0.16",
  "updatedAt": "2019-10-05T03:04:43.236Z",
  "devdoc": {
    "methods": {}
  },
  "userdoc": {
    "methods": {}
  }
}