{
  "contractName": "BToken",
  "abi": [
    {
      "constant": true,
      "inputs": [],
      "name": "MAX_TOTAL_WEIGHT",
      "outputs": [
        {
          "internalType": "uint256",
          "name": "",
          "type": "uint256"
        }
      ],
      "payable": false,
      "stateMutability": "view",
      "type": "function"
    },
    {
      "constant": true,
      "inputs": [],
      "name": "MIN_WEIGHT",
      "outputs": [
        {
          "internalType": "uint256",
          "name": "",
          "type": "uint256"
        }
      ],
      "payable": false,
      "stateMutability": "view",
      "type": "function"
    },
    {
      "constant": true,
      "inputs": [],
      "name": "MIN_FEE",
      "outputs": [
        {
          "internalType": "uint256",
          "name": "",
          "type": "uint256"
        }
      ],
      "payable": false,
      "stateMutability": "view",
      "type": "function"
    },
    {
      "constant": true,
      "inputs": [],
      "name": "MIN_BALANCE",
      "outputs": [
        {
          "internalType": "uint256",
          "name": "",
          "type": "uint256"
        }
      ],
      "payable": false,
      "stateMutability": "view",
      "type": "function"
    },
    {
      "constant": true,
      "inputs": [],
      "name": "getColor",
      "outputs": [
        {
          "internalType": "bytes32",
          "name": "",
          "type": "bytes32"
        }
      ],
      "payable": false,
      "stateMutability": "view",
      "type": "function"
    },
    {
      "constant": true,
      "inputs": [],
      "name": "MAX_FEE",
      "outputs": [
        {
          "internalType": "uint256",
          "name": "",
          "type": "uint256"
        }
      ],
      "payable": false,
      "stateMutability": "view",
      "type": "function"
    },
    {
      "constant": true,
      "inputs": [],
      "name": "MAX_BALANCE",
      "outputs": [
        {
          "internalType": "uint256",
          "name": "",
          "type": "uint256"
        }
      ],
      "payable": false,
      "stateMutability": "view",
      "type": "function"
    },
    {
      "constant": true,
      "inputs": [],
      "name": "MAX_WEIGHT",
      "outputs": [
        {
          "internalType": "uint256",
          "name": "",
          "type": "uint256"
        }
      ],
      "payable": false,
      "stateMutability": "view",
      "type": "function"
    },
    {
      "anonymous": false,
      "inputs": [
        {
          "indexed": true,
          "internalType": "address",
          "name": "src",
          "type": "address"
        },
        {
          "indexed": true,
          "internalType": "address",
          "name": "guy",
          "type": "address"
        },
        {
          "indexed": false,
          "internalType": "uint256",
          "name": "wad",
          "type": "uint256"
        }
      ],
      "name": "Approval",
      "type": "event"
    },
    {
      "anonymous": false,
      "inputs": [
        {
          "indexed": true,
          "internalType": "address",
          "name": "src",
          "type": "address"
        },
        {
          "indexed": true,
          "internalType": "address",
          "name": "dst",
          "type": "address"
        },
        {
          "indexed": false,
          "internalType": "uint256",
          "name": "wad",
          "type": "uint256"
        }
      ],
      "name": "Transfer",
      "type": "event"
    },
    {
      "anonymous": false,
      "inputs": [
        {
          "indexed": false,
          "internalType": "uint256",
          "name": "amt",
          "type": "uint256"
        }
      ],
      "name": "Mint",
      "type": "event"
    },
    {
      "anonymous": false,
      "inputs": [
        {
          "indexed": false,
          "internalType": "uint256",
          "name": "amt",
          "type": "uint256"
        }
      ],
      "name": "Burn",
      "type": "event"
    },
    {
      "anonymous": false,
      "inputs": [
        {
          "indexed": true,
          "internalType": "address",
          "name": "src",
          "type": "address"
        },
        {
          "indexed": true,
          "internalType": "address",
          "name": "dst",
          "type": "address"
        },
        {
          "indexed": false,
          "internalType": "uint256",
          "name": "amt",
          "type": "uint256"
        }
      ],
      "name": "Move",
      "type": "event"
    },
    {
      "constant": true,
      "inputs": [
        {
          "internalType": "address",
          "name": "src",
          "type": "address"
        },
        {
          "internalType": "address",
          "name": "guy",
          "type": "address"
        }
      ],
      "name": "allowance",
      "outputs": [
        {
          "internalType": "uint256",
          "name": "",
          "type": "uint256"
        }
      ],
      "payable": false,
      "stateMutability": "view",
      "type": "function"
    },
    {
      "constant": true,
      "inputs": [
        {
          "internalType": "address",
          "name": "whom",
          "type": "address"
        }
      ],
      "name": "balanceOf",
      "outputs": [
        {
          "internalType": "uint256",
          "name": "",
          "type": "uint256"
        }
      ],
      "payable": false,
      "stateMutability": "view",
      "type": "function"
    },
    {
      "constant": true,
      "inputs": [],
      "name": "totalSupply",
      "outputs": [
        {
          "internalType": "uint256",
          "name": "",
          "type": "uint256"
        }
      ],
      "payable": false,
      "stateMutability": "view",
      "type": "function"
    },
    {
      "constant": false,
      "inputs": [
        {
          "internalType": "address",
          "name": "guy",
          "type": "address"
        },
        {
          "internalType": "uint256",
          "name": "wad",
          "type": "uint256"
        }
      ],
      "name": "approve",
      "outputs": [
        {
          "internalType": "bool",
          "name": "",
          "type": "bool"
        }
      ],
      "payable": false,
      "stateMutability": "nonpayable",
      "type": "function"
    },
    {
      "constant": false,
      "inputs": [
        {
          "internalType": "address",
          "name": "dst",
          "type": "address"
        },
        {
          "internalType": "uint256",
          "name": "wad",
          "type": "uint256"
        }
      ],
      "name": "transfer",
      "outputs": [
        {
          "internalType": "bool",
          "name": "",
          "type": "bool"
        }
      ],
      "payable": false,
      "stateMutability": "nonpayable",
      "type": "function"
    },
    {
      "constant": false,
      "inputs": [
        {
          "internalType": "address",
          "name": "src",
          "type": "address"
        },
        {
          "internalType": "address",
          "name": "dst",
          "type": "address"
        },
        {
          "internalType": "uint256",
          "name": "wad",
          "type": "uint256"
        }
      ],
      "name": "transferFrom",
      "outputs": [
        {
          "internalType": "bool",
          "name": "",
          "type": "bool"
        }
      ],
      "payable": false,
      "stateMutability": "nonpayable",
      "type": "function"
    }
  ],
  "bytecode": "0x608060405234801561001057600080fd5b506107b1806100206000396000f3fe608060405234801561001057600080fd5b5060043610610107576000357c010000000000000000000000000000000000000000000000000000000090048063867378c5116100a9578063bc063e1a11610083578063bc063e1a14610216578063dd62ed3e1461021e578063def92c691461024c578063e4a28a521461014c57610107565b8063867378c5146101da5780639a86139b146101e2578063a9059cbb146101ea57610107565b8063218b5382116100e5578063218b53821461016e57806323b872dd1461017657806370a08231146101ac57806376c7a3c7146101d257610107565b8063095ea7b31461010c57806309a3bbe41461014c57806318160ddd14610166575b600080fd5b6101386004803603604081101561012257600080fd5b50600160a060020a038135169060200135610254565b604080519115158252519081900360200190f35b6101546102b8565b60408051918252519081900360200190f35b6101546102c5565b6101546102cb565b6101386004803603606081101561018c57600080fd5b50600160a060020a038135811691602081013590911690604001356102d7565b610154600480360360208110156101c257600080fd5b5035600160a060020a031661046c565b610154610487565b610154610498565b6101546104aa565b6101386004803603604081101561020057600080fd5b50600160a060020a0381351690602001356104ce565b610154610524565b6101546004803603604081101561023457600080fd5b50600160a060020a0381358116916020013516610534565b61015461055d565b33600081815260208181526040808320600160a060020a038716808552908352818420869055815186815291519394909390927f8c5be1e5ebec7d5bd14f71427d1e84f3dd0314c0f7b2291e5b200ac8c7c3b925928290030190a350600192915050565b6802b5e3af16b188000081565b60025490565b670de0b6b3a764000081565b600033600160a060020a03851614806103115750600160a060020a0384166000908152602081815260408083203384529091529020548211155b61037c57604080517f08c379a000000000000000000000000000000000000000000000000000000000815260206004820152601560248201527f4552525f42544f4b454e5f4241445f43414c4c45520000000000000000000000604482015290519081900360640190fd5b61038784848461056e565b82600160a060020a031684600160a060020a03167fddf252ad1be2c89b69c2b068fc378daa952ba7f163c4a11628f55a4df523b3ef846040518082815260200191505060405180910390a333600160a060020a0385161480159061040e5750600160a060020a03841660009081526020818152604080832033845290915290205460001914155b1561046257600160a060020a03841660009081526020818152604080832033845290915290205461043f908361061c565b600160a060020a0385166000908152602081815260408083203384529091529020555b5060019392505050565b600160a060020a031660009081526001602052604090205490565b612710670de0b6b3a76400005b0481565b620f4240670de0b6b3a7640000610494565b7f42524f4e5a45000000000000000000000000000000000000000000000000000090565b60006104db33848461056e565b604080518381529051600160a060020a0385169133917fddf252ad1be2c89b69c2b068fc378daa952ba7f163c4a11628f55a4df523b3ef9181900360200190a350600192915050565b600a670de0b6b3a7640000610494565b600160a060020a0391821660009081526020818152604080832093909416825291909152205490565b6c0c9f2c9cd04674edea4000000081565b600160a060020a038316600090815260016020526040902054610591908261061c565b600160a060020a0380851660009081526001602052604080822093909355908416815220546105c09082610693565b600160a060020a0380841660008181526001602090815260409182902094909455805185815290519193928716927fdeb3a6837278f6e9914a507e4d73f08e841d8fca434fb97d4307b3b0d3d6b10592918290030190a3505050565b60008183101561068d57604080517f08c379a000000000000000000000000000000000000000000000000000000000815260206004820152601460248201527f4552525f42544f4b454e5f554e444552464c4f57000000000000000000000000604482015290519081900360640190fd5b50900390565b60408051808201909152601081527f4552525f4144445f4f564552464c4f570000000000000000000000000000000060208201526000908383019084821015610774576040517f08c379a00000000000000000000000000000000000000000000000000000000081526004018080602001828103825283818151815260200191508051906020019080838360005b83811015610739578181015183820152602001610721565b50505050905090810190601f1680156107665780820380516001836020036101000a031916815260200191505b509250505060405180910390fd5b50939250505056fea265627a7a7231582007d76eaa31b47bfac32089bac9e41186edbb0c5b0f068f00b8c9e0a6029ae97464736f6c634300050b0032",
  "source": "// This program is free software: you can redistribute it and/or modify\n// it under the terms of the GNU General Public License as published by\n// the Free Software Foundation, either version 3 of the License, or\n// (at your option) any later version.\n\n// This program is distributed in the hope that it will be useful,\n// but WITHOUT ANY WARRANTY; without even the implied warranty of\n// MERCHANTABILITY or FITNESS FOR A PARTICULAR PURPOSE.  See the\n// GNU General Public License for more details.\n\n// You should have received a copy of the GNU General Public License\n// along with this program.  If not, see <http://www.gnu.org/licenses/>.\n\npragma solidity ^0.5.11;\n\nimport \"contracts/BNum.sol\";\n\n// Highly opinionated token implementation\n\ncontract BTokenBase is BNum\n{\n    mapping(address=>\n      mapping(address=>uint))   internal _allowance;\n    mapping(address=>uint)      internal _balance;\n    uint                        internal _totalSupply;\n\n    event Mint(uint amt);\n    event Burn(uint amt);\n    event Move(address indexed src, address indexed dst, uint amt);\n\n    function sub(uint a, uint b) internal returns (uint) {\n        require(a >= b, \"ERR_BTOKEN_UNDERFLOW\"); // TODO report 'insufficient balance' if that's the case\n        return a - b;\n    }\n\n    function _mint(uint amt) internal {\n        _balance[address(this)] = badd(_balance[address(this)], amt);\n        _totalSupply   = badd(_totalSupply, amt);\n        emit Mint(amt);\n    }\n\n    function _burn(uint amt) internal {\n        _balance[address(this)] = sub(_balance[address(this)], amt);\n        _totalSupply   = sub(_totalSupply, amt);\n        emit Burn(amt);\n    }\n\n    function _move(address src, address dst, uint amt) internal {\n        _balance[src] = sub(_balance[src], amt);\n        _balance[dst] = badd(_balance[dst], amt);\n        emit Move(src, dst, amt);\n    }\n\n    function _push(address to, uint amt) internal {\n        _move(address(this), to, amt);\n    }\n\n    function _pull(address from, uint amt) internal {\n        _move(from, address(this), amt);\n    }\n\n}\n\ncontract ERC20 {\n    event Approval(address indexed src, address indexed guy, uint wad);\n    event Transfer(address indexed src, address indexed dst, uint wad);\n\n    function totalSupply() public view returns (uint);\n    function balanceOf(address guy) public view returns (uint);\n    function allowance(address src, address guy) public view returns (uint);\n\n    function approve(address guy, uint wad) public returns (bool);\n    function transfer(address dst, uint wad) public returns (bool);\n    function transferFrom(\n        address src, address dst, uint wad\n    ) public returns (bool);\n}\n\ncontract BToken is BBronze, BTokenBase, ERC20\n{\n    //==  ERC20 is underspecified and bad for the Ethereum ecosystem ==//\n    //--                          @realDonaldTrump (Oct 16, 2016)    --//\n\n    function allowance(address src, address guy) public view returns (uint) {\n        return _allowance[src][guy];\n    }\n\n    function balanceOf(address whom) public view returns (uint) {\n        return _balance[whom];\n    }\n\n    function totalSupply() public view returns (uint) {\n        return _totalSupply;\n    }\n\n    function approve(address guy, uint wad) public returns (bool) {\n        _allowance[msg.sender][guy] = wad;\n        emit Approval(msg.sender, guy, wad);\n        return true;\n    }\n\n    function transfer(address dst, uint wad) public returns (bool) {\n        _move(msg.sender, dst, wad);\n        emit Transfer(msg.sender, dst, wad);\n        return true;\n    }\n\n    function transferFrom(address src, address dst, uint wad) public returns (bool) {\n        require(msg.sender == src || wad <= _allowance[src][msg.sender], \"ERR_BTOKEN_BAD_CALLER\");\n        _move(src, dst, wad);\n        emit Transfer(src, dst, wad);\n        if( msg.sender != src && _allowance[src][msg.sender] != uint256(-1) ) {\n            _allowance[src][msg.sender] = sub(_allowance[src][msg.sender], wad);\n        }\n        return true;\n    }\n}\n\n\n",
  "sourcePath": "/Users/admin/desk/balancer/core/contracts/BToken.sol",
  "compiler": {
    "name": "solc",
    "version": "0.5.11+commit.c082d0b4.Emscripten.clang"
  },
  "schemaVersion": "3.0.16",
  "updatedAt": "2019-10-05T03:04:43.241Z",
  "devdoc": {
    "methods": {}
  },
  "userdoc": {
    "methods": {}
  }
}